S00A00006578392E733337D4
S113000000100020BD240000B9240000B924000021
S1130010B9240000B9240000B9240000B924000068
S1130020B9240000B9240000B9240000B924000058
S1130030B9240000B9240000B9240000B924000048
S1130040B9240000B9240000B9240000B924000038
S1130050B9240000B9240000B9240000B924000028
S1130060B9240000B9240000092B0000B9240000C1
S1130070B9240000B9240000B9240000B924000008
S1130080B9240000B9240000252B0000B924000085
S1130090B9240000B9240000B9240000B9240000E8
S11300A0B9240000B9240000B9240000B9240000D8
S11300B0B9240000B924000085650000B9240000BB
S11300C0B9240000B9240000B9240000B9240000B8
S11300D0B9240000B9240000B9240000B9240000A8
S11300E05521000061210000B9240000B92400005A
S11300F0B9240000B9240000B9240000B924000088
S1130100B9240000B9240000B924000010B5054C3E
S1130110237833B9044B13B10448AFF300800123AF
S1130120237010BDE81300200000000048B0000058
S113013008B5034B1BB103490348AFF3008008BD66
S113014000000000EC13002048B00000A3F5803A42
S1130150704700BF174B002B08BF134B9D46FFF79A
S1130160F5FF00218B460F461348144A121A07F074
S113017045FC0E4B002B00D098470D4B002B00D0B4
S113018098470020002104000D000D48002802D0EB
S11301900C48AFF3008007F0FFFB2000290001F0BA
S11301A05FF907F0E5FB00BF000008000000000055
S11301B00000000000100020E8130020D469002093
S11301C0000000000000000008B501F0EBFE00286C
S11301D005DA054801F09CFD6FF00D0008BD01F043
S11301E0E3FE0020FAE700BFC08F000010B5084608
S11301F01146144601F0D2FEA04204DA034801F08D
S113020087FD6FF00704204610BD00BFE38F000098
S113021013B50C4620461146CDE9002307F0A4FB94
S1130220DDE90012204601F0BBFE002806D1074894
S113023001F06EFD6FF0060002B010BDFCDA044858
S113024001F066FD6FF00700F6E700BF09900000BB
S11302502590000037B505460C461348019201F07D
S113026057FD01992C60204601F010FE002806DAA3
S11302700E4801F04DFD6FF00D0003B030BD0C4889
S113028001F046FD0B4801F043FD01F045FE002856
S113029005DA094801F03CFD6FF00700EDE7074877
S11302A001F036FD0020E8E74D9000006E9000005C
S11302B096900000C3900000E790000008910000B1
S11302C070B50E46044698B11422002107F096FB3F
S11302D0084B6360084B094DA360094BE360094B6D
S11302E0236108220021284607F088FB25606E6000
S11302F0002070BD5502000011020000041400200B
S1130300ED010000C901000010B5044658B10368AE
S113031023B106480822002107F070FB14220021B3
S1130320204607F06BFB002010BD00BF0414002022
S113033001F066BC10B5134C2368013321D101F0E0
S1130340F1F9206001301CD10F4800F041F8002879
S113035017DB00F07BF8002813DB0C490C484FF442
S1130360FA630A2200F010FB002805DCBDE8104007
S11303700649084801F0CCBC044800F0F1FA002812
S1130380F4D010BD00100020389100000C1400209F
S1130390439100005191000038B50D460A4907F019
S11303A0D3FB044610B94FF0FF3038BD064807F0C0
S11303B0B0FB2044054A83789A5C5207F3D5303B5E
S11303C02B600020F1E700BF5D100020AFAE0000FD
S11303D010B5044600F0BCFA01F040FD002000F026
S11303E02DFB20464FF4E131BDE8104001F0B4BCD0
S11303F001F03EBD08B500F0ABFA0F4801F088FCEF
S11304000E490F484FF4FA630A2200F0BDFA00289F
S113041006DC0C48094901F07BFC4FF0FF3008BDB5
S1130420064800F09DFA0028F3D0074801F070FC5C
S113043000F00CFB0020F2E7889100006D1500200D
S1130440041000209E910000D091000070B50F4E62
S11304500F4D1424304601F05BFCFFF7CBFF00285E
S11304600DDA284601F054FC0A2001F0B1FD013CEC
S1130470F0D1084801F04CFC4FF0FF3005E006488D
S113048001F046FC00F0E2FA002070BDEA910000A1
S113049010920000509200003092000010B5044603
S11304A000F056FA00F0D2FA104801F031FC10497D
S11304B010484FF4FA63322200F066FA00280DDD8A
S11304C00B4800F04DFA48B109490B4801F020FCF3
S11304D021460748BDE81040FFF75EBF04490748BE
S11304E001F016FC4FF0FF3010BD00BF87920000F2
S11304F06D15002028100020AF9200009E9100008E
S113050037B500F0A3FA124D0A24284601F000FC86
S113051001A8FFF7C3FF002805DA0E4801F0F8FB35
S11305204FF0FF3008E0019B23F00402012A05D1BB
S1130530094801F0EDFB002003B030BD0BB90748BA
S1130540ECE7052001F044FD013CDED1E8E700BF03
S1130550DB92000003930000219300003D93000010
S113056070B50D461646044600F0F2F900F06EFA36
S1130570114801F0CDFB114B114912484FF40062B0
S113058000F002FA00280FDD0D4800F0E9F958B137
S11305900B490D4801F0BCFB33462A462146084866
S11305A0BDE8704000F0A2BE0549084801F0B0FB68
S11305B04FF0FF3070BD00BF6B930000E0220200DB
S11305C06D1500201C100020939300009E910000E4
S11305D038B50D46044600F0BBF900F037FA11486F
S11305E001F096FB104911484FF4FA63322200F0EF
S11305F0CBF900280EDD0C4800F0B2F950B10A49DD
S11306000B4801F085FB2A4621460748BDE83840DF
S113061000F0AABE0449074801F07AFB4FF0FF300E
S113062038BD00BFC39300006D15002009100020E1
S1130630DD9300009E91000038B50D46044600F09D
S113064087F900F003FA114801F062FB10491148E0
S11306504FF4FA63322200F097F900280EDD0C48BB
S113066000F07EF950B10A490B4801F051FB2A46CB
S113067021460748BDE8384000F098BE04490748C1
S113068001F046FB4FF0FF3038BD00BFFB93000084
S11306906D15002013100020149400009E9100009A
S11306A013B52822044601911A48002107F0A6F93F
S11306B000F04EF900F0CAF91748214601F028FB72
S11306C034F00203019B16D114491248224607F064
S11306D0E9F900280BDB124B12490E48322200F0D4
S11306E053F900280FDC0F490F4801F011FB4FF0BC
S11306F0FF3002B010BD012CF9D10C490548224647
S113070007F0D0F9E5E7074800F02AF90028EAD015
S11307100020EEE7DE140020319400003C1000209D
S1130720E02202006D1500209E9100004910002077
S113073010B5044600F00CF900F088F9104801F0F7
S1130740E7FA104910484FF4FA63322200F01CF91A
S113075000280DDD0B4800F003F948B109490B48A6
S113076001F0D6FA21460748BDE8104000F040BE2B
S11307700449074801F0CCFA4FF0FF3010BD00BF28
S11307805C9400006D150020331000207F9400005D
S11307909E91000010B5642200210446154807F01C
S11307A02DF900F0D5F800F051F9124800F008FADC
S11307B0002802DA4FF0FF3010BD642200210D48FA
S11307C007F01CF90B4800F033FA0028F2DB64222E
S11307D00021084807F012F90648214600F060FAA3
S11307E00028E7DB044B054801221A7001F090FA57
S11307F00020E1E77A140020071500209B940000F4
S113080070B504460D46164601F0E6F9194B1B78FF
S11308102BB9194801F07CFA4FF0FF3070BD642207
S11308200021164807F0EAF800F092F800F00EF9FB
S1130830124800F07DFA0028EEDB642200210F4804
S113084007F0DCF80D4800F0ABFA0028E4DB642282
S113085000210A4807F0D2F8084833462A462146C0
S113086000F0D6FA0028D7DB054801F051FA002041
S1130870D4E700BF07150020D4940000161400200C
S11308801D95000038B50B4D00F062F800F0DEF85D
S11308902B780BB100F0E8FB00F036FB002805DBF9
S11308A000242C7001F0DAFA204638BD4FF0FF30F6
S11308B0FBE700BF0615002008B500F049F800F07A
S11308C0C5F8134801F024FA1249134800F0CCF893
S11308D0002805DA114801F01BFA4FF0FF3008BD7B
S11308E000F0E6FA002805DA0D4801F011FAFFF7E6
S11308F0C9FFF2E700F034FB0028F5DB00F088FBC9
S11309000028F1DB074B01221A700020E7E700BF43
S11309105395000087950000651000208D95000018
S1130920B095000006150020034B1B780BB101F0B5
S113093083BA4FF0FF30704706150020034B1B7835
S11309400BB101F045BA4FF0FF3070470615002097
S113095002484FF40062002107F050B86D150020E2
S113096008B5034907F0F0F8003818BF012008BDA6
S11309709610002008B5034907F0E6F8003818BFC0
S1130980012008BD8B100020F8B505460E4614461C
S11309901F4601F063FA284607F0BBF801462846D3
S11309A001F04AFA00280BDB22460021074807F031
S11309B025F83A4621463046BDE8F84001F008BA29
S11309C0034801F0A5F94FF0FF30F8BD6D15002084
S11309D0D595000038B5FFF7BBFF1248124D01F062
S11309E097F9124912484FF4FA630A22FFF7CCFF31
S11309F0002804DC0F4801F08BF900232B700B480E
S1130A00FFF7AEFF044618B90A4801F081F92C70CB
S1130A10094801F07DF901232B70BDE83840FFF748
S1130A2097BF00BFF79500006C1500206D150020DE
S1130A30841000201396000036960000024BB0FA92
S1130A4080F04009187070476D1D0020044B1B781E
S1130A5023B1044B1B780BB9FFF7BCBF704700BF31
S1130A606D1D00206C15002013B56422044601910D
S1130A701548002106F0C2FFFFF76AFF019B1349E6
S1130A801148224607F00EF8002806DA104801F053
S1130A903FF94FF0FF3002B010BD0E490A484FF441
S1130AA0FA634FF40062FFF76FFF002804DC094982
S1130AB0094801F02DF9ECE70648FFF751FF00283B
S1130AC0F5D00020E7E700BF0815002074100020CF
S1130AD0519600006D1500209E910000F8B5054662
S1130AE00E4614461F4601F0B9F94FF4FA6001F0BE
S1130AF06FFA284607F00DF80146284601F09CF9E4
S1130B0000280FDB4FF4FA6001F062FA224600215C
S1130B10074806F073FF3A4621463046BDE8F840E0
S1130B2001F056B9034806F071FF4FF0FF30F8BDED
S1130B306D150020D59500002DE9F0410F461849A8
S1130B4007F002F8054618B94FF0FF30BDE8F08110
S1130B50134806F0DEFF05EB00081249064640463E
S1130B6006F0F2FF04460028EED0A0EB0808B8F126
S1130B70010FE9D1AB5D0C4D5A5D5107E4D5312B22
S1130B80E2D1084806F0C5FF235C5A5D5207DBD565
S1130B90A3F13202072AD7D8303B3B700020D5E7B7
S1130BA06A11002068110020AFAE000008B50349A7
S1130BB006F0CAFF003818BF012008BD1E1100202E
S1130BC010B50446FFF7C4FE124801F0A1F8124B19
S1130BD0124A1349204606F065FF002805DA114839
S1130BE001F096F84FF0FF3010BD0F494FF4FA634F
S1130BF032222046FFF7C8FE002804DC0A490B48CD
S1130C0001F086F8EEE70848FFF7AAFE0028F5D0C1
S1130C100020E9E78396000001110020091100205B
S1130C20CC1000209E9600006D1500209E910000BF
S1130C3010B50446FFF78CFE124801F069F8124B18
S1130C40124A1349204606F02DFF002805DA114800
S1130C5001F05EF84FF0FF3010BD0F494FF4FA6316
S1130C6032222046FFF790FE002804DC0A490B4894
S1130C7001F04EF8EEE70848FFF772FE0028F5D0C1
S1130C800020E9E7D7960000F0100020FD100020B6
S1130C90CC1000209E9600006D1500209E9100004F
S1130CA038B50A220D4604460021194806F0A6FE6E
S1130CB0FFF74EFE174806F0A9FE174914482A46C6
S1130CC006F0F0FE002805DA144801F021F84FF090
S1130CD0FF3038BD0E4B124A1249204606F0E2FEA0
S1130CE00028F1DB10494FF4FA6332222046FFF763
S1130CF04BFE002804DC0C490C4801F009F8E6E737
S1130D000948FFF72DFE0028F5D00020E1E700BFD9
S1130D10AA1D0020EE960000191100209E960000E6
S1130D2011110020CC1000206D1500209E910000B0
S1130D3010B50446FFF70CFE124800F0E9FF124B11
S1130D40124A1349204606F0ADFE002805DA114880
S1130D5000F0DEFF4FF0FF3010BD0F494FF4FA638F
S1130D6032222046FFF710FE002804DC0A490B4813
S1130D7000F0CEFFEEE70848FFF7F2FD0028F5D0BB
S1130D800020E9E7129700005711002060110020AD
S1130D90DE1000202D9700006D1500209E910000AC
S1130DA010B50446FFF7D4FD124800F0B1FF124B12
S1130DB0124A1349204606F075FE002805DA114848
S1130DC000F0A6FF4FF0FF3010BD0F494FF4FA6357
S1130DD032222046FFF7D8FD002804DC0A490B48DC
S1130DE000F096FFEEE70848FFF7BAFD0028F5D0BB
S1130DF00020E9E7639700004D1100205111002005
S1130E00DE1000202D9700006D1500209E9100003B
S1130E10F7B50D46164600213C2204461B481F46E2
S1130E2006F0ECFDFFF794FD194800F071FF194935
S1130E301648009733462A4606F034FE002806DAA0
S1130E40154800F065FF4FF0FF3003B0F0BD0F4BC5
S1130E50124A1349204606F025FE002801DA1148FB
S1130E60EFE711494FF4FA6332222046FFF78CFD75
S1130E70002804DC0C490D4800F04AFFE3E70A4867
S1130E80FFF76EFD0028F5D00020DEE76E1D002080
S1130E907C9700002E1100202D97000026110020C1
S1130EA0DE1000209E9600006D1500209E9100002B
S1130EB008B5FFF74DFD0F4800F02AFF0E490F4813
S1130EC04FF4FA633222FFF75FFD002806DC0C487A
S1130ED0094900F01DFF4FF0FF3008BD0648FFF739
S1130EE03FFD0028F3D00748034900F011FF00201C
S1130EF0F3E700BF979700006D150020B4100020A1
S1130F009E910000BE97000008B5FFF721FD0F4831
S1130F1000F0FEFE0E490F484FF4FA633222FFF749
S1130F2033FD002806DC0C48094900F0F1FE4FF0BF
S1130F30FF3008BD0648FFF713FD0028F3D007482B
S1130F40034900F0E5FE0020F3E700BFF09700003E
S1130F506D150020A41000209E9100001798000039
S1130F602DE9F341224C234FDFF8A0800025FFF741
S1130F70EFFC4FF4FA63322221463846FFF704FDB2
S1130F8021460646404600F0C3FE002E07DC1A4800
S1130F90214600F0BDFE022001F01AF81FE02046B1
S1130FA0FFF7DEFC0028F2D00DF107012046FFF721
S1130FB0C3FD002803DA114800F0AAFEEBE79DF810
S1130FC00710042906D10E4800F0A2FE002002B04A
S1130FD0BDE8F0810B4800F09BFE132DDBD10135F9
S1130FE0142DC4D1084800F093FE4FF0FF30EEE713
S1130FF06D150020991000209E9100007298000049
S11310009D980000CA9800000899000049980000C3
S113101008B5FFF79DFC0F4800F07AFE0E490F4813
S11310204FF4FA633222FFF7AFFC002806DC0A49CA
S11310300B4806F0EBFC4FF0FF3008BD0648FFF705
S1131040B5FD0028F3D00748034900F061FE0020F5
S1131050F3E700BF419900006D150020C010002087
S113106067990000BE97000010B5FFF771FC1548A2
S113107000F04EFE144915484FF4FA533222FFF79C
S11310802DFD002806DC1049114800F041FE4FF008
S1131090FF340BE00C48FFF763FC044658B90A48D8
S11310A0FFF768FC20B10B4800F032FE204610BD6B
S11310B005490948E9E70449084800F029FE0024E5
S11310C0F4E700BF9E9900006D150020B0100020C9
S11310D09E910000C4990000EC9900003D9A000024
S11310E02DE9F04188460D490746164606F02CFDC9
S11310F0054618B94FF0FF30BDE8F081084906F005
S113110023FD04460028F5D0421B013A691C4046E1
S1131110E41B06F006FD34600020EDE77E1100209C
S11311207A11002038B50D460A49044606F00CFD34
S113113068B1031B012B0BDC2378074A9A5C12F07D
S1131140040205D0303BDBB2032B01D82B7038BD31
S11311500020FCE77C110020AFAE000070B50E4605
S11311600B49054606F0F0FC421B012A04460DDD3E
S11311702B78222B03D010F8013C222B06D1023A03
S1131180691C304606F0CDFC204670BD0024FBE708
S11311907C11002070B50A2205460E461548002130
S11311A006F02CFC1449284606F0CEFC044610B97F
S11311B00024204670BD421BD31F012BF8D82B7886
S11311C0222B03D010F8013C222BF1D1691C023AE6
S11311D0084806F0A6FC074806F09BFC01460548B3
S11311E000F0E4FE0028E3D0024806F0B9FB3060CA
S11311F0DFE700BFB81D00207C11002070B5064653
S113120008460C46154606F084FC01380444A64200
S113121010D13378094A9A5C52070BD5302B05D18B
S11312200749284606F06DFC002070BD322B01D121
S11312300449F6E74FF0FF30F7E700BFAFAE000018
S1131240801100208311002037B505463C22234835
S11312500C46002106F0D2FB3C220021204806F077
S1131260CDFB00211F48042206F0C8FB0DF1030149
S11312702846FFF757FF18B94FF0FF3003B030BDD1
S113128016490130FFF76AFF0028F5D014490130F0
S1131290FFF764FF0028EFD001A90130FFF77AFFC0
S11312A00028E9D00F4A29460130FFF7A7FF00289C
S11312B0E2DB0A49204606F024FC019B094923622B
S11312C004F1240006F01DFC9DF80330064804498F
S11312D084F8283000F01CFD0020CFE7FE1D00201C
S11312E03A1E0020B41D00206F9A00002DE9F34738
S11312F000240F461C6019490194064690461D4679
S113130006F022FC38B3DFF858A0DFF858903C22EE
S11313100021504606F072FB01AA51463046FFF701
S1131320DFFE002813DB019B514648461E4400F0B3
S1131330EFFC39465046FFF787FF002804DB2C6892
S113134001342C602C3701242B684345DFDB601EFD
S113135002B0BDE8F0874FF0FF30F9E772110020CA
S1131360C21D0020829A0000F8B50F460D491646AA
S113137006F0EAFB044690B10A4806F0CAFB0A49A3
S113138004440025B54201DB0020F8BD14F8012B0C
S1131390535C13F00400F8D07A550135F2E74FF0AE
S11313A0FF30F2E78D110020AFAE0000F8B50F4614
S11313B00D49164606F0C8FB044690B10A4806F0EB
S11313C0A8FB0A4904440025B54201DB0020F8BD0E
S11313D014F8012B535C13F00400F8D07A5501354E
S11313E0F2E74FF0FF30F2E795110020AFAE0000B6
S11313F070B5184E044604220D463046002106F00E
S1131400FDFA2046144906F09FFB044610B94FF03C
S1131410FF3070BD104806F07CFB104A2318205C96
S1131420815C490713D55B789A5C52070BD5307001
S11314303046737006F094FA6328E8D0400071389F
S113144028600020E5E72C2B01D13038F4E7002395
S11314502B60DCE7761E002086110020AFAE000072
S113146008B505F0B3F8FEF763FF05F0BCF8FEF726
S113147061FF04F0BDFAF8E770B50C46ADF6080D4F
S11314801E469AB18D898968B5F5006F28BF4FF45F
S113149000652A4601A806F0A3FA01AA00235355C1
S11314A010482369627901A900F032FCA5696169D9
S11314B0B5F5006F28BF4FF400652A4601A806F071
S11314C08FFA01AAE16908480023535513464A19C3
S11314D000F01EFC16B1054800F01AFC00200DF6C1
S11314E0080D70BDA09A0000C89A0000DF9A0000A1
S11314F0F7B5044600F58E7634220021304606F016
S11315007DFA224A94F8523184F82131D4F86431B6
S1131510C4F8243113884FF6FF709BB283424FF016
S1131520000108BF11801388D4F86801A4F82211BF
S113153001339BB2A4F81E31C4F83001138006F0C5
S1131540E8FA80B2C4F82C0104F1080731463846A1
S113155005F079FB10F1670F0546F7D0D4F8241194
S1131560019105F00BFC019902462B46084800F056
S1131570CFFB3DB1074800F0CBFB4FF0FF352846C9
S113158003B0F0BD044800F0C3FBF8E7D426002004
S1131590F39A0000149B0000449B000038B500F14E
S11315A0080500F5A871284605F0B6FB044605F0C9
S11315B0E5FB224601460A4800F0AAFB24B109488B
S11315C000F0A6FB204638BD284605F0D1FB0446B2
S11315D005F0D4FB22460146034800F099FBF1E7ED
S11315E0799B0000939B0000C19B000010B504464A
S11315F08030FEF789FE20B1BDE81040044800F0B9
S113160087BB04F10800BDE8104005F01DBA00BF17
S1131610E29B000038B504460B480D46FEF7D8FEA1
S113162018B1FEF7E5FE002038BDFEF70FFF0028D5
S1131630F7D129462046FEF7FFFF0028F1D1034BDE
S113164001201860F0E700BF38910000901E0020D0
S11316502DE9F04F2C4B1B6885B0804689460BB9A9
S113166000203EE002A8FEF719FF0028F8DB274817
S113167003AA1E21FEF774FF04460028F0D1014698
S11316804FF400622248DFF884A0224EDFF890B0C5
S113169006F0B4F92546039A95421BDA4FF480729A
S11316A00021304606F0AAF90AF124020192DAF880
S11316B0202000924FF48071174A5346304606F0BA
S11316C0BDF9304606F025FA40F2FE720119914246
S11316D0074609DD0E4B114A4946404606F0AEF96D
S11316E0012005B0BDE8F08F25B10948594606F040
S11316F0F9F901340648314606F0F4F93C44013561
S11317000AF12C0AC7E700BF901E0020D83700203A
S1131710D62E0020D636002095120020D9120020A3
S1131720D71200202DE9F0479B48ECB000F0F0FA06
S113173000219A48142206F061F998481321FFF712
S113174069FF40B9964800F0E3FA4FF0FF352846A8
S11317506CB0BDE8F0874FF40061924806F004F9DC
S1131760904840F2FF71FFF773FF08B98E48EAE72B
S113177006AC4FF4CC720021204606F03FF98B4BA7
S1131780C4F85831002384F894313C23A4F89031F0
S1131790874BC4F8703142F21073C4F88C314FF4A3
S11317A00061844B844F8548C4F854314FF00109DB
S11317B084F85291C4F8647106F0D6F8774A8049E7
S11317C07E4806F06FF9002801DA7E48BBE7D4F8BA
S11317D0802194F852117C4800F09AFA214626A8F8
S11317E0FEF76EFD054605F0C9FA2A46014677481C
S11317F000F08EFA1DB12046FFF7F8FEA5E7744B02
S1131800744D18464FF4006106F0AEF84FF40061D1
S1131810284606F0A9F86E4BD4F88C214FF40066E4
S1131820C4E95D3526A9CDE90156039200966A4ABA
S113183008A805F0DFF8054605F0A0FA2A46014697
S1131840664800F065FA002DD5D1E4670195D4F817
S113185080310093B4F89221D4F8581141F28833BE
S113186008A805F083FA054605F088FA2A460146D9
S11318705B4800F04DFA002DBDD1202229462BA84B
S113188006F0BCF8DFF88481B4F89031A4F89630FF
S113189094F8943184F898303146D4F87031C4F80F
S11318A09C30404606F060F84E4A4F49404606F0E8
S11318B0F9F8002889DB4D4E4021304606F054F8F3
S11318C03946304606F01DF94949304606F00AF912
S11318D03249304606F006F94549304606F002F929
S11318E00DF1CC0A4349304606F0FCF8342229466F
S11318F0504606F083F894F8523184F8B9304046E3
S113190084F8BA50C4F88891C4F8A4A084F8A190CB
S1131910C4F8BC60C4F8C88006F0FBF8D4F85C31A5
S1131920C4F8A83080B2D4F86031C4F8C4002BA93C
S113193008A8C4F8AC3005F088F8054608A805F0F6
S113194019FA0590284605F019FA059902462B461E
S1131950294800F0DDF935B1284800F0D9F92046CE
S1131960FFF71CFE47E794F8B120DFF8A48094F851
S1131970B210234802F0010200F0CAF940214046A7
S113198005F0F2FF054A1F49404606F08BF800288F
S113199040DA1D48D7E600BF0C9C00007A1E0020E8
S11319A0259C0000004500203F9C0000B41100204D
S11319B0981100206C9C000053120020D6260020B1
S11319C0CD110020779C0000999C0000BA9C000077
S11319D0804D0020003D002079140000D29C0000BE
S11319E0E69C0000049D00006C1200209426002058
S11319F00A9D00008A1200200C9D00002F9D00000B
S1131A00539D0000F5120020899D0000941E0020C3
S1131A10404D002029461C2240A8C4F8648105F0EA
S1131A20EDFF5C4AD4F86431C4F8143194F85231AF
S1131A3084F8183113884FF6FF719BB28B4204BFB0
S1131A4000231380138801339BB21380A4F8EA3077
S1131A50012340A9C4F8EC3008A84BABC4F8F0301B
S1131A6005F0F4F8054605F089F92A4601464A4886
S1131A7000F04EF9002D7FF472AFDFF85481D4F8F2
S1131A80EC309D4269DBC4F864712046434FC4F8CE
S1131A906871FFF72DFD0028FFF661AF404D40212E
S1131AA0284605F061FF3F49284606F02AF83E49DA
S1131AB0284606F017F83D49284606F013F83C4B33
S1131AC02046C4E95953FFF713FD0028FFF647AF3A
S1131AD04FF40061384605F047FF364A3649384628
S1131AE005F0E0FF0028FFF670AE3448DFF8E4802C
S1131AF000F00EF9D4F88C1108A805F02EF9C31DD6
S1131B00054637D1404600F003F90DF2691108A8E3
S1131B1005F0D8F805460028ECD005F02FF9014669
S1131B2027482A4600F0F4F8002DFFF618AF2046A7
S1131B30C4E95967FFF7DCFCC4F87C012046FFF7D1
S1131B402DFD054610B11F4800F0E2F82046FFF7CE
S1131B504DFD1D4800F0DCF8F9E5D4F8F01001EB78
S1131B60C5024046537951F83510127900F0D0F887
S1131B70013584E728B105F001F92A4601461348E6
S1131B80D0E705F0FBF82A460146104800F0C0F8FB
S1131B90CDE700BFD4260020A99D0000D626002052
S1131BA0004D0020531200200A9D00007A1E0020E0
S1131BB000450020E69D00006C120020EB9D000013
S1131BC02A9E00006B9E0000949E00004F9E000021
S1131BD0C29D0000089E000008B5064802F0F2FF0E
S1131BE0054A00231360054A1360BDE8084002F06B
S1131BF09FBF00BF84590020B8590020B459002069
S1131C0010B500F0F1FA18B11948272100F098FF37
S1131C10002002F063FF18B115482B2100F090FF5B
S1131C20144803F023F818B111482F2100F088FF5D
S1131C30104C6FF07F4200232046C4E9012302F0D8
S1131C40C1FF20460C4903F014F994F8262094F8B7
S1131C5025301344094A136094F8272094F824305B
S1131C601344074ABDE810401360FFF7B5BF00BF37
S1131C70AB9E0000845900208CA30000B0590020C2
S1131C80805900202DE9F3411C4C074688461C4D21
S1131C900026384605F03DFFB04204D802B0BDE846
S1131CA0F04102F045BFB95D23680A2907D1154AFE
S1131CB012681A44002322602B600136E9E70122EE
S1131CC0009211482A6803F044F8104A2B681268FD
S1131CD01344782B2B6006DD0A4A236812681344E8
S1131CE0236000232B602368782BE6DDB8F1000F16
S1131CF0E3D0FFF771FF4FF00008C8E7B8590020A0
S1131D00B4590020B0590020845900208059002083
S1131D100FB413B504AB4FF4806153F8044B0A4875
S1131D20019305F021FE019A0748214605F0C4FFFE
S1131D30002803DB04480121FFF7A4FF02B0BDE83B
S1131D40104004B0704700BF80550020014B0122B1
S1131D501A607047005E002070B5164C0E460FCC1A
S1131D6092B00BAD0FC594E80700134B0D9685E8B0
S1131D700700124A1249CDE906230023CDE90813CE
S1131D800C3440F201130A9394E80F0002AD85E885
S1131D900F000C4B0C480093006806AB0BAA2946B5
S1131DA003F0B8FB18B10948F92100F0C9FE00207E
S1131DB012B070BDD89E000000620400000801400B
S1131DC000060007BC5D002018130020BE9E000022
S1131DD02DE9FF41144F04460E46002303A9104683
S1131DE03B6004F05FFA40B90123CDE900030F4AD8
S1131DF0039903460E4804F0BEF9DFF83880264400
S1131E0025463B6833B10A4804F01AF9281B04B08C
S1131E10BDE8F08103AB721B2946D8F8000003F03B
S1131E20E1F8039B1D44ECE7005E00204D1D00001B
S1131E30045E00201C13002010B5074B0C460A4614
S1131E400146186803F0BAF8B4F5806F204628BF3D
S1131E504FF4806010BD00BF1C130020034B1B68AF
S1131E601B680022C3E904229A61704718130020FA
S1131E7008B5FFF7F3FF044B1868C36898470038A8
S1131E8018BF0120404208BD1813002038B505468C
S1131E901A480C46FEF79CFA002802DA4FF0FF308D
S1131EA038BDFEF7D3FA0028F8DB1E2200211448BF
S1131EB005F0A4FD12481E21FEF7BEFB0028EDDB51
S1131EC00F491048FFF724FF1E2200210E4805F099
S1131ED095FD0D481E21FEF77BFB0028DEDB0A4939
S1131EE00A48FFF715FFFEF70BFB0028D6DB084B6B
S1131EF01D60084B00201C60D2E700BF3891000031
S1131F00465E0020049F0000285E0020169F00000B
S1131F10205E0020245E002007B500210846FEF75D
S1131F20BFFB002803DA1648FFF7F2FE13E015485A
S1131F30FFF7EEFE01A8FEF7FBFB00280BDB01997F
S1131F401148FFF7E5FE3C20FEF724FC002805DAE3
S1131F500E4805F05BFD4FF0FF300DE00C4B1968A7
S1131F600C4B28221868FEF74BFC002801DA0A48BB
S1131F70DAE7FEF7A1FCC01703B05DF804FB00BF6D
S1131F80299F0000459F00006D9F0000849F000072
S1131F90245E0020205E0020B89F0000FEF7C4BC31
S1131FA0FEF7CCBCFEF76EBCFEF722BA10B5074CA8
S1131FB000228A4201DB012010BD835C1B5D13F00B
S1131FC0040301D00132F4E71846F5E7AFAE000090
S1131FD080B204F04BB9704708B50421112001F018
S1131FE02FFA0948012100F04BFE0848022101F0B4
S1131FF027FA0748022101F023FA0648022101F0DA
S11320001FFA002008BD00BF30253E0002001E005C
S1132010030020000500240008B5204B01225A6467
S11320201F4BD3F8FC201F4B120E12D14AF6E85175
S1132030C3F89011D3F8981141F00401C3F8981132
S1132040C3F89021D3F8642142F40052C3F8642108
S113205001E0012AF6D0144A136A23F4441343F42A
S113206088131362A2F58052D2F8A43143F4F843E2
S1132070C2F8A43102F06CFF00F0CCF802F006FFC5
S113208002F028FF02F050FFFFF7A6FF02F014FF52
S113209000F0B4F8BDE8084003F0CABB00000E40ED
S11320A00081E00F00300E4000400E4008B500F003
S11320B0D5FC00F083F8BDE8084000F08DB808B501
S11320C000F046F800F08EF8BDE8084003F07EBF4B
S11320D070477047704770477047704730B5154C6C
S11320E00FCC93B00BAD0FC594E80700124B85E8F5
S11320F00700124A1249CDE906230023CDE908134B
S11321000C3440F201130A9394E80F0002AD85E801
S11321100F000C4B00930C4806AB0BAA294603F0A6
S1132120F9F9044618B10948872100F009FD204651
S113213013B030BD18A00000006204000008014084
S113214000060007645E0020C85E0020E99F0000CE
S1132150FFF7C4BF014B186803F092BAC85E0020B1
S1132160FFF7F8BF014B1A6A18681047C85E0020D1
S1132170012070470120704708B5FFF7F9FF08BD3B
S113218038B503F01DFD0446FFF7ECFF042810D01A
S113219002284FF0000508BF0124FFF7EBFF0428D5
S11321A009D0022808BF0124002D18BF00242046AE
S11321B038BD0125F1E70024F9E7000008B504481B
S11321C000F016FABDE80840024800F011BA00BF5A
S11321D044A000005CA00000014800F0EABA00BF7F
S11321E074A000000F20704708B5042201230F21BA
S11321F0032002F00FF9002008BD000008B50448D0
S1132200012100F03DFDBDE80840FFF7E4BE00BF3A
S113221000350A000148012100F032BD00350A00F2
S11322202DE9F0411D4E0446884617460FCE88B06E
S113223001AD0FC596E8070085E807001848256832
S1132240012100F01DFD6068012100F019FD617B92
S1132250207B0023042202F0DDF8617A207A042234
S1132260002302F0D7F8012301A928468DF8123083
S1132270CDF80C80ADF8147002F0F4FA6B6F227C88
S1132280A17B120603F0010342EA012243F00A0390
S11322900020AA676B6708B0BDE8F0818CA000003D
S11322A000350A0070B506680C468D18AC4201D1A1
S11322B0002070BD14F8011B91FAA1F1090E3046FB
S11322C002F036FBF2E7026813699B06FCD57047FF
S11322D010B5046823691B0600D410BD204602F023
S11322E021FBF7E713B5044603F0AEFF247B00237C
S11322F00122CDE900326400034AB0FBF4F1034843
S113230003F0E0FE02B010BD11230000EC5E0020DB
S1132310024B4FF40052C3F8A820704700A00040BD
S113232073B50F4B0F4E4FF48045C3F89C500446D1
S1132330407B04F063F9042302220DF106013046C8
S1132340ADF80630FFF7AEFF3046FFF7BCFFA07BC9
S113235004F054F9044B0020C3F89C5002B070BD43
S113236000A000463413002000A0004438B5044601
S113237001211248124D00F083FCA168114800228B
S1132380FFF74EFF002304220E21032002F042F83F
S1132390002304220D21032002F03CF894E80F00EE
S11323A085E80F00084B012220461A70FFF79AFFB8
S11323B02046FFF7B5FF002038BD00BF00350A00F6
S11323C00C5F002034130020085F00202DE9F74F34
S11323D00688DFF8A8B0984603795E43264B144676
S11323E04FF48042C3F89C200134A4B20546407BDC
S11323F00F4604F003F9230243F001031F48ADF82C
S1132400063002220DF106010134FFF74BFF2402CE
S1132410F610A4B24FF0000908F1FF3AC14511D1FA
S11324201648FFF750FFA87B04F0E8F8144B134854
S11324304FF48042C3F89C20FFF74AFF002003B00A
S1132440BDE8F08F394632465846FFF72BFFCA45A0
S113245014BF44F0FF034FF6FF7302220DF106018F
S1132460584604F58074ADF806303744FFF71AFF78
S113247009F10109A4B2D1E700A0004634130020F9
S113248000A00044034B04481B78002B08BF002025
S1132490704700BF085F00200C5F00201FB5054B8C
S11324A00FCB6C4684E80F002046FFF75FFF04B0B3
S11324B010BD00BFA8A00000FEE7000008B500F0B2
S11324C069F8064B0649074A8B4201D3FDF742FEE1
S11324D052F8040B43F8040BF6E700BF0010002089
S11324E0E813002050B0000000487047005A620210
S11324F0104AD2F8943003F00703023B032B13D89D
S1132500DFE803F00C14020E0B4B1B68D2F8000139
S1132510C0F304200130B3FBF0F07047074BF4E73D
S1132520074B1B685B08F1E7054BEEE74FF40043EC
S1132530ECE700BF00400E40541300204C13002071
S11325405013002008B5FFF7D3FF054BD3F808312B
S1132550C3F308230133B0FBF3F0024B186008BD4A
S113256000400E4048130020014B1868704700BF1C
S11325704C130020054B1860054BD3F8943003F03E
S11325800703022B01D1FFF7DDBF70474C13002076
S113259000400E40044B054A9A60D3F8882042F468
S11325A07002C3F88820704700ED00E000000000CE
S11325B04FF4004070474FF47A707047014B18682D
S11325C0704700BF541300200023036070470000CD
S11325D005490A681318054883428CBF4FF0FF323F
S11325E00B601046704700BF581300200000042001
S11325F0436803B1184722207047704738B50D4629
S1132600044620B3012825D0022826D0032827D049
S113261004280ED0052826D0831F012B09D90828A9
S113262024D0092824D00A2803D10723EB40DB0750
S113263004D4114840F2CD3100F082FA30200F4921
S11326404443214405EBC105AD00286838BD40F280
S1132650FF33EBE74FF6C073E8E740F6FF73E5E7B7
S11326604FF47F43E2E74FF6FF73DFE70F23DDE725
S11326704FF44043DAE700BFB8A000001CA01002EA
S113268038B50D682B78022B0C460CD06979287963
S1132690FFF7B4FFB0FA80F0400928702046BDE887
S11326A03840FFF7AABF38BD37B504680121054695
S11326B0164800F0E5FA002361792079012201F03F
S11326C0A9FE61792079FFF799FFB0FA80F35B09DD
S11326D02370A379022B15D100F0C0F92A460C49C6
S11326E0607900F0E5F9FF28054603D109484F2138
S11326F000F026FA0123617920792A46CDE90033D6
S113270001F0F8FD002003B030BD00BF00350A0021
S11327108126000016A1000003681878704710B5E0
S113272004682378022B15D061792079FFF766FFBE
S1132730A279012A15D10038638818BF012040EA24
S1132740430363F03F039BB24FF6E0718B4202D127
S11327502270638010BD4FF6DF729342F9D10022DC
S1132760F6E7002AF6D1B0FA80F040092070F1E7CC
S113277003681A78022A03D100225A80FFF794BF13
S1132780704713B504682378022B10D0A379022B69
S11327900BD16079002100F079F962792079002366
S11327A0CDE90033114601F0A5FD0223237002B0E8
S11327B010BDD0E90003184738B50D46044618B3D8
S11327C0012824D0022825D0032826D004280ED09E
S11327D0052825D0831F012B09D9082823D00928CF
S11327E023D00A2803D10723EB40DB0704D4104885
S11327F04FF47F7100F0A4F930200E4B01214443C3
S113280001FA05F51D5138BD40F2FF33ECE74FF6F0
S1132810C073E9E740F6FF73E6E74FF47F43E3E76D
S11328204FF6FF73E0E70F23DEE74FF44043DBE7A7
S1132830B8A000000CA0004438B50D46044618B3F7
S1132840012824D0022825D0032826D004280ED01D
S1132850052825D0831F012B09D9082823D009284E
S113286023D00A2803D10723EB40DB0704D4104804
S113287040F22B4100F064F930200E4B0121444317
S113288001FA05F51D5138BD40F2FF33ECE74FF670
S1132890C073E9E740F6FF73E6E74FF47F43E3E7ED
S11328A04FF6FF73E0E70F23DEE74FF44043DBE727
S11328B0B8A000000CA0004610B501210446094848
S11328C000F0DEF90848012100F0DAF9A378207855
S11328D06178B3FA83F35B09042201F09BFD0020C5
S11328E010BD00BF4041050000350A0003460078D2
S11328F059789B780BB9FFF75FBFFFF79DBF03467D
S1132900007859789B780BB9FFF796BFFFF754BF4F
S113291038B5047845782CB3012C26D0022C27D066
S1132920032C28D0042C0ED0052C27D0A31F012B58
S113293009D9082C25D0092C25D00A2C03D107232A
S1132940EB40DB0704D4114840F2464100F0F8F8AC
S11329503022544304F18044012304F52044AB4065
S1132960A36138BD40F2FF33EAE74FF6C073E7E7EF
S113297040F6FF73E4E74FF47F43E1E74FF6FF735C
S1132980DEE70F23DCE74FF44043D9E7B8A00000AB
S113299070B504784578064654B3012C2BD0022C2C
S11329A02CD0032C2DD0042C0ED0052C2CD0A31FFE
S11329B0012B09D9082C2AD0092C2AD00A2C03D19E
S11329C00723EB40DB0704D4134840F2164100F020
S11329D0B7F830235C43114B234405EBC305AD002A
S11329E0B3782868C0B213B9B0FA80F0400970BD5A
S11329F040F2FF33E5E74FF6C073E2E740F6FF73BA
S1132A00DFE74FF47F43DCE74FF6FF73D9E70F238B
S1132A10D7E74FF44043D4E7B8A000000CA010025D
S1132A2070B50D4E0446012504B970BD94FAA4F3A3
S1132A30B3FA83F306EB031105FA03F224EA020462
S1132A404A68002AF0D0D8B20B7B13B1896890474A
S1132A50EAE79047E8E700BF1C5F002008B51220B2
S1132A6000F090FE28B1084B4FF48022C3F8802177
S1132A701A600A2000F086FE28B1034B4FF48062EE
S1132A80C3F880211A6008BD00E100E038B50546AE
S1132A900C4600F06EFE054B03EB051300225C6050
S1132AA01A73BDE8384000F06ABE00BF1C5F002006
S1132AB0F8B505460F46164600F05BFE104B05F0D0
S1132AC0FC02D3F828140023EC1804F00304144384
S1132AD021FA04FC1CF0010F07D00133042BF3D1BD
S1132AE0FF2400F04CFE2046F8BDFF2CF9D0054B26
S1132AF003EB04130122C3E901761A73F1E700BF63
S1132B0000A000401C5F0020054BD3F82804D3F834
S1132B101C24104000F05530C3F82404FFF780BF94
S1132B2000A00040054BD3F82804D3F81C2410401F
S1132B3000F0AA30C3F82404FFF772BF00A00040DD
S1132B40FEE700000C4B984210D90C4B984210D968
S1132B50022201230A490B640A49D1F8003123F007
S1132B60807343EA0263C1F80031704700221346C0
S1132B70F0E70122FBE700BF0048E8010090D00322
S1132B800000C84300400E4038B5114B5B68114B40
S1132B9000221C46C9B21D798D4202D11D688542AE
S1132BA012D20132052A03F10803F4D10A4841F292
S1132BB03851FFF7C5FF032205494B6823F04073E2
S1132BC043EA02634B6038BD04EBC2025279F3E777
S1132BD000000E4014A2000057A100001F2810B5E9
S1132BE0044604D9034840F24311FFF7A9FF01202A
S1132BF0A04010BD86A1000038B5074C41F67133E2
S1132C00256C2364FFF770FC0021FFF7BDFF0DB1B5
S1132C100023236438BD00BF00000E40044BDB6B6F
S1132C205B0604D4034AD2F8C830002BFBD17047AA
S1132C3000300E400000C64308B5FFF7EFFF024B1B
S1132C405868C0F3014008BD00300E40044BD3F86F
S1132C504421D20703D4D3F840211042FBD170475A
S1132C6000400E4038B5054C41F67133256C2364A1
S1132C70FFF78AFF0DB10023236438BD00000E4026
S1132C8038B5C0F30323013B092B24D8DFE803F054
S1132C902A2D2323051619231C20154C0023C0F3C9
S1132CA0043513B11846FFF7D1FF04F1424404F58B
S1132CB0801405EBC404A400216038BD0D4C01232D
S1132CC0EDE70D4C1023EAE70C4C4FF48033E6E7B4
S1132CD00B4C0023E3E7BDE838400A4841F6D52110
S1132CE0FFF72EBF084C0023D9E7084C0023D6E792
S1132CF0B0400E40E0400E40E8400E40F0400E4030
S1132D0050410E4057A1000000400E40C0400E400C
S1132D1008B5C0F30313013B092B60D8DFE803F0C7
S1132D20050B0F195F5F1F233C532E4BD3F8000193
S1132D30C0F3042008BD2B4BD3F81401F8E7294B4A
S1132D40D3F80001C0F300600130FFF747FF0138FA
S1132D50F0E7244BD3F80C01C0F30820EAE7214B39
S1132D60D3F80801F8E7204B984209D01F4B98424A
S1132D700CD041F679411E48FFF7E2FE0020D9E766
S1132D80184BD3F8200100F00F00DEE7154BD3F801
S1132D902001C0F30110D8E7164B984208D003F580
S1132DA0B01303F58053984206D041F69D41E2E703
S1132DB00C4BD3F82801ECE70A4BD3F82801C0F3F5
S1132DC001200430C1E70C4B984205D1054BD3F8E0
S1132DD0300100F00300ADE741F6AC41CBE741F62A
S1132DE0D141C8E700400E408006160080162E0030
S1132DF057A1000090171A00A009140008B5FFF7A6
S1132E0087FF013008BD000000F00F00013808B54D
S1132E10072844D8DFE800F0040F1943232D433575
S1132E20264BD3F8943003F00703023B052B3DD81F
S1132E30234AD05C08BD214BD3F8803003F007034C
S1132E40013B032B34D81F4AF3E71C4BD3F88430DF
S1132E5003F00703013B032B2AD81B4AE9E7174B6E
S1132E60D3F8883003F00703013B032B20D8174A1B
S1132E70DFE7124B1B6F13F0010F0CBF0720092073
S1132E80D8E70E4BD3F85C3103F03003202B11D07C
S1132E90302B11D0102B14BF01200720CAE70C4897
S1132EA042F22501FFF74CFE0020C3E70520C1E7ED
S1132EB00120BFE70420BDE70820BBE700400E4027
S1132EC0E6A10000ECA10000F0A10000ECA10000CC
S1132ED057A1000038B52C4B984205460AD02B4B1D
S1132EE0984207D02A4B984204D02A4841F23861CC
S1132EF0FFF726FE2846FFF787FF234B9D42044633
S1132F0011D0224B9D4212D0214B9D4213D1224B12
S1132F10D3F8804004F00704042C2DD8DFE804F033
S1132F202A11151D19001C4BD3F88440F2E71A4BE3
S1132F30D3F88840EEE7174841F26761FFF700FED7
S1132F40EAE7BDE83840FFF733BBBDE83840FFF798
S1132F5035BBBDE83840FFF72EBBFFF7C9FA0E4B6F
S1132F600446D3F80001C0F300600130FFF736FED9
S1132F70B4FBF0F4204638BD064841F2B961FFF7CE
S1132F80DFFD0024F6E700BF030020000500240055
S1132F9002001E0057A1000000400E4038B500F4A6
S1132FA07813B3F5B01F05467FD02ED8B3F5402F64
S1132FB069D011D8B3F5802F54D006D843B1B3F5F6
S1132FC0003F5AD041F605411AE0B3F5202FF9D15C
S1132FD0BDE83840FFF78CBAB3F5801F00F0A2803B
S1132FE0B3F5A01F57D0B3F5602FEBD15B48FFF7C3
S1132FF00BFF072800F096800928E9D041F2FA3146
S11330005748FFF79DFD002036E0B3F5381F5AD02E
S113301013D8B3F5001F5FD00AD8B3F5D01F5DD025
S1133020B3F5F01FCED14F48BDE83840FFF752BF8B
S1133030B3F5101FC6D14C48F6E7B3F5481F57D077
S1133040B3F5781F00F08280B3F5401FBAD147482A
S1133050FFF740FF464B0446D3F82801C0F3012094
S113306004302BE0FFF744FA414BD3F80C31C3F39F
S113307008230133B0FBF3F038BDFFF739FA3C4BBA
S1133080D3F80831F3E7FFF733FA394BD3F81431A7
S1133090C3F30423EDE73448FFF71CFF344BD3F8A4
S11330A0303103F00303D840E6E72E48FFF712FF60
S11330B02F4B0446D3F8200100F00F00FFF78EFDDC
S11330C0B4FBF0F0D8E72748FFF704FF284BD3F808
S11330D02031C3F30113E6E72448A5E72348FFF7AB
S11330E0F9FE234B0446D3F82801C0F30110E5E7A9
S11330F02048FFF789FE0138072824D801A353F894
S113310020F000BF073000004731000047310000C5
S11331102B31000047310000473100002531000009
S113312033310000144B1868A6E7BDE83840FFF7B8
S11331301BBAFFF7DDF90E4BD3F80031C3F30423B8
S113314003FB000098E741F2314159E7FFF7D0F95A
S113315004462846FFF752FEB2E700BF06000E0001
S113316057A1000002001E000500240003002000F7
S113317000400E40B80032005C130020014B188060
S1133180704700BF60130020013838B50C4603288F
S113319064D8DFE800F002441A2FB1F5007F04D3AD
S11331A0324842F62501FFF7CBFC314AC4F3080448
S11331B0D2F86838002BFBD12E4A136A23F4FF732C
S11331C023F001032343136238BD7F2904D9274820
S11331D042F63201FFF7B4FC254A04F07F01D2F82D
S11331E06038002BFBD1234B1C6924F07F040C4373
S11331F01C61E9E77F2904D91C4842F64D01FFF719
S11332009FFC1B4A04F07F01D2F86438002BFBD1E9
S1133210184B9C6924F07F040C439C61D4E7154D42
S1133220D5F890305B0704D5104842F65D01FFF7EE
S113323087FC6B6A23F0300343F010036B62C4F322
S1133240C311CB1C2A6B0C490F2B01EA020128BFC6
S11332500F23214341EA03712963B5E7BDE83840F0
S1133260024842F67701FFF76BBC00BF57A100008C
S11332700020C84300400E4000F8FF0F022810B59C
S11332800C4604D0144842F68F01FFF759FC134B47
S11332905B6A13F0300F1BD0202C16D0302C17D0C3
S11332A0B4B10D4842F6AA01FFF74AFC0C4B0B4A95
S11332B0D2F8901033EA0101FAD15B024ABFD2F886
S11332C0A0000120C0F3802010BD4FF40003EEE7FE
S11332D04FF44003EBE700BF57A1000000400E404D
S11332E0FF33E107022808B50CD129B1094B4FF48B
S11332F08060C3F8A80059664AB1BDE808400220BE
S1133300FFF7BCBF044842F6E001FFF719FC0120B7
S113331008BD00BF00400E4057A1000004282DE95D
S1133320F04704460F4691461FD83D4B3D4A13F8DB
S113333000A03D4B13F80080F1B93C4B33F810303A
S11333401366012303FA08F8D2F8903013EA080F41
S1133350FAD1B9F1000F5AD00125324A05FA0AF51B
S1133360D2F890302B42FBD151E0BDE8F047304811
S113337042F27471FFF7E4BB2E4B022833F810605D
S113338047D1536A13F0300F43D12B4BDB6B5A05F3
S113339004D4274842F28371FFF7D2FB214A536ACF
S11333A0DB0705D5536A23F0300343F0100353625F
S11333B0224D1C4BA8441E664FEA8808D8F80030FA
S11333C0002BFBD0B9F1000F21D05544AD002B6880
S11333D0002BFCD0022C1AD1CFB1124F796A11F014
S11333E0010118D0012220212046FFF77BFFD7F8E6
S11333F09C40012200210220FFF790FFC4F30A0140
S11334000220FFF7C1FE3E662B68002BFCD0BDE80E
S1133410F0870027CCE72046FFF730FFE7E700BF3F
S1133420F4A1000000400E40F9A1000008A2000031
S113343057A10000FEA1000000300E408004F210ED
S1133440112838B50C460FD000F00F0001380728BA
S113345000F2EB80DFE810F0240066009A00E90037
S11334607D00B400E900C200042912D1FFF77CF802
S11334700546A8B10021284600F0FAFB023C0A2CBC
S113348045D8DFE804F04A473137444444443D0F0B
S11334904D00052904D1664B1D68664B9D42E9D851
S11334A00025EBE70320052401221146FFF736FF30
S11334B0FFF7A2FB0DB1FFF7B1FB5F4B5C67FFF7B2
S11334C041F80446FFF714F8FFF73CFBFFF7B4FBA1
S11334D001462046FFF7C6FB002D5DD12846012199
S11334E0BDE8384000F0C4BB5448FFF72BFB022072
S11334F00446D9E75148FFF725FB01240320D3E70D
S113350042F2E601BDE838404D48FFF719BB42F2EC
S1133510EB01F7E701200324C6E700200424C3E7F6
S11335200724C5E7062933D14548464D42F22A11FE
S1133530FFF706FB424842F23A11FFF701FBFEF7A0
S1133540D7FFFFF7FFFA404B0122C3F808260323F5
S113355021E006293D4DEDD0013C092C2BD801A3D7
S113356053F824F0BD3500009B350000A935000058
S1133570B7350000B73500003F350000B73500000F
S1133580B7350000B735000095350000304DE3E74E
S11335902C4DE1E704232B6038BD012211460020A5
S11335A0FFF7BCFE0223F6E7012211461046FFF79F
S11335B0B5FE0123EFE742F26511A3E70023EAE732
S11335C0072904D0092906D042F2EF119AE71A4BD1
S11335D000221A67E0E7184B0122FAE74C1E072C79
S11335E01ED8DFE804F0201D1D161D1D0F04032244
S11335F01149D1F85C3123F0300343EA0213C1F8D6
S11336005C31C9E7012211460420FFF787FE01223D
S1133610EEE7012211460220FFF780FE0222E7E7CF
S113362042F24D216EE70022E2E742F2243169E7DB
S113363050130020002D310100400E400148E801E4
S113364057A1000080400E400010C84388400E403F
S113365084400E4010B504461120FFF7D5FB042822
S113366004D1274842F20F61FFF76AFA01220021D0
S11336700220FFF753FE63781BB9A3780BB9E378F4
S113368023B11F4842F24B61FFF75AFA237C012B06
S113369004D11B4842F25261FFF752FA194A217CC5
S11336A0536A23F00103022908BF43F00103536264
S11336B0154B2178C3F8A014637AA18843EAC12387
S11336C0D362136BA07A217A03F07F630343E0880B
S11336D043EAC02343EAC11303310F2928BF0F2152
S11336E043EA01731363A37B617B1B0143EA013348
S11336F0E17B0B43217B43EA0143536310BD00BFCD
S113370057A1000000400E400000C84370B50546B4
S11337101120FFF779FB022804D10F4842F2CD6152
S1133720FFF70EFA0D4E0E4BB26B2C7813401C4370
S11337306B7844EAC324AB7844EA0364EB7844EA44
S11337400324B36BA34205D0002101220846FFF7EE
S1133750E5FDB46370BD00BF57A1000000400E40FA
S113376080E4FFF8EFF3108072B6704700B962B6D8
S11337707047EFF31180602383F31188704780F35F
S11337801188704738B5C5B2322D044604D90848AB
S113379040F21F31FFF7D4F9064B640905F01F0509
S11337A053F82400E840C04300F0010038BD00BFD6
S11337B03CA2000000E100E0034BD86B80F0400025
S11337C0C0F38010704700BF00300E4038B542EAA5
S11337D00323B3F5007F05460C463ED019D8B3F554
S11337E0807F36D00AD883B3012B21D01F4840F6FE
S11337F0EE11FFF7A5F9002213461FE040F2011273
S11338009342F3D11A4BD3F824321A0EC3F307436D
S113381014E0B3F5407F24D040F20132934210D03B
S113382040F201229342E1D1114BD3F8283202E055
S11338300F4BD3F82432C3F30722DBB22B60226090
S113384038BD0B4BD3F82832DFE7094BD3F81C32D1
S1133850F1E7074BD3F81C32D7E7054BD3F82032F6
S1133860E9E7034BD3F82032CFE700BF6CA2000096
S11338700081E00F08B5FFF79FFF20B1024AD2F89C
S1133880C830002BFBD108BD0000C64308B5FFF7C4
S113389093FF80B1FFF7EEFF074B19685A68C1F335
S11338A00121C2F3014291421A688CBF42F0100216
S11338B022F010021A6008BD00300E40064B1B684F
S11338C0DB0608D5054B1B69C3F30443082B02BF71
S11338D0034B044A1A60704700300E4000400E400B
S11338E050130020C0EA210137B5FFF765FF38B156
S11338F0244B1B78C3F1020210239340224A136124
S11339002249234DD1F8804145F60E03C1F8803198
S11339102B6823F0AA03DB05DB0D0B66FFF7AAFF78
S1133920194B1B68D80604F0010416D5D1F84031B0
S1133930DA01FBD4174B1B680B61174B1B78052B63
S11339400BD1164B18680190FFF794FF0E4B0198AA
S11339505968C1F30141FFF785F90F4B197805291F
S113396002D01120FFF76CFD2B68DB075EBF074B0D
S113397002221A661CB1054B0022C3F8802103B051
S113398030BD00BF2D61002000300E4000400E40CD
S11339901C610020286100202661002050130020B3
S11339A01A4B022810B5D3F830320C4612D0032833
S11339B013D0012814BFDBB2C3F307231B0323F482
S11339C07042ECB95AB140F67D111148FFF7B8F8CE
S11339D0002010BDC3F30743F0E71B0EEEE70D49CB
S11339E0CA6E22F470421343CB660120F1E7094901
S11339F0D1F8EC2022F470421343C1F8EC30F4E720
S1133A00002AF4D040F68911DFE700BF0081E00FFF
S1133A106CA2000000300E4010B50B4C0B4BD4F8D8
S1133A2090201A601120FFF7EFF9094B1870FFF787
S1133A3021FF084B084A5B68C3F301431370074B2B
S1133A4022691A6010BD00BF00400E401C610020B6
S1133A502661002000300E402D61002028610020E6
S1133A60094942780B6823F4407343EA0223022A8B
S1133A700B6008D1054B5B6A9B0004D504484FF4E6
S1133A803B71FFF75DB8704700300E4000400E40B8
S1133A906CA20000704770477047000010B50446E0
S1133AA008B1FFF7B9FFFFF7F1FE164A136943F0B7
S1133AB004031361FFF7EEFFFFF7EDFF124B1B68E2
S1133AC0DB0618D5FFF74EFE05F076FAFFF74EFE3B
S1133AD0FFF7E2FF02F028F97CB1FFF705FF0A4A7D
S1133AE0D2F84C3123F00043C2F84C3144B9BDE85C
S1133AF01040FEF727BD30BFEAE7FFF7DFFEEEE731
S1133B0010BD00BF00ED00E000300E4038B50446A3
S1133B1008B1FFF781FFFFF7B9FE1B4B1B4DD3F82C
S1133B20802145F60E01D207C3F8801148BF002258
S1133B304FF42071196648BFC3F88021144A1369F1
S1133B4043F004031361FFF7A5FF2B68DB0615D5CB
S1133B50FFF708FE05F030FAFFF708FE02F0E4F87C
S1133B6074B1FFF7C1FED5F84C3123F00043C5F81A
S1133B704C3144B9BDE83840FEF7E4BC30BFEDE752
S1133B80FFF79CFEEFE738BD00400E4000300E40CA
S1133B9000ED00E0FFF740BFFFF7A6BE0378134A2D
S1133BA0002B437870B514BF04260026002B8378BD
S1133BB0946914BF02250025002B037924F03F04E7
S1133BC043EA0403C47814BF08210021012C08BF70
S1133BD043F0010333432B430B439361136841794F
S1133BE023F4403343EA0143136070BD00300E40B8
S1133BF0F8B504460F46FFF7DFFD78B3FFF73AFE4A
S1133C00174B5B68C3F301439C4227D0154BD3F891
S1133C100061FEF76DFC022C05460FD1124BC6F372
S1133C20042606FB00069E4204D9104840F2147193
S1133C30FEF786FF02212846FFF714F8C4F10202BA
S1133C4010239340064A13610FB1FFF713FE2CB9FA
S1133C5021462846BDE8F840FFF704B8F8BD00BF88
S1133C6000300E4000400E40002D31016CA20000D7
S1133C7013B50246FFF7A0FDC8B152B90D4B01912F
S1133C80D3F80041FEF734FCC4F30422019902FB8B
S1133C900002094B1B7843B1084B9A4205D8022015
S1133CA002B0BDE81040FFF7A3BF0020F8E702B060
S1133CB010BD00BF00400E402C610020002D3101DA
S1133CC0034B02781A7001210020FFF7D1BF00BF17
S1133CD02C610020224B4AF6E85210B5596B5A6306
S1133CE09A6FD207FCD41B6C13F003031EBF1D4A4A
S1133CF00124C2F8B44A834204D110B9194BC3F861
S1133D00B40A10BD032B00D09BB9431E012B10D85D
S1133D10134A4FF40023D362936FDB07FCD4136C74
S1133D2023F0030343F0010313640D4A536A1C0395
S1133D30FCD50B4B9A6FD207FCD41A6C22F0030209
S1133D4002431A649A6F12F00102FBD10038054C49
S1133D5018BF01200129C4F8B40A08BF5A63D0E788
S1133D6000300E400000C6432DE9F04FA0F5E1639A
S1133D7089B00024B3F5966FCDE90244CDE904443B
S1133D80CDE9064406468A46934605D940F676317F
S1133D905548FEF7D5FEA3E0B0F5E16F534B8CBF59
S1133DA00122002249D1D3F81832C3F30721DBB230
S1133DB0079104934FF416754FF4966748E0BBF1EE
S1133DC0000F0ED0D9F85C2022F4FE4222F0020249
S1133DD0B6F5E16F42EA012218BF02200243C9F896
S1133DE05C20BAF1000F26D020460021FFF7D8FD51
S1133DF0044610B940F6D331CAE701214046FFF723
S1133E00CFFD044610B940F6DB31C1E7384A536EA2
S1133E10BD4238BF3D4623F4FF73E72D23F0010371
S1133E2028BFE725B6F5E16F18BF43F0010343EA65
S1133E304503536654E0012452E0D3F81832190EB6
S1133E40C3F30743079104934FF496654FF4E16776
S1133E50DFF89C90D9F84C400192C4F301742346D6
S1133E6005A902A8FFF7B2FCD9F8EC30019AC3F314
S1133E700128434606A903A8FFF7A8FC049BF01BEE
S1133E80079FF91A4143B1FBF5F299182CBF01239E
S1133E9000238F421ED3EBB9069A039FD31B4343DF
S1133EA0B3FBF5F3FF182CBF01230023BA4211D34F
S1133EB083B9059B029AA3EB020C00FB0CF0B0FB48
S1133EC0F5F555192CBF01200020AB4202D3002880
S1133ED03FF475AF044840F6C431FEF731FE0024C8
S1133EE0204609B0BDE8F08F6CA200000081E00F0D
S1133EF000300E40334A08B5136FD16C11F0010F36
S1133F0003F0060344D0002B42D0132857D91438A9
S1133F1013288CBF102308232A49013BCA6C1803B9
S1133F2022F47F4240EA03231343CB64264BCA6C3A
S1133F301B88C2F303222833013202EB820003EB15
S1133F405303B3FBF0F3C86C013B072B28BF0723D3
S1133F5020F0EE6040EA036343F48013CB641B4B10
S1133F60B3F90030002B12DB03F12800C0F34E0339
S1133F700344500800EB4202B3FBF2F20B6D072A34
S1133F8028BF072223F0700343EA02120A6508BD22
S1133F90D16C01F00101194304D109280FD90A3861
S1133FA00928B6E7D26CD20702D50BB92728B0E7A7
S1133FB0074840F61941FEF7C3FD0023ACE704238C
S1133FC0AAE700BF00300E402261002024610020D7
S1133FD06CA200000C4BD3F8803910B5044633B9F9
S1133FE0012804D9094840F63741FEF7A9FD084ADB
S1133FF0136F23F0070323431367064BBDE81040F8
S11340001888FFF777BF00BF0000C6436CA200000A
S113401000300E402061002038B55A4B02229A63CA
S11340209B6B03F00F039342044607D0564840F6B7
S11340301221FEF785FD0025284638BD0389C82BCB
S113404004D9514840F61C21FEF77AFDA288238941
S11340509A4204D94C4840F61D21FEF771FDB4F98B
S11340600C30C82B04DD484840F61E21FEF768FDDD
S11340706378012B55D1A388C82B04D940F622219B
S11340804148FEF75DFDE28842F210739A4204D97A
S11340903D4840F62F21FEF753FDE3884A2B48D9CB
S11340A0B3F5FA7F47D340F6C312934294BF4FF05F
S11340B000524FF040523349B4F90C00CB6C23F05A
S11340C0405323F001030028A8BF43F00103134326
S11340D0CB64D1F8EC30A28843F44073C1F8EC30DF
S11340E02A4B1A80CB6E43F08073CB66284BD3F8EF
S11340F0800900B10420FFF76DFF264B2189198048
S1134100254BB4F90C20A0881A80FFF7F3FEA37B9B
S1134110A3B1012B22D01C4840F62E11FEF710FD4E
S11341200FE0022BAFD1A3880A2BACD940F627218C
S1134130A6E70022BFE74FF08052BCE7114B174AB5
S11341409A65012260881146FFF70EFE054640B9C4
S11341500D4840F66621FEF7F3FC6DE7094B104A63
S1134160EEE7084AD36B43F48063D3636078FFF7C8
S1134170B1FDA37AA3F1200253425341044AC2F889
S1134180943759E700300E406CA2000020610020F3
S11341900000C6432261002024610020774020579C
S11341A0372110B71F2970B505460C46164603D9AA
S11341B006489121FEF7C4FC05F1424000F5801049
S11341C004EBC004A400266070BD00BF9BA20000E5
S11341D038B50D46044618B3012824D0022825D04A
S11341E0032826D004280ED0052825D0831F012BB0
S11341F009D9082823D0092823D00A2803D1072362
S1134200EB40DB0704D4104840F22B41FEF798FC46
S113421030200E4B0121444301FA05F51D5138BDF0
S113422040F2FF33ECE74FF6C073E9E740F6FF7363
S1134230E6E74FF47F43E3E74FF6FF73E0E70F232E
S1134240DEE74FF44043DBE7B8A000000CA00046D3
S113425038B50D46044618B3012824D0022825D0C9
S1134260032826D004280ED0052825D0831F012B2F
S113427009D9082823D0092823D00A2803D10723E1
S1134280EB40DB0704D410484FF47F71FEF758FC71
S113429030200E4B0121444301FA05F51D5138BD70
S11342A040F2FF33ECE74FF6C073E9E740F6FF73E3
S11342B0E6E74FF47F43E3E74FF6FF73E0E70F23AE
S11342C0DEE74FF44043DBE7B8A000000CA0004455
S11342D070B505460E461446FFF744FA296881EA8C
S11342E0040202EA06044C402C60BDE87040FFF76B
S11342F03DBA00002DE9F0478A469DF820909DF8CC
S1134300248015461F46044600284ED001284FD06D
S1134310022850D0032851D004280FD0052850D0AB
S1134320831F012B0AD908284ED009284ED00A2809
S113433004D1072020FA0AF0C30703D42C48BF2174
S1134340FEF7FEFB8AEA050333F0030303D0284893
S1134350C121FEF7F5FB072D0AF0030A4FF00F0108
S113436037D8AE00234804FA06F2B140FFF7B0FF95
S1134370032121480AFA06F2B140FFF7A9FF3A46A1
S113438029461E48FFF70EFF4A4629461C48FFF7F8
S113439009FF1C4A1C480123AB40C2F824342946B7
S11343A04246BDE8F047FFF7FDBE40F2FF30C1E7EB
S11343B04FF6C070BEE740F6FF70BBE74FF47F4096
S11343C0B8E74FF6FF70B5E70F20B3E74FF440406E
S11343D0B0E7A5F10806B6000C4804FA06F2B140AD
S11343E0FFF776FF03210A480AFA06F2B140C4E750
S11343F0F8A2000000A4004008A4004010A400405B
S113440014A4004000A0004028A4004004A40040DC
S11344100CA40040F8B50D4616461F460446C0B32A
S1134420012839D002283AD003283BD004280ED0E2
S113443005283AD0831F012B09D9082838D0092828
S113444038D00A2803D10721E940CB0704D42348F4
S11344504FF4B071FEF774FB26B12946204667B3CA
S1134460FFF7B6FE3023072D04FB03F34FF00F01D3
S113447026D8A80006FA00F2814019481844FFF72C
S113448027FF4EBB2946204617B3BDE8F840FFF787
S11344909FBE40F2FF31D7E74FF6C071D4E740F634
S11344A0FF71D1E74FF47F41CEE74FF6FF71CBE7C1
S11344B00F21C9E74FF44041C6E7FFF7C9FED1E732
S11344C0A5F10800800006FA00F281400548D5E70E
S11344D0BDE8F840FFF7BCBEF8BD00BFF8A200007D
S11344E004A0004008A00040022838B504460D4648
S11344F003D911484C21FEF723FB6B791F2B03D9F9
S11345000D484F21FEF71CFBAB786A789B0143EA08
S113451082032A781343EA7843EA02132A7943EAA6
S1134520C2236A7943EA0233AA79043443EA424350
S11345302401024A135138BD28A30000002004407E
S1134540014B1860704700BF000084424278017933
S11345500378002A827870B514BF04260026002A46
S1134560C27814BF10250025002A42794FEA02328E
S113457042EA012242EA0302837914BF2024002480
S1134580002BC37942EA034343EA0603027A43EA6F
S1134590050314BF4FF4004100212343002A14BF34
S11345A04FF4003200220B431343014A136070BDE1
S11345B0002004402DE9F04180460E461F46154672
S11345C022B931484FF4A171FEF7BAFA1EB92F4847
S11345D0FEF7E4FC0646402F2AD009D8A7B1202FC5
S11345E01CD0BDE8F041284840F28911FEF7A8BA72
S11345F0602FF6D1B5EB960F04D9234840F283110E
S1134600FEF79EFA04241DE0B5EB161F04D91E48DC
S11346104FF4BA71FEF794FA102413E0B5EBD60FF9
S113462004D9194840F27911FEF78AFA082409E0FE
S11346300624B6FBF4F3AB4204D213484FF4BF7123
S1134640FEF77EFA6C43610801EB4616B6FBF4F400
S11346500F4E203CB6EBC40F4FEAC40504D20A48FF
S11346604FF4D071FEF76CFAD8F8003023F06003F1
S1134670C8F80030D8F8003035401F43C8F800703F
S1134680C8F81450BDE8F08158A30000404105006B
S1134690F8FF7F0070B506460C46154622B90D4852
S11346A04FF42271FEF74CFA1CB90B48FEF776FC66
S11346B004460A4B6D00013CB4FBF5F413EA0423F1
S11346C04FEA042504D0034840F2A521FEF738FA46
S11346D0756170BD58A3000040410500070080FFCC
S11346E038B50E4B984204460D4610D003F580634E
S11346F098420CD003F58063984208D003F5806398
S1134700984204D0064840F2BE21FEF719FAEB4362
S11347105B0003F00A03E360E56038BD000001407C
S113472058A3000038B51E4B1E4D984204460ED0C7
S1134730A8420CD003F50063984208D003F58063C7
S1134740984204D0184840F23441FEF7F9F940F693
S1134750AA63E36041F20502002323606260134A06
S1134760A3606361E364A26423666367A367E3678A
S11347700B4B9C4209D0AC4207D003F500639C422A
S113478003D003F580639C4201D1002323650023F9
S1134790AC42A36502D0064A944200D1E36538BD19
S11347A0000001400004014058A30000F9FF01008B
S11347B0000C014038B5294B984204460D4610D0F0
S11347C003F5806398420CD003F58063984208D0C7
S11347D003F58063984204D0214840F2EF21FEF7AC
S11347E0AFF92046FFF79EFFAB7C1BB1236843F073
S11347F080432360EB7C1BB12B7D43F08003A365D6
S11348002A8A6B7B1343EA89134363602B7BD5E9C4
S113481001122046FFF7CEFE6B7D1BB1236843F4E3
S113482080332360AB7D1BB1236843F400432360D2
S1134830EB7D2A7E1B07120502F4E00203F0E0433D
S113484013432366636F23F030036367626F6B7EE9
S1134850134363672B78E36038BD00BF0000014059
S113486058A3000038B52D4B984204460D4610D08D
S113487003F5806398420CD003F58063984208D016
S113488003F58063984204D0254840F25B31FEF77B
S113489057F92046FFF746FFA97B2A8A2368002997
S11348A042F0010214BF4FF48061002113430B4313
S11348B02A7D23602368002A14BF4FF0005200228F
S11348C013432360AB7C1BB1EB7C43F08003A365F3
S11348D02B7B43F480536360D5E901122046FFF734
S11348E0D9FE6B7B0BB11023E3606B7D1BB1236896
S11348F043F480332360AB7D1BB1236843F400434E
S11349002360EB7D2A7E1B07120503F0E04302F4CB
S1134910E002134323662B78E36038BD00000140B6
S113492058A3000003691B06FCD5C069C0B27047D8
S113493003695B06FCD54163704700004111064AD8
S1134940012300F01F0003FA00F052F8213018434D
S113495042F82100704700BF3C610020044B1B68F3
S11349601BB1044B0360002070470120704700BF57
S11349704C6900202E61002070B50D4C246884B170
S11349800C4C26888518B5420DDC6688CD18B542D6
S113499009DC52B14BB1A080E18022816381002007
S11349A070BD0120FCE70420FAE70520F8E700BF0A
S11349B04C6900202E6100202DE9F74F0093444BF1
S11349C01B68002B7FD0DFF810910D9FB9F80630DB
S11349D0B9F80A205D181A441FFA82FAADB24FF0F2
S11349E0010B1FB9384603B0BDE8F08FABB29A454E
S11349F06BD9384AB9F80840B9F80430241A02EBE4
S1134A000511009ABC4228BF3C46161E18BF012659
S1134A1003447642072CA7EB04079BB2F6B221D8D5
S1134A201C44BEB9A34217D2DE0803F007020BFAF6
S1134A3002F08A5D013322EA00028A559BB2F1E753
S1134A40D80803F007020E5C0BFA02F2324301337A
S1134A500A549BB2A342F3D32846FFF76FFF0135F4
S1134A600020BEE74FEAD30C01EBD30813F0070391
S1134A7010D00BFA03F211F80CE0D2B2501E5242DD
S1134A800EEA000032401043083B01F80C0008F124
S1134A9001081C44E20809D031464046019202F064
S1134AA0ADFF14F00704019AD6D090440BFA04F435
S1134AB098F80030E4B26242013C134034401C4395
S1134AC088F80040C8E701278CE704278AE700BF7D
S1134AD04C6900204C6100202E61002037B5124D36
S1134AE02B68FBB9FDF7DAFC044618B10124204613
S1134AF003B030BDFDF7C6FC28600028F6D002885C
S1134B0041880A4B1A801A814A4359809C80DC8070
S1134B1059812046CDE90042234622462146FFF72B
S1134B204BFFE4E70024E2E74C6900202E610020FB
S1134B302DE9F8431B4FDFF874803C68DFF8689078
S1134B40002301251A46D8F800004188D6188E4261
S1134B5007D3FBB913481022002102F04FFF0020B5
S1134B6012E0E10708D50133D118C9060ABF57F886
S1134B70254064080135E6E753B109EB0211FDF75E
S1134B8025FC034610B10720BDE8F883721CEBE74F
S1134B900132E9E7044901EB0211FDF717FC002893
S1134BA0D8D0F0E73C6100204C6100204C69002023
S1134BB030B102680021538812880846FFF7DCBE32
S1134BC00520704737B50446A8B14568FFF7F0FFE4
S1134BD0014668B922681389528953430193EBB2A1
S1134BE00093C5F30742C5F30723FFF7E5FE01462B
S1134BF0084603B030BD0521FAE710B470B18369EB
S1134C0042698489018A01330132121B5B1A2046EE
S1134C109BB25DF8044B92B2FFF7AEBE05205DF87F
S1134C20044B7047F0B4D0B1C9B10E688C68A64289
S1134C3018DA4D68CA68954214DA002E14DB002D88
S1134C4012DB01680F88BC420EDA49888A420BDA0B
S1134C50C0E90365C0E90542F0BCFFF7CEBF0520FB
S1134C60F0BC70470420FBE70320F9E730B50546A4
S1134C7087B000B300226FF07F43C0E9012301A88D
S1134C80FFF76CFE044698B9019B2B601A885B8879
S1134C90CDE90200013A013B02A92846049205939A
S1134CA0FFF7C0FF044618B90449284600F0E1F8AC
S1134CB0204607B030BD0524FAE700BFBCA60000BB
S1134CC073B50D461646044690B10C3000F02FF82B
S1134CD080B1A26801230193D3B20093B1B2C2F3AD
S1134CE00723A8B2C2F30742FFF766FE02B070BD05
S1134CF00520FBE70120F9E773B50D4616461C466F
S1134D0088B10C3000F013F878B101230193E3B2B9
S1134D100093C4F30742C4F30723B1B2A8B2FFF768
S1134D204BFE02B070BD0520FBE70120F9E778B126
S1134D3003688B420BDC83688B4208DB4368934235
S1134D4005DCC0689042B4BF0020012070470020F9
S1134D5070472DE9F04F85B090469DF838200292B7
S1134D600446002800F08180A1F120025E2A7ED84A
S1134D7090F82820022A8DB21AD13A291AD0202973
S1134D801AD0303DADB2228CAA4270D9E2690192A8
S1134D904FF0000B1A465E4694F825101FFA8BF369
S1134DA099420BD8B6FA86F0400905B0BDE8F08FF9
S1134DB0203DE7E70A25E6E70B25E4E794F82230EF
S1134DC0012B05D0022B1DD0019B53F825A002E036
S1134DD0019B13F805A04FF0000994F824301FFA42
S1134DE089F7BB4212D894F8243094F827100B4466
S1134DF09F4229DB94F823301D44ADB20BF1010B23
S1134E000132C9E7019B33F815A0E4E71AF0010F5A
S1134E100FD008EB090120460392FFF751FF012848
S1134E20C3D8039A00B901364FEA5A0A09F10109B5
S1134E30D3E7029B002BF7D06368039208EB0901C8
S1134E402046FFF759FFEAE7029B5BB163680392D0
S1134E5008EB07012046FFF74FFF0128A5D8039A66
S1134E6000B901360137BFB2BDE705209DE7022036
S1134E709BE708B520B11C30102219B902F0BEFD21
S1134E80052002E002F0ACFD002008BD7FB5094B0F
S1134E906A4603F11006154618685968144603C497
S1134EA00833B3422246F7D12846FFF7B5F800206D
S1134EB004B070BDECA9000013B5022300246846B9
S1134EC000948DF804408DF80530FEF767FE204607
S1134ED002B010BD70B5114B86B001AA03F11006E3
S1134EE0154618685968144603C40833B342224669
S1134EF0F7D11B8823800A4B0A481B884FF6FF72A0
S1134F00934208BF4FF4B473ADF80A30FDF732FB97
S1134F102846FEF79FFB002006B070BDFCA90000E8
S1134F200001E00F005A620207B5084B18680190AF
S1134F303F2301A88DF80430FEF7E8FB6420FEF758
S1134F401DF9002003B05DF804FB00BF0EAA0000A9
S1134F5010B50C480C4C6FF00402A02112F0800F25
S1134F60D3B21BBF03F00F03043BA3181B1802F1B9
S1134F7001020CBF83F800131976332AEED1002006
S1134F8010BD00BF00ED00E000E100E010B50446F4
S1134F90FEF7E8FB024B1C60FEF7E8FB002010BDA7
S1134FA05069002010B5FEF7DDFB034B1C68FEF7CB
S1134FB0DDFB204610BD00BF5069002007B530B9A5
S1134FC0CDE90012FFF7EEFFDDE9001230B14368CE
S1134FD023B1006803B05DF804EB1847232003B045
S1134FE05DF804FB30B51C4685B058B9CDE9001214
S1134FF0FFF7D8FFDDE9001204B903AC20B9232080
S113500005B030BD03B903AC8568002DF7D0234645
S11350100068A847F4E790F82A3001223BB190F8E1
S11350202E30022B03D180F82E20184670471346E9
S1135030FBE780F82410704790F82400704790F83C
S11350402B007047002809DB4309012200F01F00F0
S113505002FA00F06033024A42F82300704700BFAE
S113506000E100E0F8B590F82B3004460D4681B11C
S113507073B990F82C60FEF775FB012105463046A4
S113508000F006FC2846FEF771FB012384F82B3060
S1135090F8BD002BFCD090F82C70FEF763FB29467A
S11350A00646384600F0F4FB3046FEF75FFB84F812
S11350B02B50EDE770B504460568FFF773FF844293
S11350C002D10020FFF762FF95F92800FFF7BAFF2D
S11350D095F92830002B0DDB5A09012103F01F0339
S11350E001FA03F32032144941F82230BFF34F8F01
S11350F0BFF36F8F95F92900FFF7A4FF95F92930C5
S1135100002B0DDB5A09012103F01F0301FA03F3FD
S11351102032094941F82230BFF34F8FBFF36F8F1C
S11351200023C4E90033C4E90433A3602846EB68D0
S1135130BDE87040184700BF00E100E02DE9F047EA
S1135140044690F824800D461646FEF712FB94F8A8
S11351502A30E3B1002384F82A30FEF710FB94F8D8
S11351602D90FEF7FFFA01210746484600F090FB18
S11351703846FEF7FBFA2E44B8F1000F26D1AE42B2
S113518008D1636820460121BDE8F0471847FEF7BF
S1135190F6FAF0E794F82630002BF0D0236815F8DF
S11351A0011B204698470028E9D0BDE8F08794F811
S11351B026305BB12B780A2B03D123680D212046BE
S11351C09847236815F8011B20469847AE42EED154
S11351D0D7E72DE9F7434FF00009044690461E46F1
S11351E0C3F800904F1E3368434505D2FEF7C1FA59
S11351F0A269C2B9FEF7C3FA94F827305BB9112348
S113520001220DF1070120468DF80730FFF796FFC4
S1135210012384F827303368002B0CBF1B200020A7
S113522003B0BDE8F083E16922698A5C07F8012FC5
S11352302569226A01359542A26908BF4D46013AA3
S1135240A2612561FEF79BFAA3682046984733685C
S113525001333360C7E708B5FFF770FF002008BDCE
S1135260F8B51F46536806460C461546002B6BD00E
S11352709368002B6AD030220021204602F0BEFB46
S11352806B68E361AB6823622B7B84F82430AB7BCF
S113529084F8253040F20113E384069B6360079B86
S11352A0A360089B2760E3602B7884F828306B7830
S11352B084F82930264B7360264BB360264B336148
S11352C0264B7361264BF360264B33620127264B32
S11352D0346084F82E70B361244BF3619DF8283058
S11352E084F82D309DF8243084F82C30002384F881
S11352F02B302046697B84F82A70FFF7B3FE95F9BA
S11353000100FFF79FFE95F90130002B06DB5A09D7
S113531003F01F039F40164B43F8227095F90000D9
S1135320FFF790FE95F90030002B08DB59090122A4
S113533003F01F0302FA03F30D4A42F8213030460A
S1135340FFF724FE0020F8BD2220FCE72120FAE725
S113535057520000D3510000335000003950000070
S1135360B550000017500000655000003F50000089
S113537000E100E010B50446FEF7FBF9A269236AD8
S11353809A4203D2FEF7FBF9012010BDFEF7F7F9AC
S11353900020FAE773B504460D46FEF7EAF994F8DF
S11353A0253006466BB1132D07D1002384F826302F
S11353B002B0BDE87040FEF7E2B9112D01D101231E
S11353C0F4E7A269236A9A4204D315484FF4B271F0
S11353D0FDF7B6FB6369E269D554A26963690132DA
S11353E0A261226A01339342636104BF00236361B3
S11353F03046FEF7C4F90423A26984F82E30236AE8
S11354009A420BD1132301220DF1070120468DF896
S11354100730FFF793FE002384F8273002B070BDF5
S113542012AA000090F82A3070B50446E3B9436824
S113543023B90E4840F28711FDF782FB002163680F
S113544020469847012384F82A3094F82D60FEF70B
S113545089F900210546304600F01AFA2846FEF77D
S113546085F9022384F82E3070BD00BF12AA000013
S1135470026BD36C43F00403D3647047026B10B522
S1135480044613695906FCD500231A4694F83910CA
S113549094F83800FEF7BEFF00231A4694F83B1038
S11354A094F83A00FEF7B6FF94F84030DA0707D5CF
S11354B0002394F83D1094F83C001A46FEF7AAFF26
S11354C094F840309B0707D5002394F83F1094F8D4
S11354D03E001A46FEF79EFF206B0021FFF700F9FD
S11354E0606B0021FDF7CCFB002010BD08B5006BFC
S11354F0FFF71EFA002008BD036BDA6C19B142F005
S11355000102DA64704722F00102DA6401229A642B
S1135510704700002DE9F04186B01C46524B0C9DAB
S11355200293524B01930126514B0093CDE903663C
S1135530504B90460A462946FFF792FE074600283C
S113554056D123682B6363686B63637A85F83930BB
S1135550237A85F83830E37A85F83B30A37A85F8E6
S11355603A30637B85F83D30237B85F83C30E37B20
S113557085F83F30A37B85F83E303F483146FDF740
S11355807FFB3E483146FDF77BFB617A207A334648
S11355900422FEF73FFF33460222E17AA07AFEF7A7
S11355A039FF60683146FDF76BFB88F800704146AF
S11355B02068FFF7FFF82268536F43F00303536733
S11355C0936F617C23F4F85323F01F030B43217C76
S11355D043EA012303219367516785F8407098F8E3
S11355E01930202B2BD007D803B3102B09D0232735
S11355F0384606B0BDE8F081302BF8D185F840106C
S113560002E085F840603E4600230222617B207B55
S1135610FEF700FF2368A27CDA675A6E42F00402A8
S11356205A665A6F42F010025A675EB92068C36C1A
S113563043F00403C3640521FFF752F8D8E70223BB
S113564085F84030E17BA07B00230422FEF7E2FED4
S11356502368E17CDA6F42EA0122DA675A6F42F08A
S113566020025A67E2E700BF7D5400007154000035
S1135670F9540000ED5400004041050000350A00D3
S1135680036B1B69190610B5044609D5FFF772FEB2
S1135690A0B1206BFFF746F901462046FFF77AFEDA
S11356A0236B1A6CD2070FD501229A641B699B06DF
S11356B00AD52046BDE81040FFF7B4BE226BD36C78
S11356C023F00403D364EBE710BD0000034B1B7805
S11356D0002B14BF01200220704700BF8469002002
S11356E00329F8B505460E4607D8174B5C5C032D15
S11356F019D8DFE805F0090F1215144840F2AD215E
S1135700FDF71EFA0024F2E744F00204104B1F6870
S11357107FB9F8BD44F00804F8E744F02004F5E745
S113572044F08004F2E7094840F2C221FDF708FA88
S1135730ECE77B681A68144203D05B68314628465C
S113574098473F68E4E700BF9FAA000056AA0000FC
S11357508069002038B5104D2B78ABB10F4C2378FD
S11357601BB100F000FB00232370002000F0FCFAC2
S11357700B4C50B100F0FAFA002320782B70012171
S1135780FFF7AEFF0123237038BD064B01221A70C8
S1135790054B22781A70F7E77D69002079690020AB
S11357A0706900207C6900208C69002010B5FDF729
S11357B0D9FF064B1B7804461BB1BDE81040FDF72A
S11357C0D5BFFFF7C7FF2046F7E700BF7869002081
S11357D038B5134D2B78FF2B044605D160B1114821
S11357E040F21F31FDF7ACF92B782BB924B90D48E1
S11357F040F22131FDF7A4F92B78002C14BF0122CB
S1135800FF2213442B700AD0074B1B78012B06D9B7
S1135810064B1B781BB9BDE83840FFF79BBF38BD6A
S11358208469002056AA0000706900207C69002069
S113583070B5124EFDF796FF337805468BB900F02C
S1135840C5FB044620B12846FDF790FF204670BDF5
S113585000F0FAFC0A4B18600A48FCF7B5FE0A4B44
S11358601C6000F0E3F900F0C5FA084B186001234E
S1135870284633700024FDF779FFE7E77A690020B2
S113588088690020806900209069002074690020E4
S11358902DE9F341441EE3B2012B0D4604D93248ED
S11358A04FF4B271FDF74CF9304E335DFF2B05D147
S11358B065B12D4840F26711FDF742F9335D2BB90C
S11358C025B9294840F26911FDF73AF9335D002DF5
S11358D014BF0122FF22134433553AD0244E3278A8
S11358E0012A36D9FFF7F2FE0128044634D8214FA5
S11358F0FDF738FF3B781BB31F4D2B781BB90122F2
S11359002A701E4A1370DFF8788098F8003033B19B
S1135910019000F028FA0023019888F80030FDF780
S113592025FF012000F020FAFDF71CFF2B782BB196
S1135930019000F01BFA002301982B7000233B70A8
S1135940FDF714FF3078A04203D02146FFF7C8FECC
S1135950347002B0BDE8F081032AF3D10228F1D1FA
S113596000F05AFAEEE700BF56AA0000846900204E
S1135970706900207D690020786900207C6900201E
S11359807969002068B5FDF7EDFE094B1B78012B02
S1135990064604D8FDF7EAFE0025284668BD054BF7
S11359A01D6800F02BFA05443046FDF7DFFEF4E7EE
S11359B0706900209069002007B5FDF7D3FE0190BF
S11359C0FFF7C8FE019803B05DF804EBFDF7CEBE07
S11359D0054B1B68584300F57420044B00F23F202C
S11359E0B0FBF3F0704700BF8869002040420F000D
S11359F02DE9F04385B0FDF7B5FE0446AFF3008012
S1135A00FCF7BAFB002800F08980614D614F2B78C8
S1135A1023B10020FFF7DCFE00232B70FFF756FEB6
S1135A20012811D009D90238C0B201287ED95A48B8
S1135A3040F20A31FDF784F806E02B7823B1002008
S1135A40FFF7C6FE00232B70FFF740FE0128064631
S1135A5004D9524B1B780BB900F064F9DFF8588174
S1135A60DFF8589198F80000B04207D099F8003058
S1135A7013B93146FFF734FE88F80060012E0CD9C3
S1135A80464E33784BB9464B1B7823B900F06AF97C
S1135A90444B01221A700123337098F8000000F07F
S1135AA08DF999F800301BB13F4B1B7888F8003012
S1135AB0AFF300802046FDF759FEFDF753FE044680
S1135AC0384600F0BDFAFCF75BFB064600289ED181
S1135AD0324F3B789BB189F80000DFF8C89099F801
S1135AE000301BB100F03FF989F80060002000F09D
S1135AF03BF9002842D000F039F900233B702B78A1
S1135B0023B10020FFF764FE00232B7098F80000F7
S1135B100021FFF7E5FD002388F80030AFF3008093
S1135B20204605B0BDE8F043FDF720BE03A90020E0
S1135B3000F046FB002887D11C4B039A1B689A424D
S1135B4004D80120FFF744FE01237CE7184B1E68AC
S1135B5000F054F9361804D50F4840F2F721FCF749
S1135B60EFFF03998E42ECD200230222CDE90032EA
S1135B70891B104A384600F08BFA65E7012000F0D3
S1135B801DF92046FDF7F2FDFDF7ECFD0446ADE7F7
S1135B90876900205469002056AA00007D6900200E
S1135BA086690020796900208C69002074690020CE
S1135BB090690020AD570000706900207C690020C6
S1135BC010B5FDF7CFFD054B00221C781A70FDF7C8
S1135BD0CDFD00F01FFC2043C0B210BD7B69002046
S1135BE073B5104E33788342044611D000238DF8E8
S1135BF0043078B101A88DF805300B4DFDF730FF66
S1135C001E204CB1FFF7E4FE2B68181A286034708C
S1135C1002B070BD0223EDE7FFF7DAFE2B681844EB
S1135C20F4E700BF62130020A469002073B5344C6C
S1135C30636ADA0003D533488C21FCF781FF636A79
S1135C409B0003D52F488F21FCF77AFF002401A87D
S1135C508DF80440FEF734F82046FFF7C1FF284AC8
S1135C60D2F8903003F00403A342274B0CBF214623
S1135C7001211970D2F89030244CC3F300332370FF
S1135C8005D04FF41670FFF7A3FE214B186023785C
S1135C90204DEBB11120FDF781F9194BD3F8002108
S1135CA0C2F3042202FB000292B15C6C1A4EC4F3EC
S1135CB00B44002301341946501E04EB8404E4FB16
S1135CC0060101F0CBFCFFF783FE2B681844286023
S1135CD0124B1B680120C3F303239840C0F1010059
S1135CE000EB80006430FFF773FE2B681844044B0C
