:1000000000100020290B0000250B0000250B00002C
:10001000250B0000250B0000250B0000250B000020
:10002000250B0000250B0000250B0000250B000010
:10003000250B0000250B0000250B0000250B000000
:10004000250B0000250B0000250B0000250B0000F0
:10005000250B0000250B0000250B0000250B0000E0
:10006000250B0000250B00007D110000250B000072
:10007000250B0000250B0000250B0000250B0000C0
:10008000250B0000250B000099110000250B000036
:10009000250B0000250B0000250B0000250B0000A0
:1000A000250B0000250B0000250B0000250B000090
:1000B000250B0000250B0000594B0000250B00000C
:1000C000250B0000250B0000250B0000250B000070
:1000D000250B0000250B0000250B0000250B000060
:1000E000C1070000CD070000250B0000250B000014
:1000F000250B0000250B0000250B0000250B000040
:10010000250B0000250B0000250B000010B5054C49
:10011000237833B9044B13B10448AFF300800123B3
:10012000237010BDD01000200000000048660000C1
:1001300008B5034B1BB103490348AFF3008008BD6A
:1001400000000000D410002048660000A3F5803AAB
:10015000704700BF174B002B08BF134B9D46FFF79E
:10016000F5FF00218B460F461348144A121A04F07B
:100170002FFF0E4B002B00D098470D4B002B00D0CB
:1001800098470020002104000D000D48002802D0EF
:100190000C48AFF3008004F0E9FE2000290000F0D5
:1001A000FAF804F0CFFE00BF0000080000000000D5
:1001B0000000000000100020D01000202C4D002076
:1001C0000000000000000000014B01221A6070478F
:1001D000F810002000B50A4B0A491A68FFB001A8C0
:1001E00004F0FEFE01A804F01BFF411C01A800F072
:1001F00013FA054B00221A607FB05DF804FB00BFC4
:10020000FC10002038590000F01000201FB51348E2
:10021000134C00F023FD134800F020FD4FF4E131B2
:10022000002000F089F900F0D7F800214FF4805247
:10023000204604F0CDFE0C4B03A942F210701C6066
:1002400004F01AFB40B90123CDE90003074A0399E2
:100250000346074804F0A2FA04B010BD305A00006B
:1002600000110020485A0000F4100020C9010000CD
:100270000021002010B5044600F0F5FC01280AD149
:10028000054B9C4204BF054B1860054B9C4202BFC6
:10029000044B01221A6010BD305A0000EC100020FF
:1002A000485A0000F0100020044A13682BB104499A
:1002B0000B6801330B60002313607047EC100020C3
:1002C000FC100020024B1B680BB1FFF783BF704787
:1002D000F010002038B5074C23684BB1064D00F0F4
:1002E00067F82968054800F003F900232B602360B4
:1002F00038BD00BFF8100020FC1000204E5900004F
:10030000F8B51D4E1D4D346800F092F9641BC4F51C
:100310007F640F34A04202DC00F08AF90446002C0E
:100320000EDD21460122306800F042F904463068B3
:1003300004F076FEA042074603DB306820443060BC
:10034000F8BD00F035F80D4800F0D2F8E41B316834
:100350000A48013C013739442246316004F02AFE44
:100360003068421BC2F57F620F3200212C4404F03A
:100370002FFE3460E4E700BFF410002000110020DD
:1003800008B5FFF791FFFFF79DFFFFF7A3FFBDE85B
:100390000840FFF7B5BF08B504F002FCFFF736FFD1
:1003A00004F00BFCFFF7ECFF03F05CFEF8E7000045
:1003B00008B5064802F040FF054A00231360054ACD
:1003C0001360BDE8084002F0EDBE00BF2031002000
:1003D000543100205031002010B500F03BFA18B124
:1003E0001948272100F0E6FE002002F0B1FE18B106
:1003F00015482B2100F0DEFE144802F071FF18B101
:1004000011482F2100F0D6FE104C6FF07F420023E0
:100410002046C4E9012302F00FFF20460C4903F0F7
:1004200062F894F8262094F825301344094A1360A2
:1004300094F8272094F824301344074ABDE810406C
:100440001360FFF7B5BF00BF7B59000020310020CB
:10045000B85D00004C3100201C3100202DE9F7432D
:100460001E4C1F4D07468846DFF880900026384610
:1004700004F0D6FDB04204D803B0BDE8F04302F06A
:1004800091BEB95D0A2906D12268D9F8003013441B
:10049000236000232B6001232A68009311482368FE
:1004A00002F091FF104A2B6812681344782B2B60DE
:1004B00006DD2368D9F800201344236000232B6055
:1004C0002368782B07DDB8F1000F04D0FFF770FF29
:1004D0004FF00008C8E70136C9E700BF54310020DB
:1004E00050310020203100201C3100204C310020F0
:1004F0000FB413B504AB4FF4805153F8044B0A48C2
:10050000019304F01BFD019A0748214604F0A6FD63
:10051000002803DB04480121FFF7A0FF02B0BDE87B
:10052000104004B0704700BF1C210020014B012285
:100530001A6070479C41002070B5164C0E460FCCD7
:1005400092B00BAD0FC594E80700134B0D9685E8EC
:100550000700124A1249CDE906230023CDE908130A
:100560000C3440F201130A9394E80F0002AD85E8C1
:100570000F000C4B0C480093006806AB0BAA2946F1
:1005800003F002FB18B10948FC2100F013FE002023
:1005900012B070BDA85900000062040000080140BC
:1005A0000006000758410020001000208E5900006E
:1005B0002DE9FF41144F04460E46002303A91046BF
:1005C0003B6004F059F940B90123CDE900030F4A1B
:1005D000039903460E4804F0E1F8DFF8388026441A
:1005E00025463B6833B10A4804F060F8281B04B084
:1005F000BDE8F08103AB721B2946D8F8000003F078
:100600002BF8039B1D44ECE79C4100202D050000C6
:10061000A04100200410002010B5044B0C460A46EF
:100620000146186803F004F8204610BD04100020AD
:10063000024B1B681B689869704700BF00100020C0
:100640007047000008B50421112001F033FA094871
:10065000012100F04FFE0848022101F02BFA074863
:10066000022101F027FA0648022101F023FA0020B6
:1006700008BD00BF30253E0002001E000300200020
:100680000500240008B5204B01225A641F4BD3F803
:10069000FC201F4B120E12D14AF6E851C3F89011FC
:1006A000D3F8981141F00401C3F89811C3F89021D0
:1006B000D3F8642142F40052C3F8642101E0012A16
:1006C000F6D0144A136A23F4441343F488131362D4
:1006D000A2F58052D2F8A43143F4F843C2F8A43111
:1006E00002F070FF00F0CCF802F00AFF02F02CFFDD
:1006F00002F054FFFFF7A6FF02F018FF00F0B4F875
:10070000BDE8084003F0CEBB00000E400081E00FC2
:1007100000300E4000400E4008B500F0D9FC00F05B
:1007200083F8BDE8084000F08DB808B500F046F841
:1007300000F08EF8BDE8084003F07EBF70477047B8
:10074000704770477047704730B5154C0FCC93B069
:100750000BAD0FC594E80700124B85E80700124A5D
:100760001249CDE906230023CDE908130C3440F2E9
:1007700001130A9394E80F0002AD85E80F000C4BBB
:1007800000930C4806AB0BAA294603F0FDF904467A
:1007900018B10948872100F00DFD204613B030BD87
:1007A000045A00000062040000080140000600072F
:1007B000BC41002020420020D4590000FFF7C4BFF4
:1007C000014B186803F096BA20420020FFF7F8BFEB
:1007D000014B1A6A18681047204200200120704718
:1007E0000120704708B5FFF7F9FF08BD38B503F0E1
:1007F00021FD0446FFF7ECFF042810D002284FF03B
:10080000000508BF0124FFF7EBFF042809D00228E8
:1008100008BF0124002D18BF0024204638BD012543
:10082000F1E70024F9E7000008B5044800F016FAE3
:10083000BDE80840024800F011BA00BF305A00007D
:10084000485A0000014800F0EEBA00BF605A0000AC
:100850000F20704708B5042201230F21032002F066
:1008600013F9002008BD000008B50448012100F07C
:1008700041FDBDE80840FFF7E3BE00BF00350A00B8
:100880000148012100F036BD00350A002DE9F04194
:100890001D4E0446884617460FCE88B001AD0FC5E1
:1008A00096E8070085E8070018482568012100F050
:1008B00021FD6068012100F01DFD617B207B00238C
:1008C000042202F0E1F8617A207A0422002302F087
:1008D000DBF8012301A928468DF81230CDF80C80F1
:1008E000ADF8147002F0F8FA6B6F227CA17B12064F
:1008F00003F0010342EA012243F00A030020AA6741
:100900006B6708B0BDE8F081785A000000350A0036
:1009100070B506680C468D18AC4201D1002070BD40
:1009200014F8011B91FAA1F1090E304602F03AFBCE
:10093000F2E7026813699B06FCD5704710B504689E
:1009400023691B0600D410BD204602F025FBF7E703
:1009500013B5044603F08AFF247B00230122CDE96E
:1009600000326400034AB0FBF4F1034803F0E0FEF8
:1009700002B010BD7D09000044420020024B4FF43C
:100980000052C3F8A820704700A0004073B50F4B79
:100990000F4E4FF48045C3F89C500446407B04F052
:1009A00017F9042302220DF106013046ADF8063096
:1009B000FFF7AEFF3046FFF7BCFFA07B04F008F95D
:1009C000044B0020C3F89C5002B070BD00A000464C
:1009D0001C10002000A0004438B504460121124834
:1009E000124D00F087FCA16811480022FFF74EFF6E
:1009F000002304220E21032002F046F800230422E3
:100A00000D21032002F040F894E80F0085E80F0064
:100A1000084B012220461A70FFF79AFF2046FFF785
:100A2000B5FF002038BD00BF00350A006442002039
:100A30001C100020604200202DE9F74F0688DFF8E7
:100A4000A8B0984603795E43264B14464FF4804283
:100A5000C3F89C200134A4B20546407B0F4604F045
:100A6000B7F8230243F001031F48ADF80630022215
:100A70000DF106010134FFF74BFF2402F610A4B27A
:100A80004FF0000908F1FF3AC14511D11648FFF7B0
:100A900050FFA87B04F09CF8144B13484FF480429D
:100AA000C3F89C20FFF74AFF002003B0BDE8F08F99
:100AB000394632465846FFF72BFFCA4514BF44F06B
:100AC000FF034FF6FF7302220DF10601584604F5AD
:100AD0008074ADF806303744FFF71AFF09F10109B9
:100AE000A4B2D1E700A000461C10002000A00044E2
:100AF000034B04481B78002B08BF0020704700BF41
:100B000060420020644200201FB5054B0FCB6C46AD
:100B100084E80F002046FFF75FFF04B010BD00BF60
:100B2000945A0000FEE7000008B500F069F8064B93
:100B30000649074A8B4201D3FFF70CFB52F8040B1E
:100B400043F8040BF6E700BF00100020D01000208F
:100B50005066000000487047005A6202104AD2F8FE
:100B6000943003F00703023B032B13D8DFE803F0B4
:100B70000C14020E0B4B1B68D2F80001C0F30420CA
:100B80000130B3FBF0F07047074BF4E7074B1B68ED
:100B90005B08F1E7054BEEE74FF40043ECE700BFDD
:100BA00000400E403C10002034100020381000207F
:100BB00008B5FFF7D3FF054BD3F80831C3F308237B
:100BC0000133B0FBF3F0024B186008BD00400E404B
:100BD00030100020014B1868704700BF341000200F
:100BE000054B1860054BD3F8943003F00703022B34
:100BF00001D1FFF7DDBF70473410002000400E40E8
:100C0000044B054A9A60D3F8882042F47002C3F876
:100C10008820704700ED00E0000000004FF4004025
:100C200070474FF47A707047014B1868704700BFE7
:100C30003C100020002303607047000005490A684B
:100C40001318054883428CBF4FF0FF320B601046EB
:100C5000704700BF4010002000000420436803B12B
:100C6000184722207047436903B11847FF20704797
:100C700038B50D46044620B3012825D0022826D0D9
:100C8000032827D004280ED0052826D0831F012B47
:100C900009D9082824D0092824D00A2803D10723F9
:100CA000EB40DB0704D4114840F2CD3100F082FA6A
:100CB00030200F494443214405EBC105AD002868AD
:100CC00038BD40F2FF33EBE74FF6C073E8E740F67C
:100CD000FF73E5E74FF47F43E2E74FF6FF73DFE78B
:100CE0000F23DDE74FF44043DAE700BFA45A0000CA
:100CF0001CA0100238B50D682B78022B0C460CD0C6
:100D000069792879FFF7B4FFB0FA80F040092870BC
:100D10002046BDE83840FFF7ADBA38BD37B50468A6
:100D200001210546164800F0E5FA00236179207993
:100D3000012201F0A9FE61792079FFF799FFB0FA4D
:100D400080F35B092370A379022B15D100F0C0F961
:100D50002A460C49607900F0E5F9FF28054603D1E1
:100D600009484F2100F026FA0123617920792A46AB
:100D7000CDE9003301F0F8FD002003B030BD00BF25
:100D800000350A00F50C0000185B000003681878B5
:100D9000704710B504682378022B15D0617920794B
:100DA000FFF766FFA279012A15D10038638818BFC2
:100DB000012040EA430363F03F039BB24FF6E0712A
:100DC0008B4202D12270638010BD4FF6DF729342D6
:100DD000F9D10022F6E7002AF6D1B0FA80F04009F6
:100DE0002070F1E703681A78022A03D100225A80A2
:100DF000FFF794BF704713B504682378022B10D017
:100E0000A379022B0BD16079002100F079F9627986
:100E100020790023CDE90033114601F0A5FD02231E
:100E2000237002B010BDD0E90003184738B50D4655
:100E3000044618B3012824D0022825D0032826D040
:100E400004280ED0052825D0831F012B09D9082896
:100E500023D0092823D00A2803D10723EB40DB073E
:100E600004D410484FF47F7100F0A4F930200E4BE9
:100E70000121444301FA05F51D5138BD40F2FF330D
:100E8000ECE74FF6C073E9E740F6FF73E6E74FF48F
:100E90007F43E3E74FF6FF73E0E70F23DEE74FF40E
:100EA0004043DBE7A45A00000CA0004438B50D46CF
:100EB000044618B3012824D0022825D0032826D0C0
:100EC00004280ED0052825D0831F012B09D9082816
:100ED00023D0092823D00A2803D10723EB40DB07BE
:100EE00004D4104840F22B4100F064F930200E4B3E
:100EF0000121444301FA05F51D5138BD40F2FF338D
:100F0000ECE74FF6C073E9E740F6FF73E6E74FF40E
:100F10007F43E3E74FF6FF73E0E70F23DEE74FF48D
:100F20004043DBE7A45A00000CA0004610B50121A5
:100F30000446094800F0DEF90848012100F0DAF91A
:100F4000A37820786178B3FA83F35B09042201F077
:100F50009BFD002010BD00BF4041050000350A0088
:100F60000346007859789B780BB9FFF75FBFFFF70E
:100F70009DBF0346007859789B780BB9FFF796BF61
:100F8000FFF754BF38B5047845782CB3012C26D030
:100F9000022C27D0032C28D0042C0ED0052C27D0CF
:100FA000A31F012B09D9082C25D0092C25D00A2CE8
:100FB00003D10723EB40DB0704D4114840F246413C
:100FC00000F0F8F83022544304F18044012304F582
:100FD0002044AB40A36138BD40F2FF33EAE74FF64F
:100FE000C073E7E740F6FF73E4E74FF47F43E1E7C0
:100FF0004FF6FF73DEE70F23DCE74FF44043D9E7FA
:10100000A45A000070B504784578064654B3012C04
:101010002BD0022C2CD0032C2DD0042C0ED0052C40
:101020002CD0A31F012B09D9082C2AD0092C2AD097
:101030000A2C03D10723EB40DB0704D4134840F20A
:10104000164100F0B7F830235C43114B234405EB05
:10105000C305AD00B3782868C0B213B9B0FA80F008
:10106000400970BD40F2FF33E5E74FF6C073E2E799
:1010700040F6FF73DFE74FF47F43DCE74FF6FF7383
:10108000D9E70F23D7E74FF44043D4E7A45A000031
:101090000CA0100270B50D4E0446012504B970BDB8
:1010A00094FAA4F3B3FA83F306EB031105FA03F2FF
:1010B00024EA02044A68002AF0D0D8B20B7B13B1AC
:1010C00089689047EAE79047E8E700BF744200204C
:1010D00008B5122000F090FE28B1084B4FF4802292
:1010E000C3F880211A600A2000F086FE28B1034B65
:1010F0004FF48062C3F880211A6008BD00E100E06F
:1011000038B505460C4600F06EFE054B03EB0513A3
:1011100000225C601A73BDE8384000F06ABE00BF70
:1011200074420020F8B505460F46164600F05BFEF7
:10113000104B05F0FC02D3F828140023EC1804F03F
:101140000304144321FA04FC1CF0010F07D00133FF
:10115000042BF3D1FF2400F04CFE2046F8BDFF2CF9
:10116000F9D0054B03EB04130122C3E901761A738E
:10117000F1E700BF00A0004074420020054BD3F807
:101180002804D3F81C24104000F05530C3F8240480
:10119000FFF780BF00A00040054BD3F82804D3F828
:1011A0001C24104000F0AA30C3F82404FFF772BFDB
:1011B00000A00040FEE700000C4B984210D90C4BF9
:1011C000984210D9022201230A490B640A49D1F836
:1011D000003123F0807343EA0263C1F800317047A5
:1011E00000221346F0E70122FBE700BF0048E801B8
:1011F0000090D0030000C84300400E4038B5114BAA
:101200005B68114B00221C46C9B21D798D4202D188
:101210001D68854212D20132052A03F10803F4D178
:101220000A4841F23851FFF7C5FF032205494B68D0
:1012300023F0407343EA02634B6038BD04EBC20203
:101240005279F3E700000E402C5C0000595B00006F
:101250001F2810B5044604D9034840F24311FFF794
:10126000A9FF0120A04010BD885B000038B5074CE5
:1012700041F67133256C2364FFF76CFC0021FFF706
:10128000BDFF0DB10023236438BD00BF00000E4038
:10129000044BDB6B5B0604D4034AD2F8C830002B46
:1012A000FBD1704700300E400000C64308B5FFF781
:1012B000EFFF024B5868C0F3014008BD00300E40FC
:1012C000044BD3F84421D20703D4D3F84021104271
:1012D000FBD1704700400E4038B5054C41F67133E4
:1012E000256C2364FFF78AFF0DB10023236438BD0A
:1012F00000000E4038B5C0F30323013B092B24D86E
:10130000DFE803F02A2D2323051619231C20154C92
:101310000023C0F3043513B11846FFF7D1FF04F1E1
:10132000424404F5801405EBC404A400216038BDD8
:101330000D4C0123EDE70D4C1023EAE70C4C4FF464
:101340008033E6E70B4C0023E3E7BDE838400A486A
:1013500041F6D521FFF72EBF084C0023D9E7084CF2
:101360000023D6E7B0400E40E0400E40E8400E407B
:10137000F0400E4050410E40595B000000400E40CE
:10138000C0400E4008B5C0F30313013B092B60D8E1
:10139000DFE803F0050B0F195F5F1F233C532E4B53
:1013A000D3F80001C0F3042008BD2B4BD3F814017F
:1013B000F8E7294BD3F80001C0F300600130FFF7D4
:1013C00047FF0138F0E7244BD3F80C01C0F30820A5
:1013D000EAE7214BD3F80801F8E7204B984209D0FF
:1013E0001F4B98420CD041F679411E48FFF7E2FEB0
:1013F0000020D9E7184BD3F8200100F00F00DEE7FA
:10140000154BD3F82001C0F30110D8E7164B9842D2
:1014100008D003F5B01303F58053984206D041F687
:101420009D41E2E70C4BD3F82801ECE70A4BD3F8D7
:101430002801C0F301200430C1E70C4B984205D1CC
:10144000054BD3F8300100F00300ADE741F6AC41A5
:10145000CBE741F6D141C8E700400E4080061600B8
:1014600080162E00595B000090171A00A009140086
:1014700008B5FFF787FF013008BD000000F00F003E
:10148000013808B5072844D8DFE800F0040F1943F5
:10149000232D4335264BD3F8943003F00703023B4A
:1014A000052B3DD8234AD05C08BD214BD3F88030B2
:1014B00003F00703013B032B34D81F4AF3E71C4B0F
:1014C000D3F8843003F00703013B032B2AD81B4ACF
:1014D000E9E7174BD3F8883003F00703013B032BF0
:1014E00020D8174ADFE7124B1B6F13F0010F0CBF18
:1014F00007200920D8E70E4BD3F85C3103F0300306
:10150000202B11D0302B11D0102B14BF012007201D
:10151000CAE70C4842F22501FFF74CFE0020C3E762
:101520000520C1E70120BFE70420BDE70820BBE795
:1015300000400E40FE5B0000045C0000085C000000
:10154000045C0000595B000038B52C4B98420546FE
:101550000AD02B4B984207D02A4B984204D02A48F5
:1015600041F23861FFF726FE2846FFF787FF234B3D
:101570009D42044611D0224B9D4212D0214B9D42E8
:1015800013D1224BD3F8804004F00704042C2DD84B
:10159000DFE804F02A11151D19001C4BD3F8844014
:1015A000F2E71A4BD3F88840EEE7174841F267613B
:1015B000FFF700FEEAE7BDE83840FFF72FBBBDE8C4
:1015C0003840FFF731BBBDE83840FFF72ABBFFF7D3
:1015D000C5FA0E4B0446D3F80001C0F30060013099
:1015E000FFF736FEB4FBF0F4204638BD064841F262
:1015F000B961FFF7DFFD0024F6E700BF030020001C
:101600000500240002001E00595B000000400E404F
:1016100038B500F47813B3F5B01F05467FD02ED847
:10162000B3F5402F69D011D8B3F5802F54D006D828
:1016300043B1B3F5003F5AD041F605411AE0B3F586
:10164000202FF9D1BDE83840FFF788BAB3F5801FE5
:1016500000F0A280B3F5A01F57D0B3F5602FEBD1F7
:101660005B48FFF70BFF072800F096800928E9D0B8
:1016700041F2FA315748FFF79DFD002036E0B3F5FF
:10168000381F5AD013D8B3F5001F5FD00AD8B3F56E
:10169000D01F5DD0B3F5F01FCED14F48BDE8384024
:1016A000FFF752BFB3F5101FC6D14C48F6E7B3F5AC
:1016B000481F57D0B3F5781F00F08280B3F5401F64
:1016C000BAD14748FFF740FF464B0446D3F82801FC
:1016D000C0F3012004302BE0FFF740FA414BD3F870
:1016E0000C31C3F308230133B0FBF3F038BDFFF72F
:1016F00035FA3C4BD3F80831F3E7FFF72FFA394BB3
:10170000D3F81431C3F30423EDE73448FFF71CFF8B
:10171000344BD3F8303103F00303D840E6E72E48CA
:10172000FFF712FF2F4B0446D3F8200100F00F0003
:10173000FFF78EFDB4FBF0F0D8E72748FFF704FF72
:10174000284BD3F82031C3F30113E6E72448A5E77B
:101750002348FFF7F9FE234B0446D3F82801C0F3D2
:101760000110E5E72048FFF789FE0138072824D853
:1017700001A353F820F000BF7B160000BB17000048
:10178000BB1700009F170000BB170000BB1700002D
:1017900099170000A7170000144B1868A6E7BDE8CA
:1017A0003840FFF717BAFFF7D9F90E4BD3F80031DD
:1017B000C3F3042303FB000098E741F2314159E7EA
:1017C000FFF7CCF904462846FFF752FEB2E700BF08
:1017D00006000E00595B000002001E0005002400F8
:1017E0000300200000400E40B800320044100020EA
:1017F000014B1880704700BF48100020013838B5F1
:101800000C46032864D8DFE800F002441A2FB1F533
:10181000007F04D3324842F62501FFF7CBFC314A62
:10182000C4F30804D2F86838002BFBD12E4A136A9F
:1018300023F4FF7323F001032343136238BD7F2990
:1018400004D9274842F63201FFF7B4FC254A04F0D8
:101850007F01D2F86038002BFBD1234B1C6924F0A8
:101860007F040C431C61E9E77F2904D91C4842F638
:101870004D01FFF79FFC1B4A04F07F01D2F864384A
:10188000002BFBD1184B9C6924F07F040C439C6116
:10189000D4E7154DD5F890305B0704D5104842F6D3
:1018A0005D01FFF787FC6B6A23F0300343F0100300
:1018B0006B62C4F3C311CB1C2A6B0C490F2B01EADA
:1018C000020128BF0F23214341EA03712963B5E7D1
:1018D000BDE83840024842F67701FFF76BBC00BF15
:1018E000595B00000020C84300400E4000F8FF0F85
:1018F000022810B50C4604D0144842F68F01FFF7B9
:1019000059FC134B5B6A13F0300F1BD0202C16D000
:10191000302C17D0B4B10D4842F6AA01FFF74AFCAB
:101920000C4B0B4AD2F8901033EA0101FAD15B025A
:101930004ABFD2F8A0000120C0F3802010BD4FF4B0
:101940000003EEE74FF44003EBE700BF595B0000F4
:1019500000400E40FF33E107022808B50CD129B141
:10196000094B4FF48060C3F8A80059664AB1BDE83E
:1019700008400220FFF7BCBF044842F6E001FFF731
:1019800019FC012008BD00BF00400E40595B00005B
:1019900004282DE9F04704460F4691461FD83D4BD9
:1019A0003D4A13F800A03D4B13F80080F1B93C4BC1
:1019B00033F810301366012303FA08F8D2F8903098
:1019C00013EA080FFAD1B9F1000F5AD00125324AB3
:1019D00005FA0AF5D2F890302B42FBD151E0BDE870
:1019E000F047304842F27471FFF7E4BB2E4B0228F7
:1019F00033F8106047D1536A13F0300F43D12B4BAB
:101A0000DB6B5A0504D4274842F28371FFF7D2FBFF
:101A1000214A536ADB0705D5536A23F0300343F0AC
:101A200010035362224D1C4BA8441E664FEA8808DF
:101A3000D8F80030002BFBD0B9F1000F21D055446D
:101A4000AD002B68002BFCD0022C1AD1CFB1124F65
:101A5000796A11F0010118D0012220212046FFF7F8
:101A60007BFFD7F89C40012200210220FFF790FF66
:101A7000C4F30A010220FFF7C1FE3E662B68002B6B
:101A8000FCD0BDE8F0870027CCE72046FFF730FF09
:101A9000E7E700BF0C5C000000400E40115C000056
:101AA000205C0000595B0000165C000000300E4016
:101AB0008004F210112838B50C460FD000F00F004A
:101AC0000138072800F2EB80DFE810F02400660000
:101AD0009A00E9007D00B400E900C200042912D197
:101AE000FFF778F80546A8B10021284600F0FAFB78
:101AF000023C0A2C45D8DFE804F04A473137444419
:101B000044443D0F4D00052904D1664B1D68664BCA
:101B10009D42E9D80025EBE7032005240122114668
:101B2000FFF736FFFFF7A2FB0DB1FFF7B1FB5F4BED
:101B30005C67FFF73DF80446FFF710F8FFF73CFB42
:101B4000FFF7B4FB01462046FFF7C6FB002D5DD131
:101B500028460121BDE8384000F0C4BB5448FFF7D7
:101B60002BFB02200446D9E75148FFF725FB01244F
:101B70000320D3E742F2E601BDE838404D48FFF7C5
:101B800019BB42F2EB01F7E701200324C6E700206E
:101B90000424C3E70724C5E7062933D14548464D49
:101BA00042F22A11FFF706FB424842F23A11FFF7D0
:101BB00001FBFEF7D3FFFFF7FFFA404B0122C3F80A
:101BC0000826032321E006293D4DEDD0013C092CD8
:101BD0002BD801A353F824F0311C00000F1C000087
:101BE0001D1C00002B1C00002B1C0000B31B000060
:101BF0002B1C00002B1C00002B1C0000091C0000EB
:101C0000304DE3E72C4DE1E704232B6038BD012282
:101C100011460020FFF7BCFE0223F6E70122114621
:101C20001046FFF7B5FE0123EFE742F26511A3E787
:101C30000023EAE7072904D0092906D042F2EF1170
:101C40009AE71A4B00221A67E0E7184B0122FAE7DD
:101C50004C1E072C1ED8DFE804F0201D1D161D1D8C
:101C60000F0403221149D1F85C3123F0300343EA19
:101C70000213C1F85C31C9E7012211460420FFF7C5
:101C800087FE0122EEE7012211460220FFF780FEC7
:101C90000222E7E742F24D216EE70022E2E742F23C
:101CA000243169E738100020002D310100400E403A
:101CB0000148E801595B000080400E400010C84315
:101CC00088400E4084400E4010B504461120FFF7B6
:101CD000D5FB042804D1274842F20F61FFF76AFAC6
:101CE000012200210220FFF753FE63781BB9A3787D
:101CF0000BB9E37823B11F4842F24B61FFF75AFA60
:101D0000237C012B04D11B4842F25261FFF752FAA7
:101D1000194A217C536A23F00103022908BF43F0CA
:101D200001035362154B2178C3F8A014637AA1888C
:101D300043EAC123D362136BA07A217A03F07F6355
:101D40000343E08843EAC02343EAC11303310F2968
:101D500028BF0F2143EA01731363A37B617B1B013F
:101D600043EA0133E17B0B43217B43EA01435363A5
:101D700010BD00BF595B000000400E400000C8438A
:101D800070B505461120FFF779FB022804D10F48F2
:101D900042F2CD61FFF70EFA0D4E0E4BB26B2C786E
:101DA00013401C436B7844EAC324AB7844EA0364D1
:101DB000EB7844EA0324B36BA34205D0002101224F
:101DC0000846FFF7E5FDB46370BD00BF595B000036
:101DD00000400E4080E4FFF8EFF3108072B67047C9
:101DE00000B962B67047EFF31180602383F3118866
:101DF000704780F31188704738B5C5B2322D04465C
:101E000004D9084840F21F31FFF7D4F9064B6409A2
:101E100005F01F0553F82400E840C04300F001001E
:101E200038BD00BF545C000000E100E0034BD86BFC
:101E300080F04000C0F38010704700BF00300E40BB
:101E400038B542EA0323B3F5007F05460C463ED081
:101E500019D8B3F5807F36D00AD883B3012B21D0AF
:101E60001F4840F6EE11FFF7A5F9002213461FE0C8
:101E700040F201129342F3D11A4BD3F824321A0ED6
:101E8000C3F3074314E0B3F5407F24D040F201329E
:101E9000934210D040F201229342E1D1114BD3F88A
:101EA000283202E00F4BD3F82432C3F30722DBB20F
:101EB0002B60226038BD0B4BD3F82832DFE7094B8B
:101EC000D3F81C32F1E7074BD3F81C32D7E7054BA8
:101ED000D3F82032E9E7034BD3F82032CFE700BF35
:101EE000845C00000081E00F08B5FFF79FFF20B180
:101EF000024AD2F8C830002BFBD108BD0000C6430F
:101F000008B5FFF793FF80B1FFF7EEFF074B1968A5
:101F10005A68C1F30121C2F3014291421A688CBF91
:101F200042F0100222F010021A6008BD00300E408C
:101F3000064B1B68DB0608D5054B1B69C3F304433E
:101F4000082B02BF034B044A1A60704700300E4052
:101F500000400E4038100020C0EA210137B5FFF7DD
:101F600065FF38B1244B1B78C3F102021023934064
:101F7000224A13612249234DD1F8804145F60E03D0
:101F8000C1F880312B6823F0AA03DB05DB0D0B665B
:101F9000FFF7AAFF194B1B68D80604F0010416D5F9
:101FA000D1F84031DA01FBD4174B1B680B61174B9A
:101FB0001B78052B0BD1164B18680190FFF794FF87
:101FC0000E4B01985968C1F30141FFF785F90F4B9A
:101FD0001978052902D01120FFF76CFD2B68DB076B
:101FE0005EBF074B02221A661CB1054B0022C3F8E4
:101FF000802103B030BD00BF8544002000300E407A
:1020000000400E4074440020804400207E440020A4
:10201000381000201A4B022810B5D3F830320C4685
:1020200012D0032813D0012814BFDBB2C3F3072357
:102030001B0323F47042ECB95AB140F67D111148EC
:10204000FFF7B8F8002010BDC3F30743F0E71B0EFD
:10205000EEE70D49CA6E22F470421343CB660120AD
:10206000F1E70949D1F8EC2022F470421343C1F89A
:10207000EC30F4E7002AF4D040F68911DFE700BF26
:102080000081E00F845C000000300E4010B50B4C66
:102090000B4BD4F890201A601120FFF7EFF9094B91
:1020A0001870FFF721FF084B084A5B68C3F3014330
:1020B0001370074B22691A6010BD00BF00400E402C
:1020C000744400207E44002000300E4085440020EF
:1020D00080440020094942780B6823F4407343EAA6
:1020E0000223022A0B6008D1054B5B6A9B0004D5D2
:1020F00004484FF43B71FFF75DB8704700300E4065
:1021000000400E40845C000070477047704700003C
:1021100010B5044608B1FFF7B9FFFFF7F1FE164A04
:10212000136943F004031361FFF7EEFFFFF7EDFFC0
:10213000124B1B68DB0618D5FFF74EFE03F0F8FBC9
:10214000FFF74EFEFFF7E2FF02F028F97CB1FFF740
:1021500005FF0A4AD2F84C3123F00043C2F84C3153
:1021600044B9BDE81040FEF723BD30BFEAE7FFF7F2
:10217000DFFEEEE710BD00BF00ED00E000300E40D6
:1021800038B5044608B1FFF781FFFFF7B9FE1B4BD6
:102190001B4DD3F8802145F60E01D207C3F88011FC
:1021A00048BF00224FF42071196648BFC3F8802150
:1021B000144A136943F004031361FFF7A5FF2B686A
:1021C000DB0615D5FFF708FE03F0B2FBFFF708FEAC
:1021D00002F0E4F874B1FFF7C1FED5F84C3123F0FA
:1021E0000043C5F84C3144B9BDE83840FEF7E0BCC7
:1021F00030BFEDE7FFF79CFEEFE738BD00400E4033
:1022000000300E4000ED00E0FFF740BFFFF7A6BE34
:102210000378134A002B437870B514BF04260026B8
:10222000002B8378946914BF02250025002B0379C5
:1022300024F03F0443EA0403C47814BF08210021BA
:10224000012C08BF43F0010333432B430B4393613D
:102250001368417923F4403343EA0143136070BDAE
:1022600000300E40F8B504460F46FFF7DFFD78B3A7
:10227000FFF73AFE174B5B68C3F301439C4227D03C
:10228000154BD3F80061FEF769FC022C05460FD10F
:10229000124BC6F3042606FB00069E4204D91048E2
:1022A00040F21471FEF786FF02212846FFF714F86A
:1022B000C4F1020210239340064A13610FB1FFF7E5
:1022C00013FE2CB921462846BDE8F840FFF704B8B4
:1022D000F8BD00BF00300E4000400E40002D31011F
:1022E000845C000013B50246FFF7A0FDC8B152B9E7
:1022F0000D4B0191D3F80041FEF730FCC4F30422EA
:10230000019902FB0002094B1B7843B1084B9A422A
:1023100005D8022002B0BDE81040FFF7A3BF00209F
:10232000F8E702B010BD00BF00400E40844400201A
:10233000002D3101034B02781A7001210020FFF7B4
:10234000D1BF00BF84440020224B4AF6E85210B5AA
:10235000596B5A639A6FD207FCD41B6C13F00303BA
:102360001EBF1D4A0124C2F8B44A834204D110B9E9
:10237000194BC3F8B40A10BD032B00D09BB9431E00
:10238000012B10D8134A4FF40023D362936FDB075D
:10239000FCD4136C23F0030343F0010313640D4AD0
:1023A000536A1C03FCD50B4B9A6FD207FCD41A6CF2
:1023B00022F0030202431A649A6F12F00102FBD169
:1023C0000038054C18BF01200129C4F8B40A08BF21
:1023D0005A63D0E700300E400000C6432DE9F04FAD
:1023E000A0F5E16389B00024B3F5966FCDE902440E
:1023F000CDE90444CDE9064406468A46934605D90C
:1024000040F676315548FEF7D5FEA3E0B0F5E16F12
:10241000534B8CBF0122002249D1D3F81832C3F3A9
:102420000721DBB2079104934FF416754FF49667BA
:1024300048E0BBF1000F0ED0D9F85C2022F4FE4238
:1024400022F00202B6F5E16F42EA012218BF022033
:102450000243C9F85C20BAF1000F26D020460021C3
:10246000FFF7D8FD044610B940F6D331CAE7012181
:102470004046FFF7CFFD044610B940F6DB31C1E717
:10248000384A536EBD4238BF3D4623F4FF73E72DF3
:1024900023F0010328BFE725B6F5E16F18BF43F02D
:1024A000010343EA4503536654E0012452E0D3F8A4
:1024B0001832190EC3F30743079104934FF496653E
:1024C0004FF4E167DFF89C90D9F84C400192C4F3D7
:1024D0000174234605A902A8FFF7B2FCD9F8EC3035
:1024E000019AC3F30128434606A903A8FFF7A8FCF5
:1024F000049BF01B079FF91A4143B1FBF5F29918B1
:102500002CBF012300238F421ED3EBB9069A039FF1
:10251000D31B4343B3FBF5F3FF182CBF0123002368
:10252000BA4211D383B9059B029AA3EB020C00FBBC
:102530000CF0B0FBF5F555192CBF01200020AB4283
:1025400002D300283FF475AF044840F6C431FEF7CB
:1025500031FE0024204609B0BDE8F08F845C000005
:102560000081E00F00300E40334A08B5136FD16C84
:1025700011F0010F03F0060344D0002B42D01328C2
:1025800057D9143813288CBF102308232A49013B3C
:10259000CA6C180322F47F4240EA03231343CB643E
:1025A000264BCA6C1B88C2F303222833013202EB8C
:1025B000820003EB5303B3FBF0F3C86C013B072B22
:1025C00028BF072320F0EE6040EA036343F4801342
:1025D000CB641B4BB3F90030002B12DB03F1280056
:1025E000C0F34E030344500800EB4202B3FBF2F287
:1025F0000B6D072A28BF072223F0700343EA02125B
:102600000A6508BDD16C01F00101194304D1092804
:102610000FD90A380928B6E7D26CD20702D50BB910
:102620002728B0E7074840F61941FEF7C3FD00230D
:10263000ACE70423AAE700BF00300E407A44002034
:102640007C440020845C00000C4BD3F8803910B52A
:10265000044633B9012804D9094840F63741FEF74A
:10266000A9FD084A136F23F0070323431367064BA2
:10267000BDE810401888FFF777BF00BF0000C643D1
:10268000845C000000300E407844002038B55A4B7E
:1026900002229A639B6B03F00F039342044607D018
:1026A000564840F61221FEF785FD0025284638BD24
:1026B0000389C82B04D9514840F61C21FEF77AFD46
:1026C000A28823899A4204D94C4840F61D21FEF77E
:1026D00071FDB4F90C30C82B04DD484840F61E21CA
:1026E000FEF768FD6378012B55D1A388C82B04D968
:1026F00040F622214148FEF75DFDE28842F2107368
:102700009A4204D93D4840F62F21FEF753FDE38855
:102710004A2B48D9B3F5FA7F47D340F6C312934208
:1027200094BF4FF000524FF040523349B4F90C00BF
:10273000CB6C23F0405323F001030028A8BF43F0E3
:1027400001031343CB64D1F8EC30A28843F4407307
:10275000C1F8EC302A4B1A80CB6E43F08073CB6605
:10276000284BD3F8800900B10420FFF76DFF264BFA
:1027700021891980254BB4F90C20A0881A80FFF715
:10278000F3FEA37BA3B1012B22D01C4840F62E11EF
:10279000FEF710FD0FE0022BAFD1A3880A2BACD9B6
:1027A00040F62721A6E70022BFE74FF08052BCE7A2
:1027B000114B174A9A65012260881146FFF70EFEF9
:1027C000054640B90D4840F66621FEF7F3FC6DE77B
:1027D000094B104AEEE7084AD36B43F48063D36396
:1027E0006078FFF7B1FDA37AA3F120025342534171
:1027F000044AC2F8943759E700300E40845C000068
:10280000784400200000C6437A4400207C44002025
:1028100077402057372110B71F2970B505460C4661
:10282000164603D906489121FEF7C4FC05F1424043
:1028300000F5801004EBC004A400266070BD00BF4A
:10284000B35C000038B50D46044618B3012824D007
:10285000022825D0032826D004280ED0052825D00C
:10286000831F012B09D9082823D0092823D00A283F
:1028700003D10723EB40DB0704D4104840F22B417F
:10288000FEF798FC30200E4B0121444301FA05F578
:102890001D5138BD40F2FF33ECE74FF6C073E9E756
:1028A00040F6FF73E6E74FF47F43E3E74FF6FF732D
:1028B000E0E70F23DEE74FF44043DBE7A45A0000D4
:1028C0000CA0004638B50D46044618B3012824D0A4
:1028D000022825D0032826D004280ED0052825D08C
:1028E000831F012B09D9082823D0092823D00A28BF
:1028F00003D10723EB40DB0704D410484FF47F716A
:10290000FEF758FC30200E4B0121444301FA05F537
:102910001D5138BD40F2FF33ECE74FF6C073E9E7D5
:1029200040F6FF73E6E74FF47F43E3E74FF6FF73AC
:10293000E0E70F23DEE74FF44043DBE7A45A000053
:102940000CA0004470B505460E461446FFF744FA45
:10295000296881EA040202EA06044C402C60BDE8C2
:102960007040FFF73DBA00002DE9F0478A469DF818
:1029700020909DF8248015461F46044600284ED01E
:1029800001284FD0022850D0032851D004280FD05E
:10299000052850D0831F012B0AD908284ED00928BA
:1029A0004ED00A2804D1072020FA0AF0C30703D426
:1029B0002C48BF21FEF7FEFB8AEA050333F0030330
:1029C00003D02848C121FEF7F5FB072D0AF0030AC2
:1029D0004FF00F0137D8AE00234804FA06F2B14099
:1029E000FFF7B0FF032121480AFA06F2B140FFF7D2
:1029F000A9FF3A4629461E48FFF70EFF4A462946D8
:102A00001C48FFF709FF1C4A1C480123AB40C2F8D1
:102A1000243429464246BDE8F047FFF7FDBE40F2A8
:102A2000FF30C1E74FF6C070BEE740F6FF70BBE76E
:102A30004FF47F40B8E74FF6FF70B5E70F20B3E7DC
:102A40004FF44040B0E7A5F10806B6000C4804FA80
:102A500006F2B140FFF776FF03210A480AFA06F2B0
:102A6000B140C4E7265D000000A4004008A4004077
:102A700010A4004014A4004000A0004028A400407E
:102A800004A400400CA40040F8B50D4616461F46AD
:102A90000446C0B3012839D002283AD003283BD0DD
:102AA00004280ED005283AD0831F012B09D9082805
:102AB00038D0092838D00A2803D10721E940CB07AC
:102AC00004D423484FF4B071FEF774FB26B12946B5
:102AD000204667B3FFF7B6FE3023072D04FB03F350
:102AE0004FF00F0126D8A80006FA00F281401948DD
:102AF0001844FFF727FF4EBB2946204617B3BDE811
:102B0000F840FFF79FBE40F2FF31D7E74FF6C071A4
:102B1000D4E740F6FF71D1E74FF47F41CEE74FF69F
:102B2000FF71CBE70F21C9E74FF44041C6E7FFF73C
:102B3000C9FED1E7A5F10800800006FA00F2814045
:102B40000548D5E7BDE8F840FFF7BCBEF8BD00BFBB
:102B5000265D000004A0004008A00040022838B50F
:102B600004460D4603D911484C21FEF723FB6B792F
:102B70001F2B03D90D484F21FEF71CFBAB786A7859
:102B80009B0143EA82032A781343EA7843EA02135B
:102B90002A7943EAC2236A7943EA0233AA790434E0
:102BA00043EA42432401024A135138BD565D0000F6
:102BB00000200440014B1860704700BF00008442B1
:102BC000427801790378002A827870B514BF042610
:102BD0000026002AC27814BF10250025002A427959
:102BE0004FEA023242EA012242EA0302837914BF29
:102BF00020240024002BC37942EA034343EA06035E
:102C0000027A43EA050314BF4FF400410021234335
:102C1000002A14BF4FF4003200220B431343014A31
:102C2000136070BD002004402DE9F04180460E463F
:102C30001F46154622B931484FF4A171FEF7BAFA82
:102C40001EB92F48FEF7E4FC0646402F2AD009D8CB
:102C5000A7B1202F1CD0BDE8F041284840F28911CF
:102C6000FEF7A8BA602FF6D1B5EB960F04D923482A
:102C700040F28311FEF79EFA04241DE0B5EB161F07
:102C800004D91E484FF4BA71FEF794FA102413E0E9
:102C9000B5EBD60F04D9194840F27911FEF78AFA3C
:102CA000082409E00624B6FBF4F3AB4204D213482F
:102CB0004FF4BF71FEF77EFA6C43610801EB4616D4
:102CC000B6FBF4F40F4E203CB6EBC40F4FEAC4053C
:102CD00004D20A484FF4D071FEF76CFAD8F80030ED
:102CE00023F06003C8F80030D8F8003035401F43A7
:102CF000C8F80070C8F81450BDE8F081865D000087
:102D000040410500F8FF7F0070B506460C461546A9
:102D100022B90D484FF42271FEF74CFA1CB90B484A
:102D2000FEF776FC04460A4B6D00013CB4FBF5F45B
:102D300013EA04234FEA042504D0034840F2A521F6
:102D4000FEF738FA756170BD865D000040410500F0
:102D5000070080FF38B50E4B984204460D4610D050
:102D600003F5806398420CD003F58063984208D045
:102D700003F58063984204D0064840F2BE21FEF776
:102D800019FAEB435B0003F00A03E360E56038BD2A
:102D900000000140865D000038B51E4B1E4D984274
:102DA00004460ED0A8420CD003F50063984208D028
:102DB00003F58063984204D0184840F23441FEF78E
:102DC000F9F940F6AA63E36041F2050200232360AB
:102DD0006260134AA3606361E364A264236663676D
:102DE000A367E3670B4B9C4209D0AC4207D003F5C5
:102DF00000639C4203D003F580639C4201D1002311
:102E000023650023AC42A36502D0064A944200D158
:102E1000E36538BD0000014000040140865D00000C
:102E2000F9FF0100000C014038B5294B98420446D7
:102E30000D4610D003F5806398420CD003F58063F3
:102E4000984208D003F58063984204D0214840F2AC
:102E5000EF21FEF7AFF92046FFF79EFFAB7C1BB1D9
:102E6000236843F080432360EB7C1BB12B7D43F050
:102E70008003A3652A8A6B7B1343EA89134363604B
:102E80002B7BD5E901122046FFF7CEFE6B7D1BB1EF
:102E9000236843F480332360AB7D1BB1236843F484
:102EA00000432360EB7D2A7E1B07120502F4E0023B
:102EB00003F0E04313432366636F23F0300363673B
:102EC000626F6B7E134363672B78E36038BD00BF8E
:102ED00000000140865D000038B52D4B9842044645
:102EE0000D4610D003F5806398420CD003F5806343
:102EF000984208D003F58063984204D0254840F2F8
:102F00005B31FEF757F92046FFF746FFA97B2A8A77
:102F10002368002942F0010214BF4FF480610021B0
:102F200013430B432A7D23602368002A14BF4FF00C
:102F30000052002213432360AB7C1BB1EB7C43F0B7
:102F40008003A3652B7B43F480536360D5E90112B2
:102F50002046FFF7D9FE6B7B0BB11023E3606B7D3E
:102F60001BB1236843F480332360AB7D1BB123681E
:102F700043F400432360EB7D2A7E1B07120503F018
:102F8000E04302F4E002134323662B78E36038BD8C
:102F900000000140865D000003691B06FCD5C06986
:102FA000C0B2704703695B06FCD5416370470000FF
:102FB0004111064A012300F01F0003FA00F052F805
:102FC0002130184342F82100704700BF944400208C
:102FD000044B1B681BB1044B0360002070470120A9
:102FE000704700BFA44C00208644002070B50D4CF3
:102FF000246884B10C4C26888518B5420DDC66889F
:10300000CD18B54209DC52B14BB1A080E1802281DC
:103010006381002070BD0120FCE70420FAE7052051
:10302000F8E700BFA44C0020864400202DE9F74FAC
:103030000093444B1B68002B7FD0DFF810910D9F4D
:10304000B9F80630B9F80A205D181A441FFA82FA56
:10305000ADB24FF0010B1FB9384603B0BDE8F08F99
:10306000ABB29A456BD9384AB9F80840B9F8043080
:10307000241A02EB0511009ABC4228BF3C46161EDA
:1030800018BF012603447642072CA7EB04079BB226
:10309000F6B221D81C44BEB9A34217D2DE0803F011
:1030A00007020BFA02F08A5D013322EA00028A5518
:1030B0009BB2F1E7D80803F007020E5C0BFA02F2AC
:1030C000324301330A549BB2A342F3D32846FFF79D
:1030D0006FFF01350020BEE74FEAD30C01EBD308A8
:1030E00013F0070310D00BFA03F211F80CE0D2B280
:1030F000501E52420EEA000032401043083B01F8D5
:103100000C0008F101081C44E20809D03146404691
:10311000019201F05DFF14F00704019AD6D09044AB
:103120000BFA04F498F80030E4B26242013C134018
:1031300034401C4388F80040C8E701278CE7042787
:103140008AE700BFA44C0020A4440020864400204D
:1031500037B5124D2B68FBB9FDF7D6FC044618B104
:103160000124204603B030BDFDF7C2FC28600028D2
:10317000F6D0028841880A4B1A801A814A43598046
:103180009C80DC8059812046CDE9004223462246BE
:103190002146FFF74BFFE4E70024E2E7A44C0020C0
:1031A000864400202DE9F8431B4FDFF874803C680B
:1031B000DFF86890002301251A46D8F800004188FE
:1031C000D6188E4207D3FBB913481022002101F014
:1031D000FFFE002012E0E10708D50133D118C9062F
:1031E0000ABF57F8254064080135E6E753B109EBFB
:1031F0000211FDF721FC034610B10720BDE8F8835A
:10320000721CEBE70132E9E7044901EB0211FDF71B
:1032100013FC0028D8D0F0E794440020A4440020F8
:10322000A44C002030B1026800215388128808465F
:10323000FFF7DCBE0520704737B50446A8B14568E6
:10324000FFF7F0FF014668B922681389528953439A
:103250000193EBB20093C5F30742C5F30723FFF7D1
:10326000E5FE0146084603B030BD0521FAE710B47B
:1032700070B1836942698489018A01330132121B6A
:103280005B1A20469BB25DF8044B92B2FFF7AEBECC
:1032900005205DF8044B7047F0B4D0B1C9B10E6899
:1032A0008C68A64218DA4D68CA68954214DA002E76
:1032B00014DB002D12DB01680F88BC420EDA49884E
:1032C0008A420BDAC0E90365C0E90542F0BCFFF7AA
:1032D000CEBF0520F0BC70470420FBE70320F9E7D0
:1032E00030B5054687B000B300226FF07F43C0E9D8
:1032F000012301A8FFF76CFE044698B9019B2B60DF
:103300001A885B88CDE90200013A013B02A92846F0
:1033100004920593FFF7C0FF044618B904492846F4
:1033200000F0E1F8204607B030BD0524FAE700BF01
:10333000E860000073B50D461646044690B10C30A7
:1033400000F02FF880B1A26801230193D3B200935B
:10335000B1B2C2F30723A8B2C2F30742FFF766FE79
:1033600002B070BD0520FBE70120F9E773B50D46FB
:1033700016461C4688B10C3000F013F878B10123D2
:103380000193E3B20093C4F30742C4F30723B1B23D
:10339000A8B2FFF74BFE02B070BD0520FBE701208D
:1033A000F9E778B103688B420BDC83688B4208DB5A
:1033B0004368934205DCC0689042B4BF00200120FE
:1033C0007047002070472DE9F04F85B090469DF87A
:1033D000382002920446002800F08180A1F12002EA
:1033E0005E2A7ED890F82820022A8DB21AD13A2976
:1033F0001AD020291AD0303DADB2228CAA4270D901
:10340000E26901924FF0000B1A465E4694F82510CF
:103410001FFA8BF399420BD8B6FA86F0400905B033
:10342000BDE8F08F203DE7E70A25E6E70B25E4E756
:1034300094F82230012B05D0022B1DD0019B53F8AC
:1034400025A002E0019B13F805A04FF0000994F8B5
:1034500024301FFA89F7BB4212D894F8243094F82C
:1034600027100B449F4229DB94F823301D44ADB252
:103470000BF1010B0132C9E7019B33F815A0E4E71A
:103480001AF0010F0FD008EB090120460392FFF755
:1034900051FF0128C3D8039A00B901364FEA5A0AEE
:1034A00009F10109D3E7029B002BF7D0636803926F
:1034B00008EB09012046FFF759FFEAE7029B5BB1E1
:1034C0006368039208EB07012046FFF74FFF0128CE
:1034D000A5D8039A00B901360137BFB2BDE7052070
:1034E0009DE702209BE708B520B11C30102219B9D6
:1034F00001F06EFD052002E001F05CFD002008BD3A
:103500007FB5094B6A4603F11006154618685968DD
:10351000144603C40833B3422246F7D12846FFF7C6
:10352000B5F8002004B070BD1864000013B5022384
:103530000024684600948DF804408DF80530FEF7AD
:1035400067FE204602B010BD70B5114B86B001AACF
:1035500003F11006154618685968144603C4083369
:10356000B3422246F7D11B8823800A4B0A481B88A6
:103570004FF6FF72934208BF4FF4B473ADF80A30B0
:10358000FDF72EFB2846FEF79FFB002006B070BD1E
:10359000286400000001E00F005A620207B5084BE2
:1035A000186801903F2301A88DF80430FEF7E8FB6E
:1035B0006420FEF71DF9002003B05DF804FB00BF96
:1035C0003A64000010B50C480C4C6FF00402A021C6
:1035D00012F0800FD3B21BBF03F00F03043BA318FC
:1035E0001B1802F101020CBF83F800131976332A6D
:1035F000EED1002010BD00BF00ED00E000E100E0D2
:1036000010B50446FEF7E8FB024B1C60FEF7E8FB32
:10361000002010BDA84C002010B5FEF7DDFB034BC9
:103620001C68FEF7DDFB204610BD00BFA84C002043
:1036300007B530B9CDE90012FFF7EEFFDDE9001262
:1036400030B1436823B1006803B05DF804EB18475C
:10365000232003B05DF804FB30B51C4685B058B993
:10366000CDE90012FFF7D8FFDDE9001204B903AC81
:1036700020B9232005B030BD03B903AC8568002D07
:10368000F7D023460068A847F4E790F82A300122D3
:103690003BB190F82E30022B03D180F82E20184633
:1036A00070471346FBE780F82410704790F8240019
:1036B000704790F82B007047002809DB430901226E
:1036C00000F01F0002FA00F06033024A42F82300C3
:1036D000704700BF00E100E0F8B590F82B300446D9
:1036E0000D4681B173B990F82C60FEF775FB01218E
:1036F0000546304600F006FC2846FEF771FB012324
:1037000084F82B30F8BD002BFCD090F82C70FEF71D
:1037100063FB29460646384600F0F4FB3046FEF7C8
:103720005FFB84F82B50EDE770B504460568FFF7A2
:1037300073FF844202D10020FFF762FF95F9280051
:10374000FFF7BAFF95F92830002B0DDB5A0901214C
:1037500003F01F0301FA03F32032144941F8223029
:10376000BFF34F8FBFF36F8F95F92900FFF7A4FFC9
:1037700095F92930002B0DDB5A09012103F01F03B5
:1037800001FA03F32032094941F82230BFF34F8F89
:10379000BFF36F8F0023C4E90033C4E90433A3608F
:1037A0002846EB68BDE87040184700BF00E100E024
:1037B0002DE9F047044690F824800D461646FEF7A2
:1037C00012FB94F82A30E3B1002384F82A30FEF784
:1037D00010FB94F82D90FEF7FFFA012107464846AA
:1037E00000F090FB3846FEF7FBFA2E44B8F1000FCC
:1037F00026D1AE4208D1636820460121BDE8F047DA
:103800001847FEF7F6FAF0E794F82630002BF0D0D0
:10381000236815F8011B204698470028E9D0BDE829
:10382000F08794F826305BB12B780A2B03D12368FC
:103830000D2120469847236815F8011B204698471C
:10384000AE42EED1D7E72DE9F7434FF00009044629
:1038500090461E46C3F800904F1E3368434505D27C
:10386000FEF7C1FAA269C2B9FEF7C3FA94F827308D
:103870005BB9112301220DF1070120468DF80730B5
:10388000FFF796FF012384F827303368002B0CBF25
:103890001B20002003B0BDE8F083E16922698A5C47
:1038A00007F8012F2569226A01359542A26908BFF0
:1038B0004D46013AA2612561FEF79BFAA3682046B6
:1038C0009847336801333360C7E708B5FFF770FFE7
:1038D000002008BDF8B51F46536806460C4615463D
:1038E000002B6BD09368002B6AD030220021204639
:1038F00001F06EFB6B68E361AB6823622B7B84F89D
:103900002430AB7B84F8253040F20113E384069B1E
:103910006360079BA360089B2760E3602B7884F8B3
:1039200028306B7884F82930264B7360264BB360BF
:10393000264B3361264B7361264BF360264B336273
:103940000127264B346084F82E70B361244BF36159
:103950009DF8283084F82D309DF8243084F82C30E0
:10396000002384F82B302046697B84F82A70FFF707
:10397000B3FE95F90100FFF79FFE95F90130002B8A
:1039800006DB5A0903F01F039F40164B43F82270D1
:1039900095F90000FFF790FE95F90030002B08DB49
:1039A0005909012203F01F0302FA03F30D4A42F8FA
:1039B00021303046FFF724FE0020F8BD2220FCE72E
:1039C0002120FAE7CB38000047380000A736000076
:1039D000AD360000293700008B360000D9360000D4
:1039E000B336000000E100E010B50446FEF7FBF935
:1039F000A269236A9A4203D2FEF7FBF9012010BDA7
:103A0000FEF7F7F90020FAE773B504460D46FEF716
:103A1000EAF994F8253006466BB1132D07D100233F
:103A200084F8263002B0BDE87040FEF7E2B9112DEF
:103A300001D10123F4E7A269236A9A4204D315480D
:103A40004FF4B271FDF7B6FB6369E269D554A26920
:103A500063690132A261226A01339342636104BF48
:103A6000002363613046FEF7C4F90423A26984F899
:103A70002E30236A9A420BD1132301220DF1070144
:103A800020468DF80730FFF793FE002384F8273097
:103A900002B070BD3E64000090F82A3070B5044654
:103AA000E3B9436823B90E4840F28711FDF782FB62
:103AB0000021636820469847012384F82A3094F84F
:103AC0002D60FEF789F900210546304600F01AFA0C
:103AD0002846FEF785F9022384F82E3070BD00BF1A
:103AE0003E640000026BD36C43F00403D364704760
:103AF000026B10B5044613695906FCD500231A461B
:103B000094F8391094F83800FEF7BEFF00231A46E7
:103B100094F83B1094F83A00FEF7B6FF94F8403062
:103B2000DA0707D5002394F83D1094F83C001A46B4
:103B3000FEF7AAFF94F840309B0707D5002394F8BE
:103B40003F1094F83E001A46FEF79EFF206B0021BE
:103B5000FFF700F9606B0021FDF7CCFB002010BDE2
:103B600008B5006BFFF71EFA002008BD036BDA6C86
:103B700019B142F00102DA64704722F00102DA64FE
:103B800001229A64704700002DE9F04186B01C467E
:103B9000524B0C9D0293524B01930126514B0093C3
:103BA000CDE90366504B90460A462946FFF792FE40
:103BB0000746002856D123682B6363686B63637ADA
:103BC00085F83930237A85F83830E37A85F83B3048
:103BD000A37A85F83A30637B85F83D30237B85F8FE
:103BE0003C30E37B85F83F30A37B85F83E303F488F
:103BF0003146FDF77FFB3E483146FDF77BFB617A9E
:103C0000207A33460422FEF73FFF33460222E17A50
:103C1000A07AFEF739FF60683146FDF76BFB88F844
:103C2000007041462068FFF7FFF82268536F43F0A9
:103C300003035367936F617C23F4F85323F01F034E
:103C40000B43217C43EA012303219367516785F8E5
:103C5000407098F81930202B2BD007D803B3102BC5
:103C600009D02327384606B0BDE8F081302BF8D1C3
:103C700085F8401002E085F840603E4600230222AD
:103C8000617B207BFEF700FF2368A27CDA675A6E17
:103C900042F004025A665A6F42F010025A675EB947
:103CA0002068C36C43F00403C3640521FFF752F896
:103CB000D8E7022385F84030E17BA07B0023042273
:103CC000FEF7E2FE2368E17CDA6F42EA0122DA675E
:103CD0005A6F42F020025A67E2E700BFF13A000053
:103CE000E53A00006D3B0000613B000040410500EB
:103CF00000350A00036B1B69190610B5044609D587
:103D0000FFF772FEA0B1206BFFF746F9014620468F
:103D1000FFF77AFE236B1A6CD2070FD501229A6443
:103D20001B699B060AD52046BDE81040FFF7B4BECC
:103D3000226BD36C23F00403D364EBE710BD0000C7
:103D4000034B1B78002B14BF01200220704700BFDB
:103D5000DC4C00200329F8B505460E4607D8174B62
:103D60005C5C032D19D8DFE805F0090F1215144823
:103D700040F2AD21FDF71EFA0024F2E744F0020400
:103D8000104B1F687FB9F8BD44F00804F8E744F011
:103D90002004F5E744F08004F2E7094840F2C2212C
:103DA000FDF708FAECE77B681A68144203D05B68F9
:103DB0003146284698473F68E4E700BFCB640000DF
:103DC00082640000D84C002038B5104D2B78ABB180
:103DD0000F4C23781BB100F000FB00232370002060
:103DE00000F0FCFA0B4C50B100F0FAFA00232078F6
:103DF0002B700121FFF7AEFF0123237038BD064B66
:103E000001221A70054B22781A70F7E7D54C002072
:103E1000D14C0020C84C0020D44C0020E44C0020A1
:103E200010B5FDF7D9FF064B1B7804461BB1BDE862
:103E30001040FDF7D5BFFFF7C7FF2046F7E700BFEB
:103E4000D04C002038B5134D2B78FF2B044605D1FC
:103E500060B1114840F21F31FDF7ACF92B782BB956
:103E600024B90D4840F22131FDF7A4F92B78002C3C
:103E700014BF0122FF2213442B700AD0074B1B787A
:103E8000012B06D9064B1B781BB9BDE83840FFF75C
:103E90009BBF38BDDC4C002082640000C84C002071
:103EA000D44C002070B5124EFDF796FF33780546CE
:103EB0008BB900F0C1FB044620B12846FDF790FF06
:103EC000204670BD00F0D2FC0A4B18600A48FCF78F
:103ED000B1FE0A4B1C6000F0E3F900F0C5FA084B94
:103EE00018600123284633700024FDF779FFE7E7C7
:103EF000D24C0020E04C0020D84C0020E84C0020A0
:103F0000CC4C00202DE9F341441EE3B2012B0D46B9
:103F100004D932484FF4B271FDF74CF9304E335D9D
:103F2000FF2B05D165B12D4840F26711FDF742F92D
:103F3000335D2BB925B9294840F26911FDF73AF9EB
:103F4000335D002D14BF0122FF22134433553AD0B4
:103F5000244E3278012A36D9FFF7F2FE01280446B2
:103F600034D8214FFDF738FF3B781BB31F4D2B781A
:103F70001BB901222A701E4A1370DFF8788098F866
:103F8000003033B1019000F028FA0023019888F83E
:103F90000030FDF725FF012000F020FAFDF71CFF9F
:103FA0002B782BB1019000F01BFA002301982B70A5
:103FB00000233B70FDF714FF3078A04203D0214668
:103FC000FFF7C8FE347002B0BDE8F081032AF3D1D8
:103FD0000228F1D100F05AFAEEE700BF8264000037
:103FE000DC4C0020C84C0020D54C0020D04C0020D8
:103FF000D44C0020D14C002068B5FDF7EDFE094BF4
:104000001B78012B064604D8FDF7EAFE002528465A
:1040100068BD054B1D6800F02BFA05443046FDF7DE
:10402000DFFEF4E7C84C0020E84C002007B5FDF7A0
:10403000D3FE0190FFF7C8FE019803B05DF804EBD2
:10404000FDF7CEBE054B1B68584300F57420044BAA
:1040500000F23F20B0FBF3F0704700BFE04C0020BF
:1040600040420F002DE9F04385B0FDF7B5FE044650
:10407000AFF30080FCF7B6FB002800F08980614DAB
:10408000614F2B7823B10020FFF7DCFE00232B705B
:10409000FFF756FE012811D009D90238C0B2012815
:1040A0007ED95A4840F20A31FDF784F806E02B78B1
:1040B00023B10020FFF7C6FE00232B70FFF740FE60
:1040C0000128064604D9524B1B780BB900F064F95D
:1040D000DFF85881DFF8589198F80000B04207D017
:1040E00099F8003013B93146FFF734FE88F80060C4
:1040F000012E0CD9464E33784BB9464B1B7823B969
:1041000000F06AF9444B01221A700123337098F8C9
:10411000000000F08DF999F800301BB13F4B1B787F
:1041200088F80030AFF300802046FDF759FEFDF718
:1041300053FE0446384600F0B9FAFCF757FB064632
:1041400000289ED1324F3B789BB189F80000DFF800
:10415000C89099F800301BB100F03FF989F8006071
:10416000002000F03BF9002842D000F039F900238C
:104170003B702B7823B10020FFF764FE00232B70E7
:1041800098F800000021FFF7E5FD002388F80030D3
:10419000AFF30080204605B0BDE8F043FDF720BE38
:1041A00003A9002000F01EFB002887D11C4B039AB6
:1041B0001B689A4204D80120FFF744FE01237CE7E4
:1041C000184B1E6800F054F9361804D50F4840F219
:1041D000F721FCF7EFFF03998E42ECD20023022275
:1041E000CDE90032891B104A384600F087FA65E7AE
:1041F000012000F01DF92046FDF7F2FDFDF7ECFD72
:104200000446ADE7DF4C0020AC4C00208264000087
:10421000D54C0020DE4C0020D14C0020E44C002086
:10422000CC4C0020E84C0020213E0000C84C00206F
:10423000D44C002010B5FDF7CFFD054B00221C78B3
:104240001A70FDF7CDFD00F0CFFB2043C0B210BDCA
:10425000D34C002073B5104E33788342044611D0FE
:1042600000238DF8043078B101A88DF805300B4D8E
:10427000FDF730FF1E204CB1FFF7E4FE2B68181A43
:104280002860347002B070BD0223EDE7FFF7DAFE5C
:104290002B681844F4E700BF4A100020FC4C0020B3
:1042A00073B5344C636ADA0003D533488C21FCF7CC
:1042B00081FF636A9B0003D52F488F21FCF77AFFAB
:1042C000002401A88DF80440FEF734F82046FFF7DB
:1042D000C1FF284AD2F8903003F00403A342274BD1
:1042E0000CBF214601211970D2F89030244CC3F341
:1042F0000033237005D04FF41670FFF7A3FE214B57
:1043000018602378204DEBB11120FDF781F9194B8E
:10431000D3F80021C2F3042202FB000292B15C6CCC
:104320001A4EC4F30B44002301341946501E04EB0B
:104330008404E4FB060100F07FFCFFF783FE2B689A
:1043400018442860124B1B680120C3F303239840D4
:10435000C0F1010000EB80006430FFF773FE2B68B2
:104360001844044B2860D3F890200A4B1A6002B01E
:1043700070BD00BF00400E40CF640000FA4C00202A
:10438000F84C0020F44C0020FC4C002040420F0070
:1043900000200440EC4C0020FDF736BF08B50B4B65
:1043A0001B7893B1022000F0C7FB70B100F04CFA0B
:1043B00058B1002201210220FDF7EAFA00F04AFA82
:1043C000034B1860034B01221A7008BDFA4C002001
:1043D000F04C0020F94C00207047704701207047D6
:1043E00038B50E4C0E4D23782BB92B781BB100F04D
:1043F00031FA0C4B1860FDF709FF2B786BB10A4AB4
:10440000D2F890301B07FBD500F024FA054B1B684F
:10441000C01A064B18600023237038BDF94C0020E9
:10442000FA4C0020F04C002000400E40F44C0020DC
:1044300002280AD003280BD001280CD1084A13699E
:1044400023F00403136130BF70470020FDF760BE06
:104450000020FDF795BE03484FF4B471FCF7AABEE7
:1044600000ED00E0CF6400004FF41670FFF7EABDE6
:10447000044B1B680BB103EBD303034A10681844C9
:10448000704700BFF44C0020FC4C0020084B45F660
:104490000E02D3F88011C3F88021064A126802F494
:1044A000A0721A66CA0744BF0022C3F88021704771
:1044B00000400E40EC4C002010B500F0E9FA0A4C28
:1044C0000A4B19682368C31A01B10BB9206010BDEB
:1044D0004A699A422EBFD21A9B1A00224A6128BF0B
:1044E00000238968F0E700BF044D0020184D00202C
:1044F000C38870B504460D463BB9FFF77DFD854284
:10450000064602D2FFF792FD35460F4965610B68FA
:10451000ABB90C60A36011E0AD1A9A6865611846EA
:104520002AB113465A69AA42F6D950B11A46846094
:104530001346A36013B15969491B596170BD00202E
:10454000F0E70C60F5E700BF184D002038B50F4BC1
:104550000F4D1C682B685B6902201C4400F0C6FAF2
:10456000204600F09BFA0B492A6800230B70D08884
:10457000800702D501230B7038BD9268002AFBD05A
:1045800050690344012BF2D9F6E700BF044D002027
:10459000184D00200C4D002070B516469DF81420D3
:1045A0000271049A0260C0E903360022BDF8183097
:1045B0008260C38004460D4600F06AFA3044A06170
:1045C0003DB9E368656113B121682046984796B10B
:1045D0003546FDF708FC0646FFF76EFF29462046E4
:1045E000FFF786FF054B1B68A34201D1FFF7AEFF23
:1045F0003046FDF7FEFB002070BD00BF184D0020C7
:104600000C490B6800227BB183420AD183687AB1DE
:10461000936083681BB15A6941690A445A6100205A
:1046200070471A469B68EEE70028EFD002207047DB
:104630000B60EEE7184D002070B5154EFDF7D3FB6B
:1046400034780546FCB9134B1C60134B1C60134BAC
:104650001C8000F0D7F9012000F048FA00F094FA2D
:104660000F4B0246186020B92846FDF7C2FB2320F5
:1046700070BD23460B4840F2E73100F0DDFA0A4BEB
:104680001860012333702846FDF7B3FB0020EFE7E5
:10469000004D0020184D0020044D00200E4D00203C
:1046A000144D002018FCFFFF084D00202DE9F041BB
:1046B0000546F8B1FDF797FB0F4F0646FFF7FCFEE6
:1046C0002846D7F80080FFF79BFF044628B1304604
:1046D000FDF78FFB2046BDE8F081A8453B6803D17C
:1046E00023B1FFF733FFF2E7002BF0D1022000F0F7
:1046F0000BFAECE72224EDE7184D002070B586B0E8
:10470000154605911E46044680B1FFF7CFFFBDF860
:104710002C3002939DF828300599CDE900630022E2
:104720002B462046FFF738FF06B070BD2220FBE77E
:10473000F0B50D4685B016461F46044680B1FFF71A
:10474000B5FFBDF82C3002939DF828302A46CDE9FC
:104750000073294633462046FFF71EFF05B0F0BD23
:104760002220FBE738B50C46054698B191B10023ED
:104770000B70FDF738FB084B1B6801210BB1227849
:104780001AB1FDF736FB002038BDAB4214BF9B6861
:104790002170F3E72220F7E7184D0020F0B587B02D
:1047A0001F4600230D4616468DF817300446A8B163
:1047B0000DF11701FFF7D6FF9DF8173083B9BDF84B
:1047C000343002939DF830302A46CDE900732946F3
:1047D00033462046FFF7E0FE07B0F0BD2220FBE79E
:1047E0000220F9E72DE9F04107468846FDF7FBFA7C
:1047F000134B1C680546002624B92846FDF7F9FA34
:104800001B2016E063691E44E388BB4215D10D4CA2
:1048100000F03EF92368C01AB0420CD200F038F91B
:1048200022683244121A2846C8F80020FDF7E1FA3F
:104830000020BDE8F0810022F5E7A468DCE700BFB6
:10484000184D0020044D0020014B1878704700BF20
:104850000C4D002038B5FDF7C6FA054600F018F9F2
:1048600004462846FDF7C5FA204638BD014B1868B6
:10487000704700BF144D00200C4B1B68834270B57D
:104880000D4611D30A4B40F2E7311E6800248C46D6
:104890002146E0FB06C14FF47A720023604600F027
:1048A000CBF92860204670BD2120FCE7084D002090
:1048B000144D0020C2072DE9F84F04460BD5464A97
:1048C000138801339BB21380FFF7F6FD434B1B683F
:1048D0000BB1FFF73BFEA3077CD5FDF784FA054635
:1048E000FFF7EAFD4FF0000A3C4FDFF8F89056461C
:1048F000D0463C680CB163698BB1394B0022012E64
:104900001A7003D1BAF1020F08BF1E70002C51D0EB
:10491000FFF71CFE2846BDE8F84FFDF76ABA2346AC
:104920001A792179914288BF1C469B6813B15A6954
:10493000002AF5D02846FDF75CFAD4F810A0BAF1A9
:10494000000F3BD000F0A4F8A269851AEB17AA4526
:1049500078EB030333DA23691344A361012223694B
:10496000D3B1CAB9EB17BAEB050563EB4303002BD0
:1049700004DA40F202414846FCF71CFCFDF733FA2A
:10498000294682462046FFF7B3FDA36922691344F6
:10499000A3615046FDF72DFAE368B4F806A001368E
:1049A00013B1216820469847FDF71DFA0546FFF729
:1049B00083FD9EE7022000F0A7F8ABE75546FDF720
:1049C00012FA83462046FFF71BFE5846FDF711FA00
:1049D0000022C4E7BDE8F88F0E4D0020184D0020DE
:1049E000104D00202265000010B5FDF7FCF9034BC7
:1049F0001C78FDF7FEF9204610BD00BF104D0020C9
:104A00000020704710B51E4B86B01868596803AA7D
:104A100003C2197AD3F8090011700024B3F80D20ED
:104A20000190DB7B1748ADF8082001218DF80A3092
:104A3000FCF760FC8DF80C40FFF7E2FF8DF81000EA
:104A400003A8FEF7BDF801A901208DF80440FEF788
:104A500085F80D4A536A23F4FF6323F0070353627A
:104A600040F2FF73136201209460FEF7A3F8074B36
:104A70004FF08042C3F880211A6006B010BD00BF1D
:104A800065650000A00914000020044000E100E07A
:104A9000014B9868704700BF00200440114A93689A
:104AA000516D9269520704D4CA1A032A01D88B4265
:104AB0000DD1C21A022A98BFD81C0A4BB0F1FF3F91
:104AC00038BF013858655A6A42F004025A62064AF1
:104AD000137833B103490B6D43F002030B650023D8
:104AE00013707047002004404B1000208207054AD5
:104AF00000F00103516A48BF43F004030B435362C3
:104B0000704700BF00200440820700F0010309D570
:104B1000074A0121117007490A6D22F0030243F090
:104B200004030A6503494A6A22EA03034B62704799
:104B30004B10002000200440064B01289B6904D044
:104B4000022805D1C3F38000704703F001007047CD
:104B5000002070470020044010B5FDF744F9094AD1
:104B600093690446590703F0010003F0070348BFA7
:104B700040F002001362FFF79DFE2046BDE81040A2
:104B8000FDF737B90020044008B50448FCF740FDA4
:104B90000346FFF735FF23FA00F008BDA009140013
:104BA00008B5FBF76FFDFBF7B7FDFBF7BEFDFBF7A5
:104BB000C5FDBDE80840FBF7C2BD08B5FBF7C0FD69
:104BC000FBF7BFFDFBF7BEFDBDE80840FBF7BBBD33
:104BD00010B50446FBF7ECFF4FF47A729042B0FB3D
:104BE000F2F105D23621BDE810400B48FCF7E2BADD
:104BF0000A4BB3FBF1F30A49884201D93C21F2E7A1
:104C000002FB04F0B0FBF3F0032804D9BDE8104028
:104C1000800800F00DB810BD7565000040420F001F
:104C2000E7CD9A3B000000000000000000000000FB
:104C3000013800D0FCE7704753B94AB9002908BFD2
:104C400000281CBF4FF0FF314FF0FF3000F074B967
:104C5000ADF1080C6DE904CE00F006F8DDF804E0D3
:104C6000DDE9022304B070472DE9F047089D0446B2
:104C70008E46002B4DD18A42944669D9B2FA82F20F
:104C800052B101FA02F3C2F1200120FA01F10CFA4B
:104C900002FC41EA030E94404FEA1C48210CBEFB83
:104CA000F8F61FFA8CF708FB16E341EA034306FB0C
:104CB00007F199420AD91CEB030306F1FF3080F09B
:104CC0001F81994240F21C81023E63445B1AA4B2E8
:104CD000B3FBF8F008FB103344EA034400FB07F78A
:104CE000A7420AD91CEB040400F1FF3380F00A81CB
:104CF000A74240F207816444023840EA0640E41BC0
:104D000000261DB1D4400023C5E900433146BDE86B
:104D1000F0878B4209D9002D00F0EF800026C5E90D
:104D2000000130463146BDE8F087B3FA83F6002E25
:104D30004AD18B4202D3824200F2F980841A61EB9D
:104D4000030301209E46002DE0D0C5E9004EDDE7BB
:104D500002B9FFDEB2FA82F2002A40F09280A1EBA3
:104D60000C014FEA1C471FFA8CFE0126200CB1FBF8
:104D7000F7F307FB131140EA01410EFB03F08842F1
:104D800008D91CEB010103F1FF3802D2884200F27E
:104D9000CB804346091AA4B2B1FBF7F007FB101110
:104DA00044EA01440EFB00FEA64508D91CEB0404AE
:104DB00000F1FF3102D2A64500F2BB800846A4EB09
:104DC0000E0440EA03409CE7C6F12007B34022FAF4
:104DD00007FC4CEA030C20FA07F401FA06F31C4323
:104DE000F9404FEA1C4900FA06F3B1FBF9F8200C30
:104DF0001FFA8CFE09FB181140EA014108FB0EF076
:104E0000884202FA06F20BD91CEB010108F1FF3AC5
:104E100080F08880884240F28580A8F102086144D1
:104E2000091AA4B2B1FBF9F009FB101144EA0141DF
:104E300000FB0EFE8E4508D91CEB010100F1FF348A
:104E40006CD28E456AD90238614440EA0840A0FB22
:104E50000294A1EB0E01A142C846A64656D353D0F8
:104E60005DB1B3EB080261EB0E0101FA07F722FA1C
:104E700006F3F1401F43C5E9007100263146BDE845
:104E8000F087C2F12003D8400CFA02FC21FA03F3A8
:104E9000914001434FEA1C471FFA8CFEB3FBF7F029
:104EA00007FB10360B0C43EA064300FB0EF69E424E
:104EB00004FA02F408D91CEB030300F1FF382FD2E7
:104EC0009E422DD9023863449B1B89B2B3FBF7F68F
:104ED00007FB163341EA034106FB0EF38B4208D968
:104EE0001CEB010106F1FF3816D28B4214D9023EA9
:104EF0006144C91A46EA004638E72E46284605E7C7
:104F00000646E3E61846F8E64B45A9D2B9EB020897
:104F100064EB0C0E0138A3E74646EAE7204694E727
:104F20004046D1E7D0467BE7023B614432E730465A
:104F300009E76444023842E7704700BF0A4600218F
:104F400000F046B808B5074B044613B10021AFF393
:104F50000080054B1868836A03B19847204600F02B
:104F6000D7FC00BF00000000B065000070B50D4D1B
:104F70000D4C641BA4100026A64209D10B4D0C4C0D
:104F800000F0C8FC641BA4100026A64205D170BD29
:104F900055F8043B98470136EEE755F8043B98472F
:104FA0000136F2E7C8100020C8100020C810002009
:104FB000CC1000200A44914200F1FF3300D1704729
:104FC00010B511F8014B03F8014F9142F9D110BD12
:104FD00002440346934200D1704703F8011BF9E7EE
:104FE0000EB400B59CB01DAB029006906FF000416E
:104FF000094807910491094953F8042B0591006869
:10500000019302A900F0ECF8029B00221A701CB078
:105010005DF804EB03B070474C1000200802FFFF5E
:10502000034613F8012B002AFBD1181A01387047E8
:1050300000B59BB0009104916FF000410591029181
:1050400005490391694600F0CBF8009B00221A70D5
:105050001BB05DF804FB00BF0802FFFF13460A46C1
:10506000014602480068FFF7E3BF00BF4C10002074
:1050700070477047F8B5CD1C25F0030508350C2D99
:1050800038BF0C25002D064601DBA94203D90C23AD
:1050900033600020F8BD00F0B5FB21490A681446D2
:1050A0009CB9204F3B6823B92146304600F02CFBC9
:1050B00038602946304600F027FB431C23D10C23DF
:1050C0003360304600F0A4FBE3E723685B1B17D492
:1050D0000B2B03D923601C44256004E06368A242C3
:1050E0000CBF0B605360304600F092FB04F10B00E4
:1050F000231D20F00700C21ACCD01B1AA350C9E709
:1051000022466468CCE7C41C24F00304A042E3D028
:10511000211A304600F0F8FA0130DDD1CFE700BFA8
:10512000204D0020244D00202DE9F0478E689E423E
:1051300082460C4690461F4638D88A8912F4906FF2
:1051400032D025680969A5EB0109656905EB4505BC
:1051500005EBD57501334B446D109D4238BF1D469C
:10516000530531D52946FFF785FF064650B90C2374
:10517000CAF80030A38943F04003A3814FF0FF3009
:10518000BDE8F08721694A46FFF714FFA38923F49D
:10519000906343F08003A381266165614E44A5EBD3
:1051A00009052660A5603E46BE4200D93E462068FD
:1051B0003246414600F00CFBA3689B1BA3602368AA
:1051C000334423600020DBE72A4600F073FB0646E9
:1051D0000028E1D12169504600F020FBC7E700001C
:1051E0002DE9F04F98468B891B069DB007460D466A
:1051F00014460ED50B6963B94021FFF73BFF2860C9
:10520000286120B90C233B604FF0FF30D1E04023F0
:105210006B610023099320238DF82930CDF80C8091
:105220003023DFF8A8818DF82A304FF0010923469A
:105230009A4613F8012B0AB1252AF9D1BAEB040BCF
:105240000BD05B46224629463846FFF76DFF0130FA
:1052500000F0AA80099A5A4409929AF80030002B6B
:1052600000F0A28000234FF0FF32CDE905230AF1C0
:10527000010A049307938DF853301A93544605227C
:1052800014F8011B514800F053FA049AD8B9D0061B
:1052900044BF20238DF85330110744BF2B238DF8D2
:1052A00053309AF800302A2B15D0079A5446002024
:1052B0004FF00A0C214611F8013B303B092B4ED927
:1052C000B0B1079214E0A0EB080309FA03F313430B
:1052D0000493A246D2E7039B191D1B680391002B80
:1052E000BBBF5B4242F0020207930793B8BF049230
:1052F00023782E2B0CD163782A2B35D1039B1A1DD2
:105300001B680392002BB8BF4FF0FF3302340593A4
:10531000DFF8C8A021780322504600F009FA40B116
:105320004023A0EB0A0003FA00F0049B034301347E
:10533000049314F8011B26488DF82810062200F06B
:10534000F7F9002838D0234B1BBB039B073323F00E
:10535000070308330393099B3344099367E70CFB66
:1053600002320C460120A5E70023013405931946BB
:105370004FF00A0C204610F8012B303A092A03D9C5
:10538000002BC5D00591C3E70CFB01210446012386
:10539000F0E703AB00932A460F4B04A93846AFF35E
:1053A0000080421C0646D6D1AB895B063FF52CAF88
:1053B00009981DB0BDE8F08F03AB00932A46064B59
:1053C00004A9384600F07AF8EBE700BF1466000045
:1053D0001E66000000000000295100001A6600004F
:1053E0002DE9F047164699468A680B69DDF820805A
:1053F0009342B8BF1346336091F8432007460C46EA
:105400000AB1013333602368990642BF336802331F
:105410003360256815F0060506D104F1190AE36822
:1054200032689B1AAB4226DC94F84320131E226894
:1054300018BF012392062BD404F143024946384693
:10544000C04701301ED02368E568326803F00603C8
:10545000042B08BFAD1AA36822690CBF25EAE575C5
:1054600000259342C4BF9B1AED1800261A34B5429A
:105470001AD1002008E00123524649463846C04769
:10548000013003D14FF0FF30BDE8F0870135C6E7AA
:10549000E1185A1C302081F84300224494F845104A
:1054A00082F843100233C7E70123224649463846B3
:1054B000C0470130E6D00136D9E700002DE9FF47AB
:1054C0000F7E0C9D782F914680460C469A4601F13E
:1054D000430207D8622F0AD8002F00F0D880582F37
:1054E00000F0A38004F1420584F842703AE0A7F18D
:1054F0006303152BF6D801A151F823F05555000090
:1055000069550000E5540000E5540000E554000032
:10551000E554000069550000E5540000E554000022
:10552000E5540000E5540000755600009955000050
:1055300057560000E5540000E5540000975600005F
:10554000E554000099550000E5540000E5540000C2
:105550005F5600002B681A1D1B682A6004F1420583
:1055600084F842300123A3E020682968060601F18F
:1055700004030AD50E682B60002E03DA2D23764231
:1055800084F843305E480A2319E00E682B6010F05F
:10559000400F18BF36B2EFE72B682068191D29604D
:1055A000010601D51E6802E04606FBD51E88544858
:1055B0006F2F0CBF08230A23002184F8431065686D
:1055C000A560002DA2BF216821F0040121600EB961
:1055D000002D4DD01546B6FBF3F103FB1167C75DF7
:1055E00005F8017D3746BB420E46F4D9082B0BD196
:1055F0002368DE0708D5236961689942DEBF30233E
:1056000005F8013C05F1FF35521B2261CDF800A0E1
:105610004B4603AA21464046FFF7E2FE01304CD13B
:105620004FF0FF3004B0BDE8F087354881F8457091
:105630002968236851F8046B29601D0614D5DF071B
:1056400044BF43F0200323601EB9236823F02003E6
:1056500023601023B0E7236843F0200323607823FE
:10566000284884F84530E3E7590648BFB6B2E6E774
:105670001546BBE72B6826686169181D286035064A
:105680001B6801D5196002E07006FBD51980002364
:1056900023611546BAE72B681A1D2A601D686268E7
:1056A0000021284600F044F808B1401B60606368A0
:1056B0002361002384F84330A8E723692A4649463A
:1056C0004046D0470130ABD023689B0713D4E06835
:1056D000039B9842B8BF1846A4E7012332464946C7
:1056E0004046D04701309BD00135E36803995B1AEF
:1056F000AB42F2DCEBE7002504F11906F5E700BF49
:10570000256600003666000038B5064D00230446C5
:1057100008462B60FBF792FA431C02D12B6803B1B9
:10572000236038BD284D002000000000000000006C
:1057300001F0FF01102A2BDB10F0070F08D010F842
:10574000013B013A8B422DD010F0070F42B3F6D146
:10575000F0B441EA012141EA014122F007047FF05F
:1057600000070023F0E80256083C85EA010586EAB6
:10577000010685FA47F5A3FA87F586FA47F6A5FAF2
:1057800087F68EB9EED1F0BC01F0FF0102F00702FE
:1057900032B110F8013B013A83EA010313B1F8D1A9
:1057A0000020704701387047002D06BF354603388A
:1057B000073815F0010F07D1013015F4807F02BFC3
:1057C000013015F4C03F0130F0BC0138704700BF14
:1057D000884210B501EB020402D98442234607D85F
:1057E000431EA14208D011F8012B03F8012FF8E75E
:1057F000024401468A4200D110BD13F8014D02F85F
:10580000014DF7E70148FFF733BC00BF1C4D0020F6
:105810000148FFF72EBC00BF1C4D002037B5002902
:1058200044D051F8043C0190002BA1F10404B8BF0E
:10583000E418FFF7E7FF1E4A0198136833B9636065
:10584000146003B0BDE83040FFF7E2BFA34208D9BF
:10585000256861198B4201BF19685B68491921608D
:10586000EDE71A465B680BB1A342FAD911685518E7
:10587000A5420BD1246821445418A3421160E0D101
:105880001C685B68536021441160DAE702D90C237D
:105890000360D6E7256861198B4204BF19685B680D
:1058A000636004BF491921605460CAE703B030BD8A
:1058B000204D0020F8B5074614460E4621B9BDE834
:1058C000F8401146FFF7D6BB22B9FFF7A7FF2546E0
:1058D0002846F8BD00F014F8A0420FD22146384601
:1058E000FFF7C8FB05460028F2D031462246FFF7F5
:1058F00061FB31463846FFF791FFE9E73546E7E7B8
:1059000051F8043C181F002BBCBF0B58C01870473F
:10591000FEE700BFF8B500BFF8BC08BC9E46704764
:10592000F8B500BFF8BC08BC9E46704700000000F8
:105930005FF800F0B11000206E756D626572206F27
:105940006620636C69636B733A2025640A004254D5
:105950004E302077617320636C69636B656420252A
:10596000642074696D657320696E206C61737420A6
:105970003130207365636F6E6473002E2E2F6D7946
:105980005F7072696E74665F6C69622E63002E2EA2
:105990002F73657269616C5F696F5F65666D333225
:1059A000706731322E630000050000000000000027
:1059B00000C201000005000000100000000000000F
:1059C00000000000282900005831002000100000CD
:1059D000000100002E2E2F6175746F67656E2F73A6
:1059E0006C5F696F73747265616D5F696E69745F16
:1059F00075736172745F696E7374616E6365732E23
:105A000063000000050000000000000000C201006B
:105A10000005000000100000000000000000000071
:105A200028290000004200202000000000010000A2
:105A3000081000201D0D0000930D0000E50D000072
:105A4000F70D00008D0D0000101000201D0D00004E
:105A5000930D0000E50D0000F70D00008D0D000016
:105A6000181000202D0F0000610F0000730F0000C0
:105A7000850F000005100000050000000000000078
:105A800040420F000501000000000000000000007F
:105A9000000000008000800001010000E0C810004C
:105AA0003C060200433A5C55736572735C79757607
:105AB000616C5C53696D706C69636974795374755A
:105AC00064696F5C76355F776F726B737061636565
:105AD0005C73696D706C655F627574746F6E5F6224
