:10000000001000208D090000890900008909000006
:100010008909000089090000890900008909000098
:100020008909000089090000890900008909000088
:100030008909000089090000890900008909000078
:100040008909000089090000890900008909000068
:100050008909000089090000890900008909000058
:100060008909000089090000BD100000890900000D
:100070008909000089090000890900008909000038
:100080008909000089090000D910000089090000D1
:100090008909000089090000890900008909000018
:1000A0008909000089090000890900008909000008
:1000B0008909000089090000E54000008909000065
:1000C00089090000890900008909000089090000E8
:1000D00089090000890900008909000089090000D8
:1000E00089090000890900008909000089090000C8
:1000F00089090000890900008909000089090000B8
:1001000089090000890900008909000010B5054C23
:10011000237833B9044B13B10448AFF300800123B3
:10012000237010BDEC100020000000003C5A0000BD
:1001300008B5034B1BB103490348AFF3008008BD6A
:1001400000000000F01000203C5A0000A3F5803AA7
:10015000704700BF174B002B08BF134B9D46FFF79E
:10016000F5FF00218B460F461348144A121A04F07B
:10017000F9F90E4B002B00D098470D4B002B00D007
:1001800098470020002104000D000D48002802D0EF
:100190000C48AFF3008004F099F92000290000F02A
:1001A0001DF904F07FF900BF000008000000000006
:1001B0000000000000100020EC100020EC2A0020BD
:1001C000000000000000000000F062B800F0C4B8B9
:1001D000044B054A186000231360044A1360044A64
:1001E000136070471C11002018110020101100200E
:1001F00014110020094B1B6823B9094A1368013305
:1002000013607047012B02D0022B02D07047054AC1
:10021000F4E7054B01221A70044AEFE71C11002095
:1002200018110020101100203C1100201411002092
:100230001FB54FF4FA7003A903F0E8FD40B901239C
:10024000CDE90003044A03990346044803F070FD16
:1002500005B05DF804FB00BFF5010000201100208F
:10026000084B1B68132B0ADC074B1B68132B06DC9F
:10027000064B18681328D4BF0020012070470120C6
:10028000704700BF18110020101100201411002029
:1002900008B500F0C3F80020FFF79AFF00F0AAF8B5
:1002A000BDE80840014800F045B900BF584E0000C5
:1002B00010B5044600F01AFC01280AD1054B9C42F7
:1002C00004BF054B1860054B9C4202BF044B012242
:1002D0001A6010BDC04E000008110020D84E00006A
:1002E0000C11002010B50A4C216801290FD1022001
:1002F000FFF76EFF074B1970FFF79AFF00F07AF8CF
:10030000054B0648196800F015F90023236010BD5D
:100310000C1100203C110020141100208E4E000012
:1003200038B50B4D2C68012C10D100F063F800F0AB
:1003300083FB0146074800F0FDF8002320462B60B0
:10034000FFF746FFBDE83840FFF772BF38BD00BF7A
:10035000081100209F4E000038B5FFF781FF48B11B
:1003600000F048F8164800F0E5F80020FFF730FFED
:10037000FFF75EFF134C2378ABB1134B1B68022BC6
:1003800011D1124D12482B68DB0712D400F01FFD6B
:10039000104800F01FFD00F02DF829680E4800F00D
:1003A000C9F800232370FFF7BBFFBDE83840FFF713
:1003B00099BF00F00FFD074800F009FDEBE700BF13
:1003C000584E00003C1100201C1100201411002088
:1003D000F04E0000084F00008E4E000008B503F0FC
:1003E000A5FEFFF7F1FE03F0AEFEFFF7EFFE03F010
:1003F0002FF9F8E708B5064802F0DAFD054A0023B0
:100400001360054A1360BDE8084002F087BD00BFD5
:1004100044210020782100207421002010B500F034
:100420005FF918B11948282100F064FE002002F09D
:100430004BFD18B115482C2100F05CFE144802F069
:100440000BFE18B11148302100F054FE104C6FF033
:100450007F4200232046C4E9012302F0A9FD204683
:100460000C4902F0FCFE94F8262094F82530134441
:10047000094A136094F8272094F824301344074A5B
:10048000BDE810401360FFF7B5BF00BFA94E0000E4
:10049000442100204852000070210020402100200B
:1004A0002DE9F7431E4C1F4D07468846DFF8809024
:1004B0000026384604F05EF8B04204D803B0BDE828
:1004C000F04302F02BBDB95D0A2906D12268D9F8A4
:1004D00000301344236000232B6001232A6800931B
:1004E0001148236802F02BFE104A2B68126813444F
:1004F000782B2B6006DD2368D9F800201344236095
:1005000000232B602368782B07DDB8F1000F04D09F
:10051000FFF770FF4FF00008C8E70136C9E700BFDA
:100520007821002074210020442100204021002057
:10053000702100200FB413B504AB4FF4805153F871
:10054000044B0A48019303F0A9FF019A074821468A
:1005500004F02EF8002803DB04480121FFF7A0FF78
:1005600002B0BDE8104004B0704700BF3D1100204C
:100570007047000008B50421112001F03BFA09483A
:10058000012100F057FE0848022101F033FA074824
:10059000022101F02FFA0648022101F02BFA002077
:1005A00008BD00BF30253E0002001E0003002000F1
:1005B0000500240008B5204B01225A641F4BD3F8D4
:1005C000FC201F4B120E12D14AF6E851C3F89011CD
:1005D000D3F8981141F00401C3F89811C3F89021A1
:1005E000D3F8642142F40052C3F8642101E0012AE7
:1005F000F6D0144A136A23F4441343F488131362A5
:10060000A2F58052D2F8A43143F4F843C2F8A431E1
:1006100002F094FE00F07AF802F02EFE02F050FE96
:1006200002F078FEFFF7A6FF02F03CFE00F062F851
:10063000BDE8084002F094BF00000E400081E00FCA
:1006400000300E4000400E4008B500F037FB00F0CF
:100650000FFD00F029F8BDE8084000F033B808B5F8
:1006600003F0B4FABDE8084002F0B2BE704770472C
:1006700070477047704770470120704701207047EE
:1006800008B5FFF7F9FF08BD10B503F0C5F804463B
:10069000FFF7F4FF042804D0022808BF01242046F5
:1006A00010BD0024FBE7000008B5044800F018FA6C
:1006B000BDE80840024800F013BA00BFC04E000079
:1006C000D84E000008B5044800F07EFBBDE80840A5
:1006D000024800F079BB00BFF04E0000084F000058
:1006E00008B5042201230F21032002F07BF900202A
:1006F00008BD000008B50448012100F09BFDBDE8DD
:100700000840FFF735BF00BF00350A00014801214E
:1007100000F090BD00350A002DE9F0411A4E044664
:10072000884617460FCE86B06D460FC596E8030083
:1007300085E8030015482568012100F07BFD60680D
:10074000012100F077FD617B207B0023042202F071
:1007500049F9617A207A0023042202F043F92846FD
:100760006946CDF80880ADF8107002F07DFA237C60
:10077000A27B1B0643EA0223AB6700200A236B67B8
:1007800006B0BDE8F08100BF204F000000350A0030
:1007900070B506680C468D18AC4201D1002070BDC2
:1007A00014F8011B304602F0B9FAF5E70268136944
:1007B0009B06FCD57047000013B5044603F020FBF0
:1007C000247B00230122CDE900326400034AB0FB00
:1007D000F4F1034803F076FA02B010BDE50700001B
:1007E0007C210020024B4FF40052C3F8A820704730
:1007F00000A0004073B50F4B0F4E4FF48045C3F877
:100800009C500446407B03F0A9FC042302220DF116
:1008100006013046ADF80630FFF7BAFF3046FFF765
:10082000C5FFA07B03F09AFC044B0020C3F89C504A
:1008300002B070BD00A000462010002000A00044BF
:1008400038B5044601211248124D00F0F3FCA168AE
:1008500011480022FFF760FF002304220E2103202D
:1008600002F0C0F8002304220D21032002F0BAF8A0
:1008700094E80F0085E80F00084B012220461A700B
:10088000FFF79AFF2046FFF7B5FF002038BD00BFF5
:1008900000350A009C210020201000209821002013
:1008A0002DE9F74F0688DFF8A4B0984603795E4338
:1008B000254B14464FF48042C3F89C200134A4B267
:1008C0000546407B0F4603F049FC230243F0010339
:1008D0001E48ADF8063002220DF106010134FFF783
:1008E00057FF2402F610A4B24FF0000908F1FF3AB6
:1008F000C1450ED11548FFF759FFA87B03F02EFC28
:10090000134B4FF480420020C3F89C2003B0BDE895
:10091000F08F394632465846FFF73AFFCA4514BFB2
:1009200044F0FF034FF6FF7302220DF10601584613
:1009300004F58074ADF806303744FFF729FF09F15C
:100940000109A4B2D4E700BF00A000462010002097
:1009500000A00044034B04481B78002B08BF002074
:10096000704700BF982100209C2100201FB5054B37
:100970000FCB6C4684E80F002046FFF761FF04B000
:1009800010BD00BF384F0000FEE7000008B500F0C2
:1009900069F8064B0649074A8B4201D3FFF7DAFB99
:1009A00052F8040B43F8040BF6E700BF00100020D8
:1009B000EC100020445A000000487047005A6202C0
:1009C000104AD2F8943003F00703023B032B13D8EC
:1009D000DFE803F00C14020E0B4B1B68D2F8000189
:1009E000C0F304200130B3FBF0F07047074BF4E78D
:1009F000074B1B685B08F1E7054BEEE74FF400433C
:100A0000ECE700BF00400E404010002038100020EE
:100A10003C10002008B5FFF7D3FF054BD3F8083191
:100A2000C3F308230133B0FBF3F0024B186008BD99
:100A300000400E4034100020014B1868704700BF82
:100A400038100020054B1860054BD3F8943003F0A4
:100A50000703022B01D1FFF7DDBF704738100020DC
:100A600000400E40044B054A9A60D3F8882042F4B7
:100A70007002C3F88820704700ED00E0000000001D
:100A80004FF4004070474FF47A707047014B18687C
:100A9000704700BF40100020002303607047000033
:100AA00038B504460D4601B118B90448382100F0A4
:100AB00021FB23682B60256038BD00BF484F000034
:100AC00005490A681318054883428CBF4FF0FF326E
:100AD0000B601046704700BF441000200000042047
:100AE00043680BB1006818472220704743690BB177
:100AF00000681847FF20704738B50D46044620B3FC
:100B0000012825D0022826D0032827D004280ED07B
:100B1000052826D0831F012B09D9082824D00928AD
:100B200024D00A2803D10723EB40DB0704D4114863
:100B300040F2B53100F0DEFA30200F494443214441
:100B400005EBC105AD00286838BD40F2FF33EBE787
:100B50004FF6C073E8E740F6FF73E5E74FF47F43D5
:100B6000E2E74FF6FF73DFE70F23DDE74FF4404383
:100B7000DAE700BF7A4F00001CA01002114B197871
:100B8000114B70B500241E46E2B2914200D870BDF0
:100B900053F8042B15686A79824210D12A78022A08
:100BA0000DD001462879FFF7A7FFB0FA80F0400981
:100BB000287056F82400BDE87040FFF779BB013477
:100BC000E2E700BFBC4E00001010002013B5044641
:100BD0000121124800F02EFB0023617920790122C7
:100BE00001F000FF61792079FFF786FFA379B0FA61
:100BF00080F04009022B20700DD100F039FA08492D
:100C0000607900F04DFA627920790123CDE9003353
:100C1000114601F049FE002002B010BD00350A0067
:100C20007D0B00000078704710B50378022B044656
:100C300016D041790079FFF75FFFA279012A0346B8
:100C400015D1003B608818BF012343EA400363F0DD
:100C50003F039BB24FF6E0718B4202D1227063805A
:100C600010BD4FF6DF729342F9D10022F6E7002A59
:100C7000F6D1B0FA80F35B092370F1E70278022A1B
:100C800003D100224280FFF7A1BF704713B503785C
:100C9000022B044610D08379022B0BD1407900211E
:100CA00000F0FEF9627920790023CDE90033114686
:100CB00001F0FAFD0223237002B010BD08B52248EE
:100CC000012100F0B7FA012304220221052001F0DE
:100CD00089FE002001F0D2FD1C4B0122C3F8102830
:100CE0001146042000F0F4FD194800F031FC194BC6
:100CF000D3F8F02042F00102C3F8F020D3F8FC2032
:100D000042F08072C3F8FC20A3F55D43124A1A60DA
:100D100000F5D520114B00F2FC40B0FBF3F0104B76
:100D2000013802221861C3F8F0204FF48072C3F832
:100D300004234FF060430B4AC3F8B02F0A4AC3F8AC
:100D4000802E002008BD00BF00350A00008014423C
:100D500006000E0000ED00E0FF030040F8590D0012
:100D6000000004E055CEACC5090001004FF0604220
:100D70000123D2F8001E03FA00F00843C2F8000E67
:100D8000002070474FF0604330B5D3F8802ED20773
:100D900015D501240B4D8440D5F8FC2042F080721B
:100DA000C5F8FC20D3F8002E2243C3F8002E53F8D8
:100DB0002020002AF0D003F82010002030BD1120A0
:100DC000FCE700BF00ED00E0D0E9000318478368AE
:100DD00000681847C36800681847000038B50D461A
:100DE000044618B3012824D0022825D0032826D091
:100DF00004280ED0052825D0831F012B09D90828E7
:100E000023D0092823D00A2803D10723EB40DB078E
:100E100004D410484FF4797100F06CF930200E4B77
:100E20000121444301FA05F51D5138BD40F2FF335D
:100E3000ECE74FF6C073E9E740F6FF73E6E74FF4DF
:100E40007F43E3E74FF6FF73E0E70F23DEE74FF45E
:100E50004043DBE77A4F00000CA0004438B50D4654
:100E6000044618B3012824D0022825D0032826D010
:100E700004280ED0052825D0831F012B09D9082866
:100E800023D0092823D00A2803D10723EB40DB070E
:100E900004D4104840F2134100F02CF930200E4BDE
:100EA0000121444301FA05F51D5138BD40F2FF33DD
:100EB000ECE74FF6C073E9E740F6FF73E6E74FF45F
:100EC0007F43E3E74FF6FF73E0E70F23DEE74FF4DE
:100ED0004043DBE77A4F00000CA0004610B501212B
:100EE0000446094800F0A6F90848012100F0A2F9DB
:100EF000A37820786178B3FA83F35B09042201F0C8
:100F000071FD002010BD00BF4041050000350A0002
:100F10000346007859789B780BB9FFF75FBFFFF75E
:100F20009DBF0346007859789B780BB9FFF796BFB1
:100F3000FFF754BF38B5047845782CB3012C26D080
:100F4000022C27D0032C28D0042C0ED0052C27D01F
:100F5000A31F012B09D9082C25D0092C25D00A2C38
:100F600003D10723EB40DB0704D4114840F22E41A4
:100F700000F0C0F83022544304F18044012304F50A
:100F80002044AB40A36138BD40F2FF33EAE74FF69F
:100F9000C073E7E740F6FF73E4E74FF47F43E1E710
:100FA0004FF6FF73DEE70F23DCE74FF44043D9E74A
:100FB0007A4F000070B504784578064654B3012C8A
:100FC0002BD0022C2CD0032C2DD0042C0ED0052C91
:100FD0002CD0A31F012B09D9082C2AD0092C2AD0E8
:100FE0000A2C03D10723EB40DB0704D4134840F25B
:100FF000FE3100F07FF830235C43114B234405EBB6
:10100000C305AD00B3782868C0B213B9B0FA80F058
:10101000400970BD40F2FF33E5E74FF6C073E2E7E9
:1010200040F6FF73DFE74FF47F43DCE74FF6FF73D3
:10103000D9E70F23D7E74FF44043D4E77A4F0000B6
:101040000CA0100270B5094E0446012504B970BD0C
:1010500094FAA4F0B0FA80F005FA00F324EA03044D
:1010600056F82030002BF1D09847EFE7AC21002054
:1010700008B5122000F060FE28B1084B4FF4802222
:10108000C3F880211A600A2000F056FE28B1034BF5
:101090004FF48062C3F880211A6008BD00E100E0CF
:1010A00038B504460D4600F03EFE034B43F824508D
:1010B000BDE8384000F03DBEAC210020054BD3F820
:1010C0002804D3F81C24104000F05530C3F8240441
:1010D000FFF7B8BF00A00040054BD3F82804D3F8B1
:1010E0001C24104000F0AA30C3F82404FFF7AABF64
:1010F00000A00040FEE700000C4B984210D90C4BBA
:10110000984210D9022201230A490B640A49D1F8F6
:10111000003123F0807343EA0263C1F80031704765
:1011200000221346F0E70122FBE700BF0048E80178
:101130000090D0030000C84300400E4038B5114B6A
:101140005B68114B00221C46C9B21D798D4202D149
:101150001D68854212D20132052A03F10803F4D139
:101160000A4841F23A41FFF7C5FF032205494B689F
:1011700023F0407343EA02634B6038BD04EBC202C4
:101180005279F3E700000E40BC500000EC4F000025
:101190001F2810B5044604D9034840F22F11FFF769
:1011A000A9FF0120A04010BD1B50000038B5074C1E
:1011B00041F67133256C2364FFF7FEFB0021FFF736
:1011C000BDFF0DB10023236438BD00BF00000E40F9
:1011D000044BDB6B5B0604D4034AD2F8C830002B07
:1011E000FBD1704700300E400000C64308B5FFF742
:1011F000EFFF024B5868C0F3014008BD00300E40BD
:10120000044BD3F84421D20703D4D3F84021104231
:10121000FBD1704700400E4038B5054C41F67133A4
:10122000256C2364FFF78AFF0DB10023236438BDCA
:1012300000000E4038B5C0F30323013B092B24D82E
:10124000DFE803F02A2D2323051619231C20154C53
:101250000023C0F3043513B11846FFF7D1FF04F1A2
:10126000424404F5801405EBC404A400216038BD99
:101270000D4C0123EDE70D4C1023EAE70C4C4FF425
:101280008033E6E70B4C0023E3E7BDE838400A482B
:1012900041F6D711FFF72EBF084C0023D9E7084CC1
:1012A0000023D6E7B0400E40E0400E40E8400E403C
:1012B000F0400E4050410E40EC4F000000400E4008
:1012C000C0400E4008B5C0F30313013B092B60D8A2
:1012D000DFE803F0050B0F195F5F1F233C532E4B14
:1012E000D3F80001C0F3042008BD2B4BD3F8140140
:1012F000F8E7294BD3F80001C0F300600130FFF795
:1013000047FF0138F0E7244BD3F80C01C0F3082065
:10131000EAE7214BD3F80801F8E7204B984209D0BF
:101320001F4B98420CD041F67B311E48FFF7E2FE7E
:101330000020D9E7184BD3F8200100F00F00DEE7BA
:10134000154BD3F82001C0F30110D8E7164B984293
:1013500008D003F5B01303F58053984206D041F648
:101360009F31E2E70C4BD3F82801ECE70A4BD3F8A6
:101370002801C0F301200430C1E70C4B984205D18D
:10138000054BD3F8300100F00300ADE741F6AE3174
:10139000CBE741F6D331C8E700400E408006160087
:1013A00080162E00EC4F000090171A00A0091400C0
:1013B00008B5FFF787FF013008BD000000F00F00FF
:1013C000013808B5072844D8DFE800F0040F1943B6
:1013D000232D4335264BD3F8943003F00703023B0B
:1013E000052B3DD8234AD05C08BD214BD3F8803073
:1013F00003F00703013B032B34D81F4AF3E71C4BD0
:10140000D3F8843003F00703013B032B2AD81B4A8F
:10141000E9E7174BD3F8883003F00703013B032BB0
:1014200020D8174ADFE7124B1B6F13F0010F0CBFD8
:1014300007200920D8E70E4BD3F85C3103F03003C6
:10144000202B11D0302B11D0102B14BF01200720DE
:10145000CAE70C4841F62771FFF74CFE0020C3E7AE
:101460000520C1E70120BFE70420BDE70820BBE756
:1014700000400E408F500000955000009950000031
:1014800095500000EC4F000038B52C4B98420546B3
:101490000AD02B4B984207D02A4B984204D02A48B6
:1014A00041F23A51FFF726FE2846FFF787FF234B0C
:1014B0009D42044611D0224B9D4212D0214B9D42A9
:1014C00013D1224BD3F8804004F00704042C2DD80C
:1014D000DFE804F02A11151D19001C4BD3F88440D5
:1014E000F2E71A4BD3F88840EEE7174841F269510A
:1014F000FFF700FEEAE7BDE83840FFF7C1BABDE8F4
:101500003840FFF7C3BABDE83840FFF7BCBAFFF771
:1015100057FA0E4B0446D3F80001C0F300600130C7
:10152000FFF736FEB4FBF0F4204638BD064841F222
:10153000BB51FFF7DFFD0024F6E700BF03002000EA
:101540000500240002001E00EC4F000000400E4089
:1015500038B500F47813B3F5B01F05467FD02ED808
:10156000B3F5402F69D011D8B3F5802F54D006D8E9
:1015700043B1B3F5003F5AD041F607311AE0B3F555
:10158000202FF9D1BDE83840FFF71ABAB3F5801F14
:1015900000F0A280B3F5A01F57D0B3F5602FEBD1B8
:1015A0005B48FFF70BFF072800F096800928E9D079
:1015B00041F2FC215748FFF79DFD002036E0B3F5CE
:1015C000381F5AD013D8B3F5001F5FD00AD8B3F52F
:1015D000D01F5DD0B3F5F01FCED14F48BDE83840E5
:1015E000FFF752BFB3F5101FC6D14C48F6E7B3F56D
:1015F000481F57D0B3F5781F00F08280B3F5401F25
:10160000BAD14748FFF740FF464B0446D3F82801BC
:10161000C0F3012004302BE0FFF7D2F9414BD3F89F
:101620000C31C3F308230133B0FBF3F038BDFFF7EF
:10163000C7F93C4BD3F80831F3E7FFF7C1F9394B51
:10164000D3F81431C3F30423EDE73448FFF71CFF4C
:10165000344BD3F8303103F00303D840E6E72E488B
:10166000FFF712FF2F4B0446D3F8200100F00F00C4
:10167000FFF78EFDB4FBF0F0D8E72748FFF704FF33
:10168000284BD3F82031C3F30113E6E72448A5E73C
:101690002348FFF7F9FE234B0446D3F82801C0F393
:1016A0000110E5E72048FFF789FE0138072824D814
:1016B00001A353F820F000BFBB150000FB1600008B
:1016C000FB160000DF160000FB160000FB160000F2
:1016D000D9160000E7160000144B1868A6E7BDE80D
:1016E0003840FFF7A9B9FFF76BF90E4BD3F800317B
:1016F000C3F3042303FB000098E741F2333159E7B9
:10170000FFF75EF904462846FFF752FEB2E700BF36
:1017100006000E00EC4F000002001E000500240031
:101720000300200000400E40B800320048100020A6
:10173000014B1880704700BF4C100020013838B5AD
:101740000C46032864D8DFE800F002441A2FB1F5F4
:10175000007F04D3324842F22571FFF7CBFC314AB7
:10176000C4F30804D2F86838002BFBD12E4A136A60
:1017700023F4FF7323F001032343136238BD7F2951
:1017800004D9274842F23271FFF7B4FC254A04F02D
:101790007F01D2F86038002BFBD1234B1C6924F069
:1017A0007F040C431C61E9E77F2904D91C4842F2FD
:1017B0004D71FFF79FFC1B4A04F07F01D2F864389B
:1017C000002BFBD1184B9C6924F07F040C439C61D7
:1017D000D4E7154DD5F890305B0704D5104842F298
:1017E0005D71FFF787FC6B6A23F0300343F0100351
:1017F0006B62C4F3C311CB1C2A6B0C490F2B01EA9B
:10180000020128BF0F23214341EA03712963B5E791
:10181000BDE83840024842F27771FFF76BBC00BF69
:10182000EC4F00000020C84300400E4000F8FF0FBE
:10183000022810B50C4604D0144842F28F71FFF70D
:1018400059FC134B5B6A13F0300F1BD0202C16D0C1
:10185000302C17D0B4B10D4842F2AA71FFF74AFC00
:101860000C4B0B4AD2F8901033EA0101FAD15B021B
:101870004ABFD2F8A0000120C0F3802010BD4FF471
:101880000003EEE74FF44003EBE700BFEC4F00002E
:1018900000400E40FF33E107022808B50CD129B102
:1018A000094B4FF48060C3F8A80059664AB1BDE8FF
:1018B00008400220FFF7BCBF044842F2E071FFF786
:1018C00019FC012008BD00BF00400E40EC4F000095
:1018D00004282DE9F04704460F4691461FD83D4B9A
:1018E0003D4A13F800A03D4B13F80080F1B93C4B82
:1018F00033F810301366012303FA08F8D2F8903059
:1019000013EA080FFAD1B9F1000F5AD00125324A73
:1019100005FA0AF5D2F890302B42FBD151E0BDE830
:10192000F047304842F27461FFF7E4BB2E4B0228C7
:1019300033F8106047D1536A13F0300F43D12B4B6B
:10194000DB6B5A0504D4274842F28361FFF7D2FBD0
:10195000214A536ADB0705D5536A23F0300343F06D
:1019600010035362224D1C4BA8441E664FEA8808A0
:10197000D8F80030002BFBD0B9F1000F21D055442E
:10198000AD002B68002BFCD0022C1AD1CFB1124F26
:10199000796A11F0010118D0012220212046FFF7B9
:1019A0007BFFD7F89C40012200210220FFF790FF27
:1019B000C4F30A010220FFF7C1FE3E662B68002B2C
:1019C000FCD0BDE8F0870027CCE72046FFF730FFCA
:1019D000E7E700BF9D50000000400E40A25000000D
:1019E000B2500000EC4F0000A850000000300E4044
:1019F0008004F210112838B50C460FD000F00F000B
:101A00000138072800F2EB80DFE810F024006600C0
:101A10009A00E9007D00B400E900C200042912D157
:101A2000FFF70AF80546A8B10021284600F0B6FBEA
:101A3000023C0A2C45D8DFE804F04A4731374444D9
:101A400044443D0F4D00052904D1664B1D68664B8B
:101A50009D42E9D80025EBE7032005240122114629
:101A6000FFF736FFFFF7A2FB0DB1FFF7B1FB5F4BAE
:101A70005C67FEF7CFFF0446FEF7A2FFFFF73CFBD3
:101A8000FFF7B4FB01462046FFF7C6FB002D5DD1F2
:101A900028460121BDE8384000F080BB5448FFF7DC
:101AA0002BFB02200446D9E75148FFF725FB012410
:101AB0000320D3E741F6E871BDE838404D48FFF711
:101AC00019BB41F6ED71F7E701200324C6E70020BA
:101AD0000424C3E70724C5E7062933D14548464D0A
:101AE00042F22C01FFF706FB424842F23C01FFF7AD
:101AF00001FBFEF765FFFFF7FFFA404B0122C3F839
:101B00000826032321E006293D4DEDD0013C092C98
:101B10002BD801A353F824F0711B00004F1B0000C9
:101B20005D1B00006B1B00006B1B0000F31A000024
:101B30006B1B00006B1B00006B1B0000491B0000AF
:101B4000304DE3E72C4DE1E704232B6038BD012243
:101B500011460020FFF7BCFE0223F6E701221146E2
:101B60001046FFF7B5FE0123EFE742F26701A3E756
:101B70000023EAE7072904D0092906D042F2F1013F
:101B80009AE71A4B00221A67E0E7184B0122FAE79E
:101B90004C1E072C1ED8DFE804F0201D1D161D1D4D
:101BA0000F0403221149D1F85C3123F0300343EADA
:101BB0000213C1F85C31C9E7012211460420FFF786
:101BC00087FE0122EEE7012211460220FFF780FE88
:101BD0000222E7E742F24F116EE70022E2E742F20B
:101BE000262169E73C100020002D310100400E4005
:101BF0000148E801EC4F000080400E400010C8434F
:101C000088400E4084400E4010B504461120FFF776
:101C1000D5FB042804D1274842F20F51FFF76AFA96
:101C2000012200210220FFF753FE63781BB9A3783D
:101C30000BB9E37823B11F4842F24B51FFF75AFA30
:101C4000237C012B04D11B4842F25251FFF752FA78
:101C5000194A217C536A23F00103022908BF43F08B
:101C600001035362154B2178C3F8A014637AA1884D
:101C700043EAC123D362136BA07A217A03F07F6316
:101C80000343E08843EAC02343EAC11303310F2929
:101C900028BF0F2143EA01731363A37B617B1B0100
:101CA00043EA0133E17B0B43217B43EA0143536366
:101CB00010BD00BFEC4F000000400E400000C843C4
:101CC00070B505461120FFF779FB022804D10F48B3
:101CD00042F2CD51FFF70EFA0D4E0E4BB26B2C783F
:101CE00013401C436B7844EAC324AB7844EA036492
:101CF000EB7844EA0324B36BA34205D00021012210
:101D00000846FFF7E5FDB46370BD00BFEC4F00006F
:101D100000400E4080E4FFF8EFF3108072B6704789
:101D200000B962B67047EFF31180602383F3118826
:101D3000704780F31188704738B5C5B2322D04461C
:101D400004D9084840F21F31FFF7D4F9064B640963
:101D500005F01F0553F82400E840C04300F00100DF
:101D600038BD00BFE450000000E100E0034BD86B39
:101D700080F04000C0F38010704700BF00300E407C
:101D800038B542EA0323B3F5007F05460C463ED042
:101D900019D8B3F5807F36D00AD883B3012B21D070
:101DA0001F4840F68E11FFF7A5F9002213461FE0E9
:101DB00040F201129342F3D11A4BD3F824321A0E97
:101DC000C3F3074314E0B3F5407F24D040F201325F
:101DD000934210D040F201229342E1D1114BD3F84B
:101DE000283202E00F4BD3F82432C3F30722DBB2D0
:101DF0002B60226038BD0B4BD3F82832DFE7094B4C
:101E0000D3F81C32F1E7074BD3F81C32D7E7054B68
:101E1000D3F82032E9E7034BD3F82032CFE700BFF5
:101E2000145100000081E00F08B5FFF79FFF20B1BB
:101E3000024AD2F8C830002BFBD108BD0000C643CF
:101E400008B5FFF793FF80B1FFF7EEFF074B196866
:101E50005A68C1F30121C2F3014291421A688CBF52
:101E600042F0100222F010021A6008BD00300E404D
:101E7000064B1B68DB0608D5054B1B69C3F30443FF
:101E8000082B02BF034B044A1A60704700300E4013
:101E900000400E403C100020C0EA210137B5FFF79A
:101EA00065FF38B1244B1B78C3F102021023934025
:101EB000224A13612249234DD1F8804145F60E0391
:101EC000C1F880312B6823F0AA03DB05DB0D0B661C
:101ED000FFF7AAFF194B1B68D80604F0010416D5BA
:101EE000D1F84031DA01FBD4174B1B680B61174B5B
:101EF0001B78052B0BD1164B18680190FFF794FF48
:101F00000E4B01985968C1F30141FFF785F90F4B5A
:101F10001978052902D01120FFF76CFD2B68DB072B
:101F20005EBF074B02221A661CB1054B0022C3F8A4
:101F3000802103B030BD00BF3D22002000300E40A4
:101F400000400E402C2200203822002036220020A3
:101F50003C1000201A4B022810B5D3F830320C4642
:101F600012D0032813D0012814BFDBB2C3F3072318
:101F70001B0323F47042ECB95AB140F61D1111480D
:101F8000FFF7B8F8002010BDC3F30743F0E71B0EBE
:101F9000EEE70D49CA6E22F470421343CB6601206E
:101FA000F1E70949D1F8EC2022F470421343C1F85B
:101FB000EC30F4E7002AF4D040F62911DFE700BF47
:101FC0000081E00F1451000000300E4010B50B4CA2
:101FD0000B4BD4F890201A601120FFF7EFF9094B52
:101FE0001870FFF721FF084B084A5B68C3F30143F1
:101FF0001370074B22691A6010BD00BF00400E40ED
:102000002C2200203622002000300E403D220020ED
:1020100038220020704770477047000010B5044612
:1020200008B1FFF7D3FFFFF70BFF164A136943F020
:1020300004031361FFF7EEFFFFF7EDFF124B1B6880
:10204000DB0618D5FFF768FE02F002FFFFF768FE17
:10205000FFF7E2FF01F082FC7CB1FFF71FFF0A4AA5
:10206000D2F84C3123F00043C2F84C3144B9BDE8FA
:102070001040FEF7CFBC30BFEAE7FFF7F9FEEEE70E
:1020800010BD00BF00ED00E000300E4038B5044642
:1020900008B1FFF79BFFFFF7D3FE1B4B1B4DD3F897
:1020A000802145F60E01D207C3F8801148BF0022F7
:1020B0004FF42071196648BFC3F88021144A136990
:1020C00043F004031361FFF7A5FF2B68DB0615D56A
:1020D000FFF722FE02F0BCFEFFF722FE01F03EFCFD
:1020E00074B1FFF7DBFED5F84C3123F00043C5F89F
:1020F0004C3144B9BDE83840FEF78CBC30BFEDE749
:10210000FFF7B6FEEFE738BD00400E4000300E404E
:1021100000ED00E0FFF75ABFFFF7C0BEF8B5044678
:102120000F46FFF723FE78B3FFF77EFE174B5B6881
:10213000C3F301439C4227D0154BD3F80061FEF74F
:102140003FFC022C05460FD1124BC6F3042606FBBA
:1021500000069E4204D9104840F23161FEF7CAFFE2
:1021600002212846FFF758F8C4F1020210239340D9
:10217000064A13610FB1FFF757FE2CB921462846D6
:10218000BDE8F840FFF748B8F8BD00BF00300E408A
:1021900000400E40002D31011451000013B50246DD
:1021A000FFF7E4FDC8B152B90D4B0191D3F80041DE
:1021B000FEF706FCC4F30422019902FB0002094B5E
:1021C0001B7843B1084B9A4205D8022002B0BDE803
:1021D0001040FFF7A3BF0020F8E702B010BD00BF1A
:1021E00000400E403C220020002D3101034B0278BC
:1021F0001A7001210020FFF7D1BF00BF3C22002050
:10220000094942780B6823F4407343EA0223022A07
:102210000B6008D1054B5B6A9B0004D5044840F273
:102220006D61FEF767BF704700300E4000400E4002
:10223000145100000378134A002B437870B514BF83
:1022400004260026002B8378946914BF02250025FC
:10225000002B037924F03F0443EA0403C47814BF3D
:1022600008210021012C08BF43F0010333432B4315
:102270000B4393611368417923F4403343EA0143EC
:10228000136070BD00300E40224B4AF6E85210B584
:10229000596B5A639A6FD207FCD41B6C13F003037B
:1022A0001EBF1D4A0124C2F8B44A834204D110B9AA
:1022B000194BC3F8B40A10BD032B00D09BB9431EC1
:1022C000012B10D8134A4FF40023D362936FDB071E
:1022D000FCD4136C23F0030343F0010313640D4A91
:1022E000536A1C03FCD50B4B9A6FD207FCD41A6CB3
:1022F00022F0030202431A649A6F12F00102FBD12A
:102300000038054C18BF01200129C4F8B40A08BFE1
:102310005A63D0E700300E400000C6432DE9F04F6D
:10232000A0F5E16389B00024B3F5966FCDE90244CE
:10233000CDE90444CDE9064406468A46934605D9CC
:1023400040F6EE215548FEF7D5FEA3E0B0F5E16F6B
:10235000534B8CBF0122002249D1D3F81832C3F36A
:102360000721DBB2079104934FF416754FF496677B
:1023700048E0BBF1000F0ED0D9F85C2022F4FE42F9
:1023800022F00202B6F5E16F42EA012218BF0220F4
:102390000243C9F85C20BAF1000F26D02046002184
:1023A000FFF7D8FD044610B940F64B31CAE70121CA
:1023B0004046FFF7CFFD044610B940F65331C1E760
:1023C000384A536EBD4238BF3D4623F4FF73E72DB4
:1023D00023F0010328BFE725B6F5E16F18BF43F0EE
:1023E000010343EA4503536654E0012452E0D3F865
:1023F0001832190EC3F30743079104934FF49665FF
:102400004FF4E167DFF89C90D9F84C400192C4F397
:102410000174234605A902A8FFF7B2FCD9F8EC30F5
:10242000019AC3F30128434606A903A8FFF7A8FCB5
:10243000049BF01B079FF91A4143B1FBF5F2991871
:102440002CBF012300238F421ED3EBB9069A039FB2
:10245000D31B4343B3FBF5F3FF182CBF0123002329
:10246000BA4211D383B9059B029AA3EB020C00FB7D
:102470000CF0B0FBF5F555192CBF01200020AB4244
:1024800002D300283FF475AF044840F63C31FEF714
:1024900031FE0024204609B0BDE8F08F1451000041
:1024A0000081E00F00300E40334A08B5136FD16C45
:1024B00011F0010F03F0060344D0002B42D0132883
:1024C00057D9143813288CBF102308232A49013BFD
:1024D000CA6C180322F47F4240EA03231343CB64FF
:1024E000264BCA6C1B88C2F303222833013202EB4D
:1024F000820003EB5303B3FBF0F3C86C013B072BE3
:1025000028BF072320F0EE6040EA036343F4801302
:10251000CB641B4BB3F90030002B12DB03F1280016
:10252000C0F34E030344500800EB4202B3FBF2F247
:102530000B6D072A28BF072223F0700343EA02121B
:102540000A6508BDD16C01F00101194304D10928C5
:102550000FD90A380928B6E7D26CD20702D50BB9D1
:102560002728B0E7074840F69131FEF7C3FD002366
:10257000ACE70423AAE700BF00300E40322200205F
:1025800034220020145100000C4BD3F8803910B5D0
:10259000044633B9012804D9094840F6AF31FEF7A3
:1025A000A9FD084A136F23F0070323431367064B63
:1025B000BDE810401888FFF777BF00BF0000C64392
:1025C0001451000000300E403022002038B55A4B24
:1025D00002229A639B6B03F00F039342044607D0D9
:1025E000564840F64B21FEF785FD0025284638BDAC
:1025F0000389C82B04D9514840F65521FEF77AFDCE
:10260000A28823899A4204D94C4840F65621FEF705
:1026100071FDB4F90C30C82B04DD484840F6572151
:10262000FEF768FD6378012B55D1A388C82B04D928
:1026300040F65B214148FEF75DFDE28842F21073EF
:102640009A4204D93D4840F66821FEF753FDE388DD
:102650004A2B48D9B3F5FA7F47D340F6C3129342C9
:1026600094BF4FF000524FF040523349B4F90C0080
:10267000CB6C23F0405323F001030028A8BF43F0A4
:1026800001031343CB64D1F8EC30A28843F44073C8
:10269000C1F8EC302A4B1A80CB6E43F08073CB66C6
:1026A000284BD3F8800900B10420FFF76DFF264BBB
:1026B00021891980254BB4F90C20A0881A80FFF7D6
:1026C000F3FEA37BA3B1012B22D01C4840F6CE0120
:1026D000FEF710FD0FE0022BAFD1A3880A2BACD977
:1026E0004FF42661A6E70022BFE74FF08052BCE717
:1026F000114B174A9A65012260881146FFF70EFEBA
:10270000054640B90D4840F69F21FEF7F3FC6DE702
:10271000094B104AEEE7084AD36B43F48063D36356
:102720006078FFF7B1FDA37AA3F120025342534131
:10273000044AC2F8943759E700300E4014510000A3
:10274000302200200000C643322200203422002024
:1027500077402057372110B738B50D46044618B3D7
:10276000012824D0022825D0032826D004280ED002
:10277000052825D0831F012B09D9082823D0092833
:1027800023D00A2803D10723EB40DB0704D41048E9
:1027900040F21341FEF7AEFC30200E4B01214443C2
:1027A00001FA05F51D5138BD40F2FF33ECE74FF655
:1027B000C073E9E740F6FF73E6E74FF47F43E3E7D2
:1027C0004FF6FF73E0E70F23DEE74FF44043DBE70C
:1027D0007A4F00000CA0004638B50D46044618B3E9
:1027E000012824D0022825D0032826D004280ED082
:1027F000052825D0831F012B09D9082823D00928B3
:1028000023D00A2803D10723EB40DB0704D4104868
:102810004FF47971FEF76EFC30200E4B01214443DA
:1028200001FA05F51D5138BD40F2FF33ECE74FF6D4
:10283000C073E9E740F6FF73E6E74FF47F43E3E751
:102840004FF6FF73E0E70F23DEE74FF44043DBE78B
:102850007A4F00000CA0004470B505460E461446A1
:10286000FFF75AFA296881EA040202EA06044C409A
:102870002C60BDE87040FFF753BA00001F2810B568
:10288000044603D906485221FEF734FC054AD2F823
:10289000443423F003032343C2F8443410BD00BF83
:1028A0004351000000A000402DE9F0410E461546BE
:1028B0001F46044600285FD0012860D0022861D05E
:1028C000032862D004280ED0052861D0831F012B75
:1028D00009D908285FD009285FD00A2803D107202A
:1028E000F040C30703D43748BF21FEF703FC86EA54
:1028F000050333F0030303D03248C121FEF7FAFB8E
:10290000072D06F003064FF00F0149D84FEA85085E
:102910002D4804FA08F201FA08F1FFF79DFF0321A0
:102920002A4806FA08F201FA08F1FFF795FF1F2D71
:1029300003D927489121FEF7DDFB264C2C44A40047
:102940001F2D276003D922489121FEF7D3FB9DF864
:102950001830C4F88030204A0123AB401F2DC2F844
:10296000243403D91A489121FEF7C4FB9DF81C308A
:10297000C4F80033BDE8F08140F2FF30B0E74FF615
:10298000C070ADE740F6FF70AAE74FF47F40A7E7BD
:102990004FF6FF70A4E70F20A2E74FF440409FE7F7
:1029A000A5F108084FEA88080C4804FA08F201FA71
:1029B00008F1FFF751FF0321094806FA08F201FA6E
:1029C00008F1B2E74351000000A4004008A4004011
:1029D000735100008020851000A0004004A4004036
:1029E0000CA40040F8B50D4616461F460446D8B361
:1029F00001283CD002283DD003283ED004280ED028
:102A000005283DD0831F012B09D908283BD0092870
:102A10003BD00A2803D10723EB40DB0704D4274827
:102A200040F21D11FEF766FB26B1294620467FB312
:102A3000FFF792FE3020604300F18040072D00F543
:102A4000204028D84368AA000F21914023EA0103BF
:102A500006FA02F21343436076BB294620463FB391
:102A6000BDE8F840FFF778BE40F2FF33D4E74FF6F9
:102A7000C073D1E740F6FF73CEE74FF47F43CBE757
:102A80004FF6FF73C8E70F23C6E74FF44043C3E791
:102A9000FFF7A2FECEE7A5F1080382689B000F2195
:102AA000994022EA010206FA03F313438360D3E755
:102AB000BDE8F840FFF790BEF8BD00BF43510000ED
:102AC000022838B504460D4603D911484C21FEF7BB
:102AD00011FB6B791F2B03D90D484F21FEF70AFB21
:102AE000AB786A789B0143EA82032A781343EA7839
:102AF00043EA02132A7943EAC2236A7943EA02339A
:102B0000AA79043443EA42432401024A135138BDEE
:102B1000E451000000200440014B1860704700BFE2
:102B200000008442427801790378002A827870B5E7
:102B300014BF04260026002AC27814BF10250025E1
:102B4000002A42794FEA023242EA012242EA0302B3
:102B5000837914BF20240024002BC37942EA034365
:102B600043EA0603027A43EA050314BF4FF4004127
:102B700000212343002A14BF4FF4003200220B43EC
:102B80001343014A136070BD0020044070B506462F
:102B90000C46154622B90D484FF42271FEF7AAFAE9
:102BA0001CB90B48FEF7D4FC04460A4B6D00013CEF
:102BB000B4FBF5F413EA04234FEA042504D00348D8
:102BC00040F2A521FEF796FA756170BD145200001F
:102BD00040410500070080FF38B51E4B1E4D98424E
:102BE00004460ED0A8420CD003F50063984208D0EA
:102BF00003F58063984204D0184840F22E41FEF756
:102C000079FA40F6AA63E36041F2050200232360EB
:102C10006260134AA3606361E364A264236663672E
:102C2000A367E3670B4B9C4209D0AC4207D003F586
:102C300000639C4203D003F580639C4201D10023D2
:102C400023650023AC42A36502D0064A944200D11A
:102C5000E36538BD0000014000040140145200004B
:102C6000F9FF0100000C014038B52A4B9842044698
:102C70000D4610D003F5806398420CD003F58063B5
:102C8000984208D003F58063984204D022484FF45C
:102C90005671FEF72FFA2046FFF79EFFA97B2A8A7E
:102CA0002368002942F0010214BF4FF48061002123
:102CB00013430B432A7D23602368002A14BF4FF07F
:102CC0000052002213432360AB7C1BB1EB7C43F02A
:102CD0008003A3652B7B43F480536360D5E9011225
:102CE0002046FFF753FF6B7B0BB11023E3606B7D36
:102CF0001BB1236843F480332360AB7DEA7D1B075F
:102D0000120503F0E04302F4E002134323662B783C
:102D1000E36038BD000001401452000003695B0607
:102D2000FCD54163704700004111064A012300F0C1
:102D30001F0003FA00F052F82130184342F8210036
:102D4000704700BF4C220020044B1B681BB1044B92
:102D50000360002070470120704700BF5C2A0020FC
:102D60003E22002070B50D4C246884B10C4C26889E
:102D70008518B5420DDC6688CD18B54209DC52B124
:102D80004BB1A080E18022816381002070BD0120D1
:102D9000FCE70420FAE70520F8E700BF5C2A0020E2
:102DA0003E2200202DE9F74F0093444B1B68002B77
:102DB0007FD0DFF810910D9FB9F80630B9F80A20DE
:102DC0005D181A441FFA82FAADB24FF0010B1FB919
:102DD000384603B0BDE8F08FABB29A456BD9384A9C
:102DE000B9F80840B9F80430241A02EB0511009A2A
:102DF000BC4228BF3C46161E18BF0126034476423B
:102E0000072CA7EB04079BB2F6B221D81C44BEB92D
:102E1000A34217D2DE0803F007020BFA02F08A5D24
:102E2000013322EA00028A559BB2F1E7D80803F089
:102E300007020E5C0BFA02F2324301330A549BB2D2
:102E4000A342F3D32846FFF76FFF01350020BEE70A
:102E50004FEAD30C01EBD30813F0070310D00BFAA1
:102E600003F211F80CE0D2B2501E52420EEA0000FA
:102E700032401043083B01F80C0008F101081C44E3
:102E8000E20809D031464046019201F06BFB14F094
:102E90000704019AD6D090440BFA04F498F8003055
:102EA000E4B26242013C134034401C4388F80040C5
:102EB000C8E701278CE704278AE700BF5C2A0020C7
:102EC0005C2200203E22002037B5124D2B68FBB952
:102ED000FDF74CFD044618B10124204603B030BD77
:102EE000FDF738FD28600028F6D0028841880A4B9B
:102EF0001A801A814A4359809C80DC80598120467F
:102F0000CDE90042234622462146FFF74BFFE4E786
:102F10000024E2E75C2A00203E2200202DE9F8434D
:102F20001B4FDFF874803C68DFF8689000230125B0
:102F30001A46D8F800004188D6188E4207D3FBB94C
:102F400013481022002101F00DFB002012E0E107E0
:102F500008D50133D118C9060ABF57F825406408BF
:102F60000135E6E753B109EB0211FDF799FC034681
:102F700010B10720BDE8F883721CEBE70132E9E7E6
:102F8000044901EB0211FDF78BFC0028D8D0F0E7D3
:102F90004C2200205C2200205C2A002030B1026814
:102FA0000021538812880846FFF7DCBE05207047D1
:102FB00037B50446A8B14568FFF7F0FF014668B988
:102FC00022681389528953430193EBB20093C5F3EE
:102FD0000742C5F30723FFF7E5FE0146084603B0A5
:102FE00030BD0521FAE710B470B183694269848964
:102FF000018A01330132121B5B1A20469BB25DF835
:10300000044B92B2FFF7AEBE05205DF8044B70474B
:10301000F0B4D0B1C9B10E688C68A64218DA4D6818
:10302000CA68954214DA002E14DB002D12DB016809
:103030000F88BC420EDA49888A420BDAC0E9036580
:10304000C0E90542F0BCFFF7CEBF0520F0BC7047D9
:103050000420FBE70320F9E730B5054687B000B34D
:1030600000226FF07F43C0E9012301A8FFF76CFE47
:10307000044698B9019B2B601A885B88CDE9020051
:10308000013A013B02A9284604920593FFF7C0FFCD
:10309000044618B90449284600F0E1F8204607B074
:1030A00030BD0524FAE700BF7855000073B50D4622
:1030B0001646044690B10C3000F02FF880B1A2689B
:1030C00001230193D3B20093B1B2C2F30723A8B294
:1030D000C2F30742FFF766FE02B070BD0520FBE7B2
:1030E0000120F9E773B50D4616461C4688B10C3031
:1030F00000F013F878B101230193E3B20093C4F315
:103100000742C4F30723B1B2A8B2FFF74BFE02B0E7
:1031100070BD0520FBE70120F9E778B103688B4219
:103120000BDC83688B4208DB4368934205DCC06894
:103130009042B4BF002001207047002070472DE965
:10314000F04F85B090469DF8382002920446002842
:1031500000F08180A1F120025E2A7ED890F828201C
:10316000022A8DB21AD13A291AD020291AD0303D1C
:10317000ADB2228CAA4270D9E26901924FF0000BE5
:103180001A465E4694F825101FFA8BF399420BD825
:10319000B6FA86F0400905B0BDE8F08F203DE7E7BC
:1031A0000A25E6E70B25E4E794F82230012B05D049
:1031B000022B1DD0019B53F825A002E0019B13F8C0
:1031C00005A04FF0000994F824301FFA89F7BB429C
:1031D00012D894F8243094F827100B449F4229DB2E
:1031E00094F823301D44ADB20BF1010B0132C9E755
:1031F000019B33F815A0E4E71AF0010F0FD008EB9C
:10320000090120460392FFF751FF0128C3D8039A12
:1032100000B901364FEA5A0A09F10109D3E7029BC6
:10322000002BF7D06368039208EB09012046FFF7F3
:1032300059FFEAE7029B5BB16368039208EB070161
:103240002046FFF74FFF0128A5D8039A00B90136A1
:103250000137BFB2BDE705209DE702209BE708B517
:1032600020B11C30102219B901F07CF9052002E0D0
:1032700001F050F9002008BD7FB5094B6A4603F103
:103280001006154618685968144603C40833B3423B
:103290002246F7D12846FFF799F9002004B070BD07
:1032A000A858000013B502230024684600948DF846
:1032B00004408DF80530FEF7BDFF204602B010BD7A
:1032C00070B5114B86B001AA03F1100615461868B7
:1032D0005968144603C40833B3422246F7D11B8809
:1032E00023800A4B0A481B884FF6FF72934208BF9F
:1032F0004FF4B473ADF80A30FDF7A4FB2846FEF78F
:1033000083FC002006B070BDB85800000001E00F3B
:10331000005A620207B5084B186801903F2301A8C4
:103320008DF80430FEF7CCFC6420FEF701FA002093
:1033300003B05DF804FB00BFCA58000010B50C488C
:103340000C4C6FF00402A02112F0800FD3B21BBF0F
:1033500003F00F03043BA3181B1802F101020CBF7A
:1033600083F800131976332AEED1002010BD00BF78
:1033700000ED00E000E100E010B50446FEF7CCFCF3
:10338000024B1C60FEF7CCFC002010BD602A002020
:10339000FEE738B50C468D18AC4201D1002006E09E
:1033A00014F8011B0020FDF7EDFC0028F4D038BD17
:1033B00008B518B10548DF21FDF79CFE4FF06042CB
:1033C000D2F8803E1B02FBD408BD00BFCE580000DF
:1033D00010B50020FDF7CAFC044630B90448FFF7D9
:1033E000CBFF0449044800F011F9204610BD00BF8E
:1033F0005810002050100020642A0020034B1B7836
:10340000002B14BF01200220704700BF9C2A00201F
:103410000329F8B505460E4607D8174B5C5C032D0B
:1034200019D8DFE805F0090F1215144840F2A12160
:10343000FDF760FE0024F2E744F00204104B1F6821
:103440007FB9F8BD44F00804F8E744F02004F5E73C
:1034500044F08004F2E7094840F2B621FDF74AFE45
:10346000ECE77B681A68144203D05B683146284653
:1034700098473F68E4E700BF5A590000115900001F
:10348000982A002038B5104D2B78ABB10F4C23781B
:103490001BB100F082FA00232370002000F07EFAB6
:1034A0000B4C50B100F07CFA002320782B700121E6
:1034B000FFF7AEFF0123237038BD064B01221A70BF
:1034C000054B22781A70F7E7952A0020912A0020F0
:1034D000882A0020942A0020A42A002010B5FEF794
:1034E0001BFC064B1B7804461BB1BDE81040FEF7E1
:1034F00017BCFFF7C7FF2046F7E700BF902A002060
:1035000038B5134D2B78FF2B044605D160B1114817
:1035100040F21331FDF7EEFD2B782BB924B90D489D
:1035200040F21531FDF7E6FD2B78002C14BF012287
:10353000FF2213442B700AD0074B1B78012B06D9AE
:10354000064B1B781BB9BDE83840FFF79BBF38BD61
:103550009C2A002011590000882A0020942A00206B
:1035600070B5124EFEF7D8FB337805468BB900F0E4
:103570002DFB044620B12846FEF7D2FB204670BD45
:1035800000F03EFC0A4B18600A48FDF785FA0A4B2A
:103590001C6000F077F900F047FA084B186001232F
:1035A000284633700024FEF7BBFBE7E7922A002091
:1035B000A02A0020982A0020A82A00208C2A002077
:1035C00068B5FEF7A9FB094B1B78012B064604D80A
:1035D000FEF7A6FB0025284668BD054B1D6800F0D8
:1035E00027FA05443046FEF79BFBF4E7882A0020C3
:1035F000A82A002007B5FEF78FFB0190FFF742FFD6
:10360000019803B05DF804EBFEF78ABB38B5416062
:103610000446FEF781FB214605460448FDF740FAC3
:103620002846BDE83840FEF77BBB00BF982A002043
:10363000054B1B68584300F57420044B00F23F20F3
:10364000B0FBF3F0704700BFA02A002040420F00FB
:103650002DE9F04385B0FEF75FFB0446FDF710F857
:10366000002800F08980604D604F2B7823B1002046
:10367000FFF746FF00232B70FFF7C0FE012811D093
:1036800009D90238C0B201287CD9594840F2FE213C
:10369000FDF730FD06E02B7823B10020FFF730FF67
:1036A00000232B70FFF7AAFE0128064604D9514BD0
:1036B0001B780BB900F050F9DFF85481DFF8549112
:1036C00098F80000B04207D099F8003013B931469D
:1036D000FFF79EFE88F80060012E0CD9454E337826
:1036E0004BB9454B1B7823B900F056F9434B0122E7
:1036F0001A700123337098F8000000F079F999F8F6
:1037000000301BB13E4B1B7888F80030AFF30080CF
:103710002046FEF705FBFEF7FFFA0446384600F0A8
:103720008FFAFCF7B1FF064600289ED1314F3B7857
:103730009BB189F80000DFF8C49099F800301BB104
:1037400000F02BF989F80060002000F027F900282C
:1037500040D000F025F900233B702B7823B10020E6
:10376000FFF7CEFE00232B7098F800000021FFF732
:103770004FFE002388F80030204605B0BDE8F04336
:10378000FEF7CEBA03A9002000F0F6FA002889D18E
:103790001C4B039A1B689A4204D80120FFF7B0FE25
:1037A00001237EE7184B1E6800F042F9361804D555
:1037B0000F4840F2EB21FDF79DFC03998E42ECD2BD
:1037C00000230222CDE90032891B104A384600F05E
:1037D0005FFA67E7012000F00BF92046FEF7A0FA38
:1037E000FEF79AFA0446AFE79F2A00206C2A0020D1
:1037F00011590000952A00209E2A0020912A0020BD
:10380000A42A00208C2A0020A82A0020DD340000F1
:10381000882A0020942A002010B5FEF77DFA054B77
:1038200000221C781A70FEF77BFA00F0A3FB2043FD
:10383000C0B210BD932A002073B5104E3378834276
:10384000044611D000238DF8043078B101A88DF81A
:1038500005300B4DFEF7D4FC1E204CB1FFF7E8FEFF
:103860002B68181A2860347002B070BD0223EDE78F
:10387000FFF7DEFE2B681844F4E700BF6410002059
:10388000BC2A002073B5002401A88DF80440FEF77F
:10389000ADFC2046FFF7D0FF274AD2F8903003F066
:1038A0000403A342254B0CBF214601211970D2F815
:1038B0009030234CC3F30033237005D04FF41670BF
:1038C000FFF7B6FE1F4B186023781F4DEBB1112098
:1038D000FDF73EFE184BD3F80021C2F3042202FB91
:1038E000000292B15C6C194EC4F30B440023013406
:1038F0001946501E04EB8404E4FB060100F04CFC66
:10390000FFF796FE2B6818442860114B1B680120B6
:10391000C3F303239840C0F1010000EB8000643042
:10392000FFF786FE2B681844034B2860D3F89020DD
:10393000084B1A6002B070BD00400E40BA2A002049
:10394000B82A0020B42A0020BC2A002040420F00E0
:1039500000200440AC2A0020FEF7DCBB08B50B4B6E
:103960001B7893B1022000F0ADFB70B100F036FA85
:1039700058B1002201210220FDF7AAFF00F034FA1D
:10398000034B1860034B01221A7008BDBA2A0020AD
:10399000B02A0020B92A00207047704701207047E4
:1039A00038B50E4C0E4D23782BB92B781BB100F097
:1039B0001BFA0C4B1860FEF7AFFB2B786BB10A4A71
:1039C000D2F890301B07FBD500F00EFA054B1B68B0
:1039D000C01A064B18600023237038BDB92A002096
:1039E000BA2A0020B02A002000400E40B42A00204D
:1039F00002280AD003280BD001280CD1084A1369E9
:103A000023F00403136130BF70470020FEF706BBAC
:103A10000020FEF73BBB034840F25F11FDF76ABB95
:103A200000ED00E05E5900004FF41670FFF700BE95
:103A3000044B1B680BB103EBD303034A1068184413
:103A4000704700BFB42A0020BC2A002010B500F047
:103A5000E5FA0A4C0A4B19682368C31A01B10BB97D
:103A6000206010BD4A699A422EBFD21A9B1A0022CA
:103A70004A6128BF00238968F0E700BFC42A0020FC
:103A8000D82A0020C38870B504460D463BB9FFF71D
:103A900097FD8542064602D2FFF7ACFD35460F4939
:103AA00065610B68ABB90C60A36011E0AD1A9A6850
:103AB000656118462AB113465A69AA42F6D950B12F
:103AC0001A4684601346A36013B15969491B5961B2
:103AD00070BD0020F0E70C60F5E700BFD82A002099
:103AE00038B50F4B0F4D1C682B685B6902201C44D6
:103AF00000F0C2FA204600F097FA0B492A6800232A
:103B00000B70D088800702D501230B7038BD9268F6
:103B1000002AFBD050690344012BF2D9F6E700BF1D
:103B2000C42A0020D82A0020CC2A002070B51646CE
:103B30009DF814200271049A0260C0E90336002245
:103B4000BDF818308260C38004460D4600F066FA66
:103B50003044A0613DB9E368656113B12168204636
:103B6000984796B13546FEF7DEF80646FFF76EFF3A
:103B700029462046FFF786FF054B1B68A34201D16B
:103B8000FFF7AEFF3046FEF7D4F8002070BD00BF4F
:103B9000D82A00200C490B6800227BB183420AD14D
:103BA00083687AB1936083681BB15A6941690A449A
:103BB0005A61002070471A469B68EEE70028EFD054
:103BC000022070470B60EEE7D82A002070B5154E32
:103BD000FEF7A9F834780546FCB9134B1C60134B6B
:103BE0001C60134B1C8000F0D3F9012000F044FA54
:103BF00000F090FA0F4B0246186020B92846FEF7F5
:103C000098F8232070BD23460B4840F2E73100F0BE
:103C1000C3FA0A4B1860012333702846FEF789F86F
:103C20000020EFE7C02A0020D82A0020C42A002064
:103C3000CE2A0020D42A002018FCFFFFC82A00202A
:103C40002DE9F0410546F8B1FEF76DF80F4F064635
:103C5000FFF7FCFE2846D7F80080FFF79BFF0446DD
:103C600028B13046FEF765F82046BDE8F081A8454A
:103C70003B6803D123B1FFF733FFF2E7002BF0D10C
:103C8000022000F007FAECE72224EDE7D82A002012
:103C900070B586B0154605911E46044680B1FFF703
:103CA000CFFFBDF82C3002939DF828300599CDE95F
:103CB000006300222B462046FFF738FF06B070BD98
:103CC0002220FBE7F0B50D4685B016461F46044698
:103CD00080B1FFF7B5FFBDF82C3002939DF8283076
:103CE0002A46CDE90073294633462046FFF71EFFDA
:103CF00005B0F0BD2220FBE738B50C46054698B16B
:103D000091B100230B70FEF70EF8084B1B680121E0
:103D10000BB122781AB1FEF70CF8002038BDAB4287
:103D200014BF9B682170F3E72220F7E7D82A002010
:103D3000F0B587B01F4600230D4616468DF81730A4
:103D40000446A8B10DF11701FFF7D6FF9DF8173013
:103D500083B9BDF8343002939DF830302A46CDE95E
:103D60000073294633462046FFF7E0FE07B0F0BD5A
:103D70002220FBE70220F9E72DE9F04107468846BB
:103D8000FDF7D1FF134B1C680546002624B92846D1
:103D9000FDF7CFFF1B2016E063691E44E388BB429A
:103DA00015D10D4C00F03AF92368C01AB0420CD27C
:103DB00000F034F922683244121A2846C8F800206C
:103DC000FDF7B7FF0020BDE8F0810022F5E7A46809
:103DD000DCE700BFD82A0020C42A0020014B187855
:103DE000704700BFCC2A002038B5FDF79CFF054680
:103DF00000F014F904462846FDF79BFF204638BD25
:103E0000014B1868704700BFD42A00200A4B1B687A
:103E1000834210B50C460CD3084B19684FF47A72E4
:103E20000023A0FB010100F0B7F901302060002061
:103E300010BD2120FCE700BFC82A0020D42A0020A2
:103E4000C2072DE9F84F04460BD5464A13880133C3
:103E50009BB21380FFF7FAFD434B1B680BB1FFF7D2
:103E60003FFEA3077CD5FDF75EFF0546FFF7EEFD9D
:103E70004FF0000A3C4FDFF8F8905646D0463C68B9
:103E80000CB163698BB1394B0022012E1A7003D13A
:103E9000BAF1020F08BF1E70002C51D0FFF720FEB0
:103EA0002846BDE8F84FFDF744BF23461A7921792B
:103EB000914288BF1C469B6813B15A69002AF5D00D
:103EC0002846FDF736FFD4F810A0BAF1000F3BD01A
:103ED00000F0A4F8A269851AEB17AA4578EB030352
:103EE00033DA23691344A36101222369D3B1CAB928
:103EF000EB17BAEB050563EB4303002B04DA40F242
:103F000002414846FDF7F6F8FDF70DFF29468246C7
:103F10002046FFF7B7FDA36922691344A361504609
:103F2000FDF707FFE368B4F806A0013613B1216876
:103F300020469847FDF7F7FE0546FFF787FD9EE709
:103F4000022000F0A7F8ABE75546FDF7ECFE8346EC
:103F50002046FFF71FFE5846FDF7EBFE0022C4E7A0
:103F6000BDE8F88FCE2A0020D82A0020D02A0020D1
:103F7000B159000010B5FDF7D6FE034B1C78FDF7D4
:103F8000D8FE204610BD00BFD02A00200020704778
:103F900010B51E4B86B01868596803AA03C2197A77
:103FA000D3F8090011700024B3F80D200190DB7BD9
:103FB0001748ADF8082001218DF80A30FDF73AF9CD
:103FC0008DF80C40FFF7E2FF8DF8100003A8FEF714
:103FD000A9FD01A901208DF80440FEF771FD0D4AED
:103FE000536A23F4FF6323F00703536240F2FF7325
:103FF000136201209460FEF78FFD074B4FF0804263
:10400000C3F880211A6006B010BD00BFF45900004B
:10401000A00914000020044000E100E0014B986872
:10402000704700BF00200440114A9368516D9269A7
:10403000520704D4CA1A032A01D88B420DD1C21ADE
:10404000022A98BFD81C0A4BB0F1FF3F38BF013895
:1040500058655A6A42F004025A62064A137833B12C
:1040600003490B6D43F002030B6500231370704787
:1040700000200440651000208207054A00F001037B
:10408000516A48BF43F004030B435362704700BFBB
:1040900000200440820700F0010309D5074A0121EE
:1040A000117007490A6D22F0030243F004030A6508
:1040B00003494A6A22EA03034B62704765100020F5
:1040C00000200440064B01289B6904D0022805D13A
:1040D000C3F38000704703F0010070470020704771
:1040E0000020044010B5FDF71EFE094A93690446FE
:1040F000590703F0010003F0070348BF40F0020036
:104100001362FFF79DFE2046BDE81040FDF711BE8B
:104110000020044008B50448FDF71AFA0346FFF7EB
:1041200035FF23FA00F008BDA009140008B5FCF71C
:1041300041FAFCF789FAFCF792FAFCF797FABDE826
:104140000840FCF794BA08B5FCF792FAFCF791FA2C
:10415000FCF790FABDE80840FCF78DBA10B50446AC
:10416000FCF758FC4FF47A735C43B0FBF3F306485A
:10417000B0FBF3F0B4FBF0F0032804D9BDE8104025
:10418000800800F005B810BD40420F00000000009C
:10419000013800D0FCE7704753B94AB9002908BF7D
:1041A00000281CBF4FF0FF314FF0FF3000F074B912
:1041B000ADF1080C6DE904CE00F006F8DDF804E07E
:1041C000DDE9022304B070472DE9F047089D04465D
:1041D0008E46002B4DD18A42944669D9B2FA82F2BA
:1041E00052B101FA02F3C2F1200120FA01F10CFAF6
:1041F00002FC41EA030E94404FEA1C48210CBEFB2E
:10420000F8F61FFA8CF708FB16E341EA034306FBB6
:1042100007F199420AD91CEB030306F1FF3080F045
:104220001F81994240F21C81023E63445B1AA4B292
:10423000B3FBF8F008FB103344EA034400FB07F734
:10424000A7420AD91CEB040400F1FF3380F00A8175
:10425000A74240F207816444023840EA0640E41B6A
:1042600000261DB1D4400023C5E900433146BDE816
:10427000F0878B4209D9002D00F0EF800026C5E9B8
:10428000000130463146BDE8F087B3FA83F6002ED0
:104290004AD18B4202D3824200F2F980841A61EB48
:1042A000030301209E46002DE0D0C5E9004EDDE766
:1042B00002B9FFDEB2FA82F2002A40F09280A1EB4E
:1042C0000C014FEA1C471FFA8CFE0126200CB1FBA3
:1042D000F7F307FB131140EA01410EFB03F088429C
:1042E00008D91CEB010103F1FF3802D2884200F229
:1042F000CB804346091AA4B2B1FBF7F007FB1011BB
:1043000044EA01440EFB00FEA64508D91CEB040458
:1043100000F1FF3102D2A64500F2BB800846A4EBB3
:104320000E0440EA03409CE7C6F12007B34022FA9E
:1043300007FC4CEA030C20FA07F401FA06F31C43CD
:10434000F9404FEA1C4900FA06F3B1FBF9F8200CDA
:104350001FFA8CFE09FB181140EA014108FB0EF020
:10436000884202FA06F20BD91CEB010108F1FF3A70
:1043700080F08880884240F28580A8F1020861447C
:10438000091AA4B2B1FBF9F009FB101144EA01418A
:1043900000FB0EFE8E4508D91CEB010100F1FF3435
:1043A0006CD28E456AD90238614440EA0840A0FBCD
:1043B0000294A1EB0E01A142C846A64656D353D0A3
:1043C0005DB1B3EB080261EB0E0101FA07F722FAC7
:1043D00006F3F1401F43C5E9007100263146BDE8F0
:1043E000F087C2F12003D8400CFA02FC21FA03F353
:1043F000914001434FEA1C471FFA8CFEB3FBF7F0D4
:1044000007FB10360B0C43EA064300FB0EF69E42F8
:1044100004FA02F408D91CEB030300F1FF382FD291
:104420009E422DD9023863449B1B89B2B3FBF7F639
:1044300007FB163341EA034106FB0EF38B4208D912
:104440001CEB010106F1FF3816D28B4214D9023E53
:104450006144C91A46EA004638E72E46284605E771
:104460000646E3E61846F8E64B45A9D2B9EB020842
:1044700064EB0C0E0138A3E74646EAE7204694E7D2
:104480004046D1E7D0467BE7023B614432E7304605
:1044900009E76444023842E7704700BF0A4600213A
:1044A00000F060B808B5074B044613B10021AFF324
:1044B0000080054B1868836A03B198472046FEF7D1
:1044C00067FF00BF00000000045A000070B50D4DEA
:1044D0000D4C641BA4100026A64209D10B4D0C4CB8
:1044E00000F0A8FC641BA4100026A64205D170BDF4
:1044F00055F8043B98470136EEE755F8043B9847DA
:104500000136F2E7E4100020E4100020E41000205F
:10451000E81000200A44914200F1FF3300D17047B7
:1045200010B511F8014B03F8014F9142F9D110BDBC
:10453000884210B501EB020402D98442234607D811
:10454000431EA14208D011F8012B03F8012FF8E710
:10455000024401468A4200D110BD13F8014D02F811
:10456000014DF7E702440346934200D1704703F838
:10457000011BF9E7034613F8012B002AFBD1181A97
:104580000138704700B59BB0009104916FF0004175
:104590000591029105490391694600F06FF8009B6F
:1045A00000221A701BB05DF804FB00BF0802FFFF79
:1045B00013460A46014602480068FFF7E3BF00BF02
:1045C000681000202DE9F0478E689E4282460C4616
:1045D00090461F4638D88A8912F4906F32D02568E9
:1045E0000969A5EB0109656905EB450505EBD5757D
:1045F00001334B446D109D4238BF1D46530531D5E4
:10460000294600F071FB064650B90C23CAF8003069
:10461000A38943F04003A3814FF0FF30BDE8F0874A
:1046200021694A46FFF776FFA38923F4906343F09C
:104630008003A381266165614E44A5EB09052660D0
:10464000A5603E46BE4200D93E46206832464146FD
:10465000FFF76EFFA3689B1BA360236833442360AE
:104660000020DBE72A4600F099FB06460028E1D14E
:104670002169504600F0ECFAC7E700002DE9F04F41
:1046800098468B891B069DB007460D4614460ED5ED
:104690000B6963B9402100F027FB2860286120B92D
:1046A0000C233B604FF0FF30D1E040236B610023CF
:1046B000099320238DF82930CDF80C803023DFF8C2
:1046C000A8818DF82A304FF0010923469A4613F845
:1046D000012B0AB1252AF9D1BAEB040B0BD05B46AA
:1046E000224629463846FFF76DFF013000F0AA80C8
:1046F000099A5A4409929AF80030002B00F0A280DF
:1047000000234FF0FF32CDE905230AF1010A04939B
:1047100007938DF853301A935446052214F8011B61
:10472000514800F045FA049AD8B9D00644BF202376
:104730008DF85330110744BF2B238DF853309AF86E
:1047400000302A2B15D0079A544600204FF00A0C4F
:10475000214611F8013B303B092B4ED9B0B10792ED
:1047600014E0A0EB080309FA03F313430493A246F1
:10477000D2E7039B191D1B680391002BBBBF5B4253
:1047800042F0020207930793B8BF049223782E2BBE
:104790000CD163782A2B35D1039B1A1D1B68039219
:1047A000002BB8BF4FF0FF3302340593DFF8C8A0E9
:1047B00021780322504600F0FBF940B14023A0EBE2
:1047C0000A0003FA00F0049B03430134049314F835
:1047D000011B26488DF82810062200F0E9F9002870
:1047E00038D0234B1BBB039B073323F0070308334D
:1047F0000393099B3344099367E70CFB02320C4691
:104800000120A5E700230134059319464FF00A0C57
:10481000204610F8012B303A092A03D9002BC5D0C5
:104820000591C3E70CFB012104460123F0E703AB2C
:1048300000932A460F4B04A93846AFF30080421C70
:104840000646D6D1AB895B063FF52CAF09981DB063
:10485000BDE8F08F03AB00932A46064B04A9384607
:1048600000F07AF8EBE700BF085A0000125A000087
:1048700000000000C54500000E5A00002DE9F04779
:10488000164699468A680B69DDF820809342B8BFC6
:104890001346336091F8432007460C460AB10133B2
:1048A00033602368990642BF33680233336025685A
:1048B00015F0060506D104F1190AE36832689B1A5F
:1048C000AB4226DC94F84320131E226818BF012354
:1048D00092062BD404F1430249463846C0470130C2
:1048E0001ED02368E568326803F00603042B08BF76
:1048F000AD1AA36822690CBF25EAE575002593422D
:10490000C4BF9B1AED1800261A34B5421AD10020F4
:1049100008E00123524649463846C047013003D1DA
:104920004FF0FF30BDE8F0870135C6E7E1185A1CAB
:10493000302081F84300224494F8451082F8431057
:104940000233C7E70123224649463846C0470130B3
:10495000E6D00136D9E700002DE9FF470F7E0C9D18
:10496000782F914680460C469A4601F1430207D8BB
:10497000622F0AD8002F00F0D880582F00F0A380B3
:1049800004F1420584F842703AE0A7F16303152B65
:10499000F6D801A151F823F0F1490000054A0000C2
:1049A00081490000814900008149000081490000DF
:1049B000054A00008149000081490000814900004A
:1049C00081490000114B0000354A0000F34A000005
:1049D0008149000081490000334B000081490000FB
:1049E000354A00008149000081490000FB4A00006F
:1049F0002B681A1D1B682A6004F1420584F84230B6
:104A00000123A3E020682968060601F104030AD502
:104A10000E682B60002E03DA2D23764284F8433093
:104A20005E480A2319E00E682B6010F0400F18BF93
:104A300036B2EFE72B682068191D2960010601D501
:104A40001E6802E04606FBD51E8854486F2F0CBF37
:104A500008230A23002184F843106568A560002D0F
:104A6000A2BF216821F0040121600EB9002D4DD0B4
:104A70001546B6FBF3F103FB1167C75D05F8017D31
:104A80003746BB420E46F4D9082B0BD12368DE070C
:104A900008D5236961689942DEBF302305F8013CDF
:104AA00005F1FF35521B2261CDF800A04B4603AA49
:104AB00021464046FFF7E2FE01304CD14FF0FF3077
:104AC00004B0BDE8F087354881F84570296823684F
:104AD00051F8046B29601D0614D5DF0744BF43F06D
:104AE000200323601EB9236823F0200323601023D2
:104AF000B0E7236843F0200323607823284884F834
:104B00004530E3E7590648BFB6B2E6E71546BBE7CE
:104B10002B6826686169181D286035061B6801D559
:104B2000196002E07006FBD5198000232361154649
:104B3000BAE72B681A1D2A601D68626800212846A2
:104B400000F036F808B1401B606063682361002301
:104B500084F84330A8E723692A4649464046D047AF
:104B60000130ABD023689B0713D4E068039B9842C5
:104B7000B8BF1846A4E70123324649464046D0470D
:104B800001309BD00135E36803995B1AAB42F2DC3C
:104B9000EBE7002504F11906F5E700BF195A0000FC
:104BA0002A5A000000000000000000000000000081
:104BB00001F0FF01102A2BDB10F0070F08D010F8CE
:104BC000013B013A8B422DD010F0070F42B3F6D1D2
:104BD000F0B441EA012141EA014122F007047FF0EB
:104BE00000070023F0E80256083C85EA010586EA42
:104BF000010685FA47F5A3FA87F586FA47F6A5FA7E
:104C000087F68EB9EED1F0BC01F0FF0102F0070289
:104C100032B110F8013B013A83EA010313B1F8D134
:104C20000020704701387047002D06BF3546033815
:104C3000073815F0010F07D1013015F4807F02BF4E
:104C4000013015F4C03F0130F0BC0138704700BF9F
:104C500037B5002944D051F8043C0190002BA1F154
:104C60000404B8BFE41800F0CFF81E4A0198136896
:104C700033B96360146003B0BDE8304000F0CAB8D7
:104C8000A34208D9256861198B4201BF19685B6886
:104C900049192160EDE71A465B680BB1A342FAD9C6
:104CA00011685518A5420BD1246821445418A34219
:104CB0001160E0D11C685B68536021441160DAE741
:104CC00002D90C230360D6E7256861198B4204BF23
:104CD00019685B68636004BF491921605460CAE7C2
:104CE00003B030BDDC2A0020F8B5CD1C25F003054B
:104CF00008350C2D38BF0C25002D064601DBA942D6
:104D000003D90C2333600020F8BD00F07DF8214961
:104D10000A6814469CB9204F3B6823B921463046A7
:104D200000F062F838602946304600F05DF8431C18
:104D300023D10C233360304600F06CF8E3E723689E
:104D40005B1B17D40B2B03D923601C44256004E0A4
:104D50006368A2420CBF0B605360304600F05AF803
:104D600004F10B00231D20F00700C21ACCD01B1A3F
:104D7000A350C9E722466468CCE7C41C24F00304AE
:104D8000A042E3D0211A304600F02EF80130DDD1E8
:104D9000CFE700BFDC2A0020E02A0020F8B5074654
:104DA00014460E4621B9BDE8F8401146FFF79CBFF6
:104DB00022B9FFF74DFF25462846F8BD00F030F830
:104DC000A0420FD221463846FFF78EFF0546002845
:104DD000F2D031462246FFF79DFB31463846FFF7B9
:104DE00037FFE9E73546E7E738B5064D00230446C7
:104DF00008462B60FBF764FE431C02D12B6803B10D
:104E0000236038BDE42A0020014800F011B800BF3B
:104E1000E82A0020014800F00CB800BFE82A002072
:104E200051F8043C181F002BBCBF0B58C01870472A
:104E300070477047F8B500BFF8BC08BC9E46704785
:104E4000F8B500BFF8BC08BC9E46704700000000E3
:104E50005FF800F0CD100020496E737275637469BD
:104E60006F6E733A0A42544E2030202D206C6564D8
:104E70007320626C696E6B732E0A42544E2031208F
:104E80002D204846584F2076616C75652E00636F63
:104E9000756E746572206C6564733A2025640048F1
:104EA00046584F3A20256C75002E2E2F6D795F7075
:104EB00072696E74665F6C69622E630002000000A6
:104EC00000100020CD0B0000290C00007D0C00001C
:104ED0008D0C0000250C000008100020CD0B0000F8
:104EE000290C00007D0C00008D0C0000250C00003A
:104EF00018100020DD0E0000110F0000230F00002D
:104F0000350F0000B50F00001B100020DD0E000063
:104F1000110F0000230F0000350F0000B50F000037
:104F2000050000000000000040420F0005010000E5
:104F3000000000000000000080008000010100006F
:104F4000E0C810003C0602002E2E2F6765636B6FD1
:104F50005F73646B5F332E322E332F706C61746617
:104F60006F726D2F636F6D6D6F6E2F7372632F7322
:104F70006C5F736C6973742E6300433A5C557365A0
:104F800072735C797576616C5C53696D706C696382
:104F900069747953747564696F5C76355F776F7285
:104FA0006B73706163655C73696D706C655F62756E
:104FB00074746F6E5F626172656D6574616C5C675D
:104FC00065636B6F5F73646B5F332E322E335C707F
:104FD0006C6174666F726D5C656D6C69625C696E44
:104FE000632F656D5F6770696F2E68002E2E2F67C7
:104FF00065636B6F5F73646B5F332E322E332F707C
:105000006C6174666F726D2F656D6C69622F73725F
:10501000632F656D5F636D752E6300433A5C557356
:105020006572735C797576616C5C53696D706C69DF
:105030006369747953747564696F5C76355F776FF3
:10504000726B73706163655C73696D706C655F62D0
:105050007574746F6E5F626172656D6574616C5CAE
:105060006765636B6F5F73646B5F332E322E335CE7
:10507000706C6174666F726D5C656D6C69625C69A1
:105080006E632F656D5F636F6D6D6F6E2E680004CC
:1050900003020B050C0302010A0302060A090703B7
:1050A00001050806020004000001400004000100A0
:1050B00010000002800008000200200040787D01FE
:1050C00000000000005A620200010000C0CF6A0028
:1050D00002000000809FD50002010000002D310178
:1050E000020200002E2E2F6765636B6F5F73646B87
:1050F0005F332E322E332F706C6174666F726D2F9A
:10510000656D6C69622F7372632F656D5F636F727B
:10511000652E63002E2E2F6765636B6F5F73646B64
:105120005F332E322E332F706C6174666F726D2F69
:10513000656D6C69622F7372632F656D5F656D7548
:105140002E63002E2E2F6765636B6F5F73646B5F3A
:10515000332E322E332F706C6174666F726D2F6533
:105160006D6C69622F7372632F656D5F6770696F15
:105170002E6300433A5C55736572735C7975766192
:105180006C5C53696D706C69636974795374756490
:10519000696F5C76355F776F726B73706163655CA6
:1051A00073696D706C655F627574746F6E5F626158
:1051B00072656D6574616C5C6765636B6F5F73646A
:1051C0006B5F332E322E335C706C6174666F726D60
:1051D0005C656D6C69625C696E632F656D5F62759D
:1051E000732E68002E2E2F6765636B6F5F73646B81
:1051F0005F332E322E332F706C6174666F726D2F99
:10520000656D6C69622F7372632F656D5F72746375
:10521000632E63002E2E2F6765636B6F5F73646B65
:105220005F332E322E332F706C6174666F726D2F68
:10523000656D6C69622F7372632F656D5F75736145
:1052400072742E63000000005852000020030164B5
:10525000060802000100000000040A0A0403060612
:1052600008020000000000000E040E1F081F0C1FA3
:105270000E0E00001000010E0E0E0F0E071F1F0E67
:10528000110E1C110111110E0F0E0F1E1F11111105
:1052900011111F0E000E04000200010010000C008E
:1052A00001040801060000000000000002000000E8
:1052B0000000000C040600000000000000040A0AC0
:1052C0001E13090404040404000000001106110860
:1052D0000C01021011110606080002111011111123
:1052E0000901011111040809011B1111111111010A
:1052F000041111111111100200080A00040001002C
:105300001000121E01000001040000000000000057
:10531000020000000000000204080200000000007B
:1053200000040A1F0108050202081504000000100D
:10533000190410040A0F010811110606041F0410B5
:1053400010111101110101011104080501151311BA
:1053500011111101041111110A11080201081100A3
:10536000080E0D0E160E02110D060C09040B0D0E83
:105370000F160D0E0711111111111F02040815004F
:10538000000000000004000A0E04020002080E1FC4
:10539000001F00081504080809100F040E1E000065
:1053A0000200080816110F01110F0F1D1F0408033A
:1053B000011515110F110F0E04111115040A040225
:1053C0000208000000101301191107111304080549
:1053D0000415131111191301021111110A110801F9
:1053E00004100800000000000000001F100215005B
:1053F0000208150406000004130404101F10110213
:1054000011100606041F0404151F110111010111DA
:1054100011040805011119110115051004111115C8
:105420000A04020204080000001E1101111F021EDE
:1054300011040803041511110F1E010E021111159C
:10544000041E040204080000000000000000000A1E
:105450000F190900040404040400060211040211D7
:10546000081111021108060408000200151111119B
:105470000901011111040909011111110109091092
:1054800004110A151104010208080000001111118D
:10549000110102101104090504111111011001106C
:1054A00012190A150A100202040800000000000088
:1054B0000004000A04181600080200000200060199
:1054C0000E0E1F0E080E0E020E0600021000010442
:1054D0000E110F0E071F010E110E06111F11110ED6
:1054E0000116110F040E040A11041F0E100E001FE6
:1054F000001E0F0E1E0E020E110E06090E11110EC9
:105500000110010F0C16040A110E1F0C04060000F6
:10551000000000000000000000000000000000008B
:10552000000000000000000000000000000000007B
:10553000000000000000000000000000000000006B
:10554000000000000000000000000000000000005B
:10555000000000000000000000000000000000004B
:10556000000000000000000000000000000000003B
:1055700000000000000000008855000020030164C6
:10558000080802000100000000186C6C10CE3808FA
:10559000600C0000000000007C307C7CC6FE7CFEBD
:1055A0007C7C000070001C7C7C7C7E7C7EFEFE7C13
:1055B000C63C78C606C6C67C7E7C7E7C7EC6C6C6D9
:1055C000C6C6FE7C007C10000C000600600038009F
:1055D000060000060C0000000000000000000000B3
:1055E0000000003018188C000000000000186CFE4D
:1055F000FC6A2C1830186C18000000C0C638C6C6EB
:10560000C606C6C0C6C61818387C38C6C6C6C6C6C2
:10561000C60606C6C618306606EECEC6C6C6C6C6DE
:1056200018C6C6C6C6C6C00C066038000C00060008
:1056300060000C00061830060C000000000000009E
:1056400018000000000000181830D600000000000C
:10565000001848FE162E2C1818303818000000606C
:10566000C63060C0C6060660C6C618181C7C70C668
:10567000F6C6C606C6060606C618303606FEDEC6DE
:10568000C6C6C60618C6C6C66CC6600C0C606C00E2
:10569000043C3E3C7C3C3C3C3E0000660C6E3E3C88
:1056A0003E3C363C186666C666667E181830620058
:1056B000000000000018006C7C10DC001830FE7E3A
:1056C0001C7E0030C6303070FE7E7E307CFC0000D8
:1056D0000E00E070F6FE7E06C61E1EF6FE18301E98
:1056E00006D6F6C67EC67E7C18C6C6D638FC300CFA
:1056F0001860C6000060660666660C66661830367E
:105700000CD6666666666E067C6666C63C66300CBF
:105710000060000000000000000000FED0E866000D
:105720001830387E1C7E1C18C63018C0C0C0C61881
:10573000C6C018181C7C703076C6C606C60606C6DB
:10574000C618303606C6E6C606B6C6C018C6C6FEB9
:105750006CC0180C30600000007C6606667E0C7C15
:105760006618301E0CD666663E56063C186666D62F
:10577000187C18181830000000000000001800FE07
:105780007EAC660030186C1818001C0CC6300CC6B5
:10579000C0C6C60CC6C61818387C380006C6C6C6B1
:1057A000C60606C6C618366606C6C6C60666C6C697
:1057B00018C66CEEC6C00C0C606000FE0066660683
:1057C00066060C60661836360CC6666606260660E7
:1057D00018663CD63C600C18183000000000000031
:1057E0000018006C10E6DC00600C00180C001C06B1
:1057F0007C78FE7CC07C7C067C7C000C70001C30BD
:105800007CC67E7C7EFE06FCC63C1CC6FEC6C67CF4
:1058100006DCC67C187C38C6C67EFE7CC07C00FEDA
:10582000007C3E3C7C3C0C3E66701C6638C6663C88
:10583000065C063E707C18FC663E7E301818000040
:105840000000000000000000000000000000000058
:105850000000000000000000000000000000000048
:105860000000000000000000000000000000000038
:105870000000000000000000000000000000000028
:105880000000000000000000000000000000000018
:105890000000000000000000000000000000000008
:1058A00000000000000000000002080705000A00D8
:1058B000C8000000FFFF010001000000A000680117
:1058C0000A200706020A04070000000207002E2E25
:1058D0002F6765636B6F5F73646B5F332E322E339C
:1058E0002F706C6174666F726D2F73657276696369
:1058F000652F696F73747265616D2F7372632F7397
:105900006C5F696F73747265616D5F73776F2E631F
:10591000002E2E2F6765636B6F5F73646B5F332E92
:10592000322E332F706C6174666F726D2F736572D7
:10593000766963652F706F7765725F6D616E616701
:1059400065722F7372632F736C5F706F7765725F10
:105950006D616E616765722E6300010410402E2E2A
:105960002F6765636B6F5F73646B5F332E322E330B
:105970002F706C6174666F726D2F736572766963D8
:10598000652F706F7765725F6D616E616765722FED
:105990007372632F736C5F706F7765725F6D616E8A
:1059A000616765725F68616C5F73305F73312E632E
:1059B000002E2E2F6765636B6F5F73646B5F332EF2
:1059C000322E332F706C6174666F726D2F73657237
:1059D000766963652F736C65657074696D65722F88
:1059E0007372632F736C5F736C65657074696D653A
:1059F000722E63000100000005000000000200009C
:105A0000030000006C100020232D302B2000686C58
:105A10004C006566674546470030313233343536D1
:105A2000373839414243444546003031323334350A
:0C5A300036373839616263646566000037
:085A3C0010A7FF7F010000002C
:105A44000000000005060200000000000507020037
:105A5400C04E0000D84E00000504010505010000F9
:105A640000040140005204000206FFFF02080BFF7D
:105A74000B000000C0EA2101005A6202C0EA2101C1
:105A840000800000F02A0020C0EA2101FFFF00008E
:105A940002000000B1330000000000009333000056
:105AA40000000000010100006C1000200000000054
:105AB40000000000000000000000000000000000E2
:105AC40000000000000000000000000000000000D2
:105AD40000000000000000000000000000000000C2
